{"abi":[{"type":"constructor","inputs":[{"name":"_owner","type":"address","internalType":"address"},{"name":"_ownerSmartWallet","type":"address","internalType":"address"},{"name":"_name","type":"string","internalType":"string"},{"name":"_uri","type":"string","internalType":"string"}],"stateMutability":"nonpayable"},{"type":"function","name":"addTicket","inputs":[{"name":"ticket","type":"address","internalType":"address"}],"outputs":[],"stateMutability":"nonpayable"},{"type":"function","name":"name","inputs":[],"outputs":[{"name":"","type":"string","internalType":"string"}],"stateMutability":"view"},{"type":"function","name":"owner","inputs":[],"outputs":[{"name":"","type":"address","internalType":"address"}],"stateMutability":"view"},{"type":"function","name":"ownerSmartWallet","inputs":[],"outputs":[{"name":"","type":"address","internalType":"address"}],"stateMutability":"view"},{"type":"function","name":"renounceOwnership","inputs":[],"outputs":[],"stateMutability":"nonpayable"},{"type":"function","name":"setSmartWallet","inputs":[{"name":"_smartWallet","type":"address","internalType":"address"}],"outputs":[],"stateMutability":"nonpayable"},{"type":"function","name":"setURI","inputs":[{"name":"_uri","type":"string","internalType":"string"}],"outputs":[],"stateMutability":"nonpayable"},{"type":"function","name":"ticketCounter","inputs":[],"outputs":[{"name":"","type":"uint256","internalType":"uint256"}],"stateMutability":"view"},{"type":"function","name":"tickets","inputs":[{"name":"","type":"uint256","internalType":"uint256"}],"outputs":[{"name":"","type":"address","internalType":"address"}],"stateMutability":"view"},{"type":"function","name":"transferOwnership","inputs":[{"name":"newOwner","type":"address","internalType":"address"}],"outputs":[],"stateMutability":"nonpayable"},{"type":"function","name":"uri","inputs":[],"outputs":[{"name":"","type":"string","internalType":"string"}],"stateMutability":"view"},{"type":"event","name":"OwnershipTransferred","inputs":[{"name":"previousOwner","type":"address","indexed":true,"internalType":"address"},{"name":"newOwner","type":"address","indexed":true,"internalType":"address"}],"anonymous":false},{"type":"event","name":"SmartWalletUpdated","inputs":[{"name":"previousWallet","type":"address","indexed":true,"internalType":"address"},{"name":"newWallet","type":"address","indexed":true,"internalType":"address"}],"anonymous":false},{"type":"error","name":"OwnableInvalidOwner","inputs":[{"name":"owner","type":"address","internalType":"address"}]},{"type":"error","name":"OwnableUnauthorizedAccount","inputs":[{"name":"account","type":"address","internalType":"address"}]}],"bytecode":{"object":"0x60806040523480156200001157600080fd5b5060405162000bcd38038062000bcd833981016040819052620000349162000247565b838383826001600160a01b0381166200006857604051631e4fbdf760e01b8152600060048201526024015b60405180910390fd5b620000738162000115565b506001600160a01b038216620000cc5760405162461bcd60e51b815260206004820152601660248201527f496e76616c69642077616c6c657420616464726573730000000000000000000060448201526064016200005f565b600180546001600160a01b0319166001600160a01b0384161790556002620000f5828262000366565b5050505080600390816200010a919062000366565b505050505062000432565b600080546001600160a01b038381166001600160a01b0319831681178455604051919092169283917f8be0079c531659141344cd1fd0a4f28419497f9722a3daafe3b4186f6b6457e09190a35050565b80516001600160a01b03811681146200017d57600080fd5b919050565b634e487b7160e01b600052604160045260246000fd5b600082601f830112620001aa57600080fd5b81516001600160401b0380821115620001c757620001c762000182565b604051601f8301601f19908116603f01168101908282118183101715620001f257620001f262000182565b816040528381526020925086838588010111156200020f57600080fd5b600091505b8382101562000233578582018301518183018401529082019062000214565b600093810190920192909252949350505050565b600080600080608085870312156200025e57600080fd5b620002698562000165565b9350620002796020860162000165565b60408601519093506001600160401b03808211156200029757600080fd5b620002a58883890162000198565b93506060870151915080821115620002bc57600080fd5b50620002cb8782880162000198565b91505092959194509250565b600181811c90821680620002ec57607f821691505b6020821081036200030d57634e487b7160e01b600052602260045260246000fd5b50919050565b601f8211156200036157600081815260208120601f850160051c810160208610156200033c5750805b601f850160051c820191505b818110156200035d5782815560010162000348565b5050505b505050565b81516001600160401b0381111562000382576200038262000182565b6200039a81620003938454620002d7565b8462000313565b602080601f831160018114620003d25760008415620003b95750858301515b600019600386901b1c1916600185901b1785556200035d565b600085815260208120601f198616915b828110156200040357888601518255948401946001909101908401620003e2565b5085821015620004225787850151600019600388901b60f8161c191681555b5050505050600190811b01905550565b61078b80620004426000396000f3fe608060405234801561001057600080fd5b50600436106100a95760003560e01c80637237a4b6116100715780637237a4b6146101275780638c4d59d01461013a5780638da5cb5b14610151578063bbedb38e14610162578063eac989f814610175578063f2fde38b1461017d57600080fd5b806302fe5305146100ae57806306fdde03146100c35780632687f0f0146100e157806350b44712146100f4578063715018a61461011f575b600080fd5b6100c16100bc36600461049d565b610190565b005b6100cb6101a8565b6040516100d8919061054e565b60405180910390f35b6100c16100ef36600461059c565b610236565b6101076101023660046105cc565b6102eb565b6040516001600160a01b0390911681526020016100d8565b6100c1610315565b6100c161013536600461059c565b610329565b61014360055481565b6040519081526020016100d8565b6000546001600160a01b0316610107565b600154610107906001600160a01b031681565b6100cb610391565b6100c161018b36600461059c565b61039e565b6101986103dc565b60036101a4828261066e565b5050565b600280546101b5906105e5565b80601f01602080910402602001604051908101604052809291908181526020018280546101e1906105e5565b801561022e5780601f106102035761010080835404028352916020019161022e565b820191906000526020600020905b81548152906001019060200180831161021157829003601f168201915b505050505081565b61023e6103dc565b6001600160a01b0381166102995760405162461bcd60e51b815260206004820152601c60248201527f496e76616c696420736d6172742077616c6c657420616464726573730000000060448201526064015b60405180910390fd5b600180546001600160a01b038381166001600160a01b0319831681179093556040519116919082907ff7b9883f256cf768ad054d3cfc455603983f3e2d2635d9dbe1a7f6f6546ca83a90600090a35050565b600481815481106102fb57600080fd5b6000918252602090912001546001600160a01b0316905081565b61031d6103dc565b6103276000610437565b565b6103316103dc565b6004805460018101825560009182527f8a35acfbc15ff81a39ae7d344fd709f28e8600b4aa8c65c6b64bfe7fe36bd19b0180546001600160a01b0319166001600160a01b03841617905560058054916103898361072e565b919050555050565b600380546101b5906105e5565b6103a66103dc565b6001600160a01b0381166103d057604051631e4fbdf760e01b815260006004820152602401610290565b6103d981610437565b50565b6000546001600160a01b03163314806103ff57506001546001600160a01b031633145b6103275760405162461bcd60e51b81526020600482015260096024820152682737ba1037bbb732b960b91b6044820152606401610290565b600080546001600160a01b038381166001600160a01b0319831681178455604051919092169283917f8be0079c531659141344cd1fd0a4f28419497f9722a3daafe3b4186f6b6457e09190a35050565b634e487b7160e01b600052604160045260246000fd5b6000602082840312156104af57600080fd5b813567ffffffffffffffff808211156104c757600080fd5b818401915084601f8301126104db57600080fd5b8135818111156104ed576104ed610487565b604051601f8201601f19908116603f0116810190838211818310171561051557610515610487565b8160405282815287602084870101111561052e57600080fd5b826020860160208301376000928101602001929092525095945050505050565b600060208083528351808285015260005b8181101561057b5785810183015185820160400152820161055f565b506000604082860101526040601f19601f8301168501019250505092915050565b6000602082840312156105ae57600080fd5b81356001600160a01b03811681146105c557600080fd5b9392505050565b6000602082840312156105de57600080fd5b5035919050565b600181811c908216806105f957607f821691505b60208210810361061957634e487b7160e01b600052602260045260246000fd5b50919050565b601f82111561066957600081815260208120601f850160051c810160208610156106465750805b601f850160051c820191505b8181101561066557828155600101610652565b5050505b505050565b815167ffffffffffffffff81111561068857610688610487565b61069c8161069684546105e5565b8461061f565b602080601f8311600181146106d157600084156106b95750858301515b600019600386901b1c1916600185901b178555610665565b600085815260208120601f198616915b82811015610700578886015182559484019460019091019084016106e1565b508582101561071e5787850151600019600388901b60f8161c191681555b5050505050600190811b01905550565b60006001820161074e57634e487b7160e01b600052601160045260246000fd5b506001019056fea2646970667358221220a479b943eeb3c706dc9c7d672b8428f1a521a2978ebdbfd5320217d6fb3e0e1264736f6c63430008140033","linkReferences":{}},"methodIdentifiers":{"addTicket(address)":"7237a4b6","name()":"06fdde03","owner()":"8da5cb5b","ownerSmartWallet()":"bbedb38e","renounceOwnership()":"715018a6","setSmartWallet(address)":"2687f0f0","setURI(string)":"02fe5305","ticketCounter()":"8c4d59d0","tickets(uint256)":"50b44712","transferOwnership(address)":"f2fde38b","uri()":"eac989f8"},"id":49}