{"abi":[{"type":"constructor","inputs":[{"name":"_owner","type":"address","internalType":"address"},{"name":"_ownerSmartWallet","type":"address","internalType":"address"},{"name":"_name","type":"string","internalType":"string"},{"name":"_uri","type":"string","internalType":"string"},{"name":"_initialBouncers","type":"address[]","internalType":"address[]"}],"stateMutability":"nonpayable"},{"type":"function","name":"addBouncer","inputs":[{"name":"_bouncer","type":"address","internalType":"address"}],"outputs":[],"stateMutability":"nonpayable"},{"type":"function","name":"addTicket","inputs":[{"name":"ticket","type":"address","internalType":"address"}],"outputs":[],"stateMutability":"nonpayable"},{"type":"function","name":"bouncers","inputs":[{"name":"","type":"address","internalType":"address"}],"outputs":[{"name":"","type":"bool","internalType":"bool"}],"stateMutability":"view"},{"type":"function","name":"entries","inputs":[{"name":"","type":"uint256","internalType":"uint256"}],"outputs":[{"name":"wallet","type":"address","internalType":"address"},{"name":"timestamp","type":"uint256","internalType":"uint256"},{"name":"ticketId","type":"uint256","internalType":"uint256"},{"name":"ticketAddress","type":"address","internalType":"address"}],"stateMutability":"view"},{"type":"function","name":"entry","inputs":[{"name":"_ticketId","type":"uint256","internalType":"uint256"},{"name":"_ticketAddress","type":"address","internalType":"address"},{"name":"_attendeeAddress","type":"address","internalType":"address"}],"outputs":[],"stateMutability":"nonpayable"},{"type":"function","name":"finishEvent","inputs":[],"outputs":[],"stateMutability":"nonpayable"},{"type":"function","name":"getEntries","inputs":[],"outputs":[{"name":"","type":"tuple[]","internalType":"struct Event.Entry[]","components":[{"name":"wallet","type":"address","internalType":"address"},{"name":"timestamp","type":"uint256","internalType":"uint256"},{"name":"ticketId","type":"uint256","internalType":"uint256"},{"name":"ticketAddress","type":"address","internalType":"address"}]}],"stateMutability":"view"},{"type":"function","name":"isEventFinished","inputs":[],"outputs":[{"name":"","type":"bool","internalType":"bool"}],"stateMutability":"view"},{"type":"function","name":"isTicketUsed","inputs":[{"name":"_ticketAddress","type":"address","internalType":"address"},{"name":"_ticketId","type":"uint256","internalType":"uint256"}],"outputs":[{"name":"","type":"bool","internalType":"bool"}],"stateMutability":"view"},{"type":"function","name":"name","inputs":[],"outputs":[{"name":"","type":"string","internalType":"string"}],"stateMutability":"view"},{"type":"function","name":"owner","inputs":[],"outputs":[{"name":"","type":"address","internalType":"address"}],"stateMutability":"view"},{"type":"function","name":"ownerSmartWallet","inputs":[],"outputs":[{"name":"","type":"address","internalType":"address"}],"stateMutability":"view"},{"type":"function","name":"removeBouncer","inputs":[{"name":"_bouncer","type":"address","internalType":"address"}],"outputs":[],"stateMutability":"nonpayable"},{"type":"function","name":"renounceOwnership","inputs":[],"outputs":[],"stateMutability":"nonpayable"},{"type":"function","name":"setSmartWallet","inputs":[{"name":"_smartWallet","type":"address","internalType":"address"}],"outputs":[],"stateMutability":"nonpayable"},{"type":"function","name":"setURI","inputs":[{"name":"_uri","type":"string","internalType":"string"}],"outputs":[],"stateMutability":"nonpayable"},{"type":"function","name":"ticketCounter","inputs":[],"outputs":[{"name":"","type":"uint256","internalType":"uint256"}],"stateMutability":"view"},{"type":"function","name":"tickets","inputs":[{"name":"","type":"address","internalType":"address"}],"outputs":[{"name":"","type":"bool","internalType":"bool"}],"stateMutability":"view"},{"type":"function","name":"transferOwnership","inputs":[{"name":"newOwner","type":"address","internalType":"address"}],"outputs":[],"stateMutability":"nonpayable"},{"type":"function","name":"uri","inputs":[],"outputs":[{"name":"","type":"string","internalType":"string"}],"stateMutability":"view"},{"type":"event","name":"BouncerAdded","inputs":[{"name":"bouncer","type":"address","indexed":true,"internalType":"address"}],"anonymous":false},{"type":"event","name":"BouncerRemoved","inputs":[{"name":"bouncer","type":"address","indexed":true,"internalType":"address"}],"anonymous":false},{"type":"event","name":"Entrance","inputs":[{"name":"attendeeAddress","type":"address","indexed":true,"internalType":"address"},{"name":"timestamp","type":"uint256","indexed":false,"internalType":"uint256"},{"name":"ticketId","type":"uint256","indexed":false,"internalType":"uint256"},{"name":"ticketAddress","type":"address","indexed":false,"internalType":"address"}],"anonymous":false},{"type":"event","name":"EventFinished","inputs":[{"name":"timestamp","type":"uint256","indexed":true,"internalType":"uint256"}],"anonymous":false},{"type":"event","name":"OwnershipTransferred","inputs":[{"name":"previousOwner","type":"address","indexed":true,"internalType":"address"},{"name":"newOwner","type":"address","indexed":true,"internalType":"address"}],"anonymous":false},{"type":"event","name":"SmartWalletUpdated","inputs":[{"name":"previousWallet","type":"address","indexed":true,"internalType":"address"},{"name":"newWallet","type":"address","indexed":true,"internalType":"address"}],"anonymous":false},{"type":"event","name":"TicketAdded","inputs":[{"name":"ticketAddress","type":"address","indexed":true,"internalType":"address"}],"anonymous":false},{"type":"error","name":"OwnableInvalidOwner","inputs":[{"name":"owner","type":"address","internalType":"address"}]},{"type":"error","name":"OwnableUnauthorizedAccount","inputs":[{"name":"account","type":"address","internalType":"address"}]}],"bytecode":{"object":"0x60806040523480156200001157600080fd5b50604051620016af380380620016af833981016040819052620000349162000328565b848484826001600160a01b0381166200006857604051631e4fbdf760e01b8152600060048201526024015b60405180910390fd5b6200007381620001e5565b506001600160a01b038216620000cc5760405162461bcd60e51b815260206004820152601660248201527f496e76616c69642077616c6c657420616464726573730000000000000000000060448201526064016200005f565b600180546001600160a01b0319166001600160a01b0384161790556002620000f58282620004e8565b5050505081600390816200010a9190620004e8565b5060005b8151811015620001d957600160086000848481518110620001335762000133620005b4565b60200260200101516001600160a01b03166001600160a01b0316815260200190815260200160002060006101000a81548160ff021916908315150217905550818181518110620001875762000187620005b4565b60200260200101516001600160a01b03167f763f80bc7de8ac5ea6e7fe2bc70b26a95a3663f71925677cc23847c9de3e948a60405160405180910390a280620001d081620005ca565b9150506200010e565b505050505050620005f2565b600080546001600160a01b038381166001600160a01b0319831681178455604051919092169283917f8be0079c531659141344cd1fd0a4f28419497f9722a3daafe3b4186f6b6457e09190a35050565b80516001600160a01b03811681146200024d57600080fd5b919050565b634e487b7160e01b600052604160045260246000fd5b604051601f8201601f191681016001600160401b038111828210171562000293576200029362000252565b604052919050565b600082601f830112620002ad57600080fd5b81516001600160401b03811115620002c957620002c962000252565b6020620002df601f8301601f1916820162000268565b8281528582848701011115620002f457600080fd5b60005b8381101562000314578581018301518282018401528201620002f7565b506000928101909101919091529392505050565b600080600080600060a086880312156200034157600080fd5b6200034c8662000235565b945060206200035d81880162000235565b60408801519095506001600160401b03808211156200037b57600080fd5b620003898a838b016200029b565b95506060890151915080821115620003a057600080fd5b620003ae8a838b016200029b565b94506080890151915080821115620003c557600080fd5b818901915089601f830112620003da57600080fd5b815181811115620003ef57620003ef62000252565b8060051b91506200040284830162000268565b818152918301840191848101908c8411156200041d57600080fd5b938501935b838510156200044657620004368562000235565b8252938501939085019062000422565b8096505050505050509295509295909350565b600181811c908216806200046e57607f821691505b6020821081036200048f57634e487b7160e01b600052602260045260246000fd5b50919050565b601f821115620004e357600081815260208120601f850160051c81016020861015620004be5750805b601f850160051c820191505b81811015620004df57828155600101620004ca565b5050505b505050565b81516001600160401b0381111562000504576200050462000252565b6200051c8162000515845462000459565b8462000495565b602080601f8311600181146200055457600084156200053b5750858301515b600019600386901b1c1916600185901b178555620004df565b600085815260208120601f198616915b82811015620005855788860151825594840194600190910190840162000564565b5085821015620005a45787850151600019600388901b60f8161c191681555b5050505050600190811b01905550565b634e487b7160e01b600052603260045260246000fd5b600060018201620005eb57634e487b7160e01b600052601160045260246000fd5b5060010190565b6110ad80620006026000396000f3fe608060405234801561001057600080fd5b506004361061012c5760003560e01c8063888764c8116100ad578063b30906d411610071578063b30906d4146102ad578063bbedb38e146102ef578063eac989f814610302578063f2fde38b1461030a578063fa333cc21461031d57600080fd5b8063888764c8146102185780638ac9882e1461022b5780638c4d59d0146102385780638da5cb5b1461024f5780639fd3c9131461027457600080fd5b80636a68abe8116100f45780636a68abe81461019f5780636dcbf2a3146101d2578063715018a6146101f55780637237a4b6146101fd5780637e65b5431461021057600080fd5b806302fe53051461013157806306fdde03146101465780631479290e1461016457806317be85c3146101775780632687f0f01461018c575b600080fd5b61014461013f366004610cc2565b610330565b005b61014e610348565b60405161015b9190610d73565b60405180910390f35b610144610172366004610ddd565b6103d6565b61017f610494565b60405161015b9190610dff565b61014461019a366004610ddd565b610523565b6101c26101ad366004610ddd565b60086020526000908152604090205460ff1681565b604051901515815260200161015b565b6101c26101e0366004610ddd565b60046020526000908152604090205460ff1681565b6101446105d3565b61014461020b366004610ddd565b6105e7565b6101446106bc565b610144610226366004610ddd565b6106fe565b6006546101c29060ff1681565b61024160055481565b60405190815260200161015b565b6000546001600160a01b03165b6040516001600160a01b03909116815260200161015b565b6101c2610282366004610e6f565b6001600160a01b03919091166000908152600760209081526040808320938352929052205460ff1690565b6102c06102bb366004610e99565b6107bb565b604080516001600160a01b0395861681526020810194909452830191909152909116606082015260800161015b565b60015461025c906001600160a01b031681565b61014e610801565b610144610318366004610ddd565b61080e565b61014461032b366004610eb2565b61084c565b610338610c01565b60036103448282610f77565b5050565b6002805461035590610eee565b80601f016020809104026020016040519081016040528092919081815260200182805461038190610eee565b80156103ce5780601f106103a3576101008083540402835291602001916103ce565b820191906000526020600020905b8154815290600101906020018083116103b157829003601f168201915b505050505081565b6103de610c01565b6001600160a01b03811660009081526008602052604090205460ff1661044b5760405162461bcd60e51b815260206004820152601860248201527f41646472657373206973206e6f74206120626f756e636572000000000000000060448201526064015b60405180910390fd5b6001600160a01b038116600081815260086020526040808220805460ff19169055517fbf2a9a574965cead59e34922ac68dfe2e6609c7fc94e566c32d45936b9486db49190a250565b60606009805480602002602001604051908101604052809291908181526020016000905b8282101561051a576000848152602090819020604080516080810182526004860290920180546001600160a01b0390811684526001808301548587015260028301549385019390935260039091015416606083015290835290920191016104b8565b50505050905090565b61052b610c01565b6001600160a01b0381166105815760405162461bcd60e51b815260206004820152601c60248201527f496e76616c696420736d6172742077616c6c65742061646472657373000000006044820152606401610442565b600180546001600160a01b038381166001600160a01b0319831681179093556040519116919082907ff7b9883f256cf768ad054d3cfc455603983f3e2d2635d9dbe1a7f6f6546ca83a90600090a35050565b6105db610c01565b6105e56000610c5c565b565b6105ef610c01565b6001600160a01b03811660009081526004602052604090205460ff161561064f5760405162461bcd60e51b8152602060048201526014602482015273151a58dad95d08185b1c9958591e48185919195960621b6044820152606401610442565b6001600160a01b0381166000908152600460205260408120805460ff19166001179055600580549161068083611037565b90915550506040516001600160a01b038216907f7f1b3eb060b0b41758fbfdc75a3fe2e4aac7a9cd80cc11764b8a07fe3872b09790600090a250565b6106c4610c01565b6006805460ff1916600117905560405142907f6d5cb77854df22bf60285fbb42002d3eb3b9808505e6a9c815a43faabd2d721090600090a2565b610706610c01565b6001600160a01b03811660009081526008602052604090205460ff161561076f5760405162461bcd60e51b815260206004820152601c60248201527f4164647265737320697320616c7265616479206120626f756e636572000000006044820152606401610442565b6001600160a01b038116600081815260086020526040808220805460ff19166001179055517f763f80bc7de8ac5ea6e7fe2bc70b26a95a3663f71925677cc23847c9de3e948a9190a250565b600981815481106107cb57600080fd5b600091825260209091206004909102018054600182015460028301546003909301546001600160a01b0392831694509092911684565b6003805461035590610eee565b610816610c01565b6001600160a01b03811661084057604051631e4fbdf760e01b815260006004820152602401610442565b61084981610c5c565b50565b3360009081526008602052604090205460ff166108ab5760405162461bcd60e51b815260206004820152601760248201527f43616c6c6572206973206e6f74206120626f756e6365720000000000000000006044820152606401610442565b60065460ff16156108f35760405162461bcd60e51b8152602060048201526012602482015271115d995b9d081a185cc8199a5b9a5cda195960721b6044820152606401610442565b6001600160a01b038216600090815260076020908152604080832086845290915290205460ff16156109715760405162461bcd60e51b815260206004820152602160248201527f54686973207469636b657420686173206265656e20616c7265616479207573656044820152601960fa1b6064820152608401610442565b6001600160a01b03821660009081526004602052604090205460ff166109d25760405162461bcd60e51b8152602060048201526016602482015275496e76616c6964207469636b6574206164647265737360501b6044820152606401610442565b604051627eeac760e11b81526001600160a01b03828116600483015260248201859052839160009183169062fdd58e90604401602060405180830381865afa158015610a22573d6000803e3d6000fd5b505050506040513d601f19601f82011682018060405250810190610a46919061105e565b11610a9d5760405162461bcd60e51b815260206004820152602160248201527f417474656e64656520646f6573206e6f74206f776e2074686973207469636b656044820152601d60fa1b6064820152608401610442565b604080516080810182526001600160a01b038481168083524260208085018281528587018b81528a86166060808901828152600980546001808201835560009283529b5160049091027f6e1540171b6c0c960b71a7020d9f60077f6af931a8bbf590da0223dacf75c7af81018054928d166001600160a01b031993841617905596517f6e1540171b6c0c960b71a7020d9f60077f6af931a8bbf590da0223dacf75c7b088015594517f6e1540171b6c0c960b71a7020d9f60077f6af931a8bbf590da0223dacf75c7b187015590517f6e1540171b6c0c960b71a7020d9f60077f6af931a8bbf590da0223dacf75c7b29095018054959099169490931693909317909655858152600783528781208c82528352879020805460ff19169096179095558551918252810189905293840191909152917fd709f278cc3a47eb4aa52854b9571fc0aa04503fdace3e7bfbf32b169fe1f02c910160405180910390a250505050565b6000546001600160a01b0316331480610c2457506001546001600160a01b031633145b6105e55760405162461bcd60e51b81526020600482015260096024820152682737ba1037bbb732b960b91b6044820152606401610442565b600080546001600160a01b038381166001600160a01b0319831681178455604051919092169283917f8be0079c531659141344cd1fd0a4f28419497f9722a3daafe3b4186f6b6457e09190a35050565b634e487b7160e01b600052604160045260246000fd5b600060208284031215610cd457600080fd5b813567ffffffffffffffff80821115610cec57600080fd5b818401915084601f830112610d0057600080fd5b813581811115610d1257610d12610cac565b604051601f8201601f19908116603f01168101908382118183101715610d3a57610d3a610cac565b81604052828152876020848701011115610d5357600080fd5b826020860160208301376000928101602001929092525095945050505050565b600060208083528351808285015260005b81811015610da057858101830151858201604001528201610d84565b506000604082860101526040601f19601f8301168501019250505092915050565b80356001600160a01b0381168114610dd857600080fd5b919050565b600060208284031215610def57600080fd5b610df882610dc1565b9392505050565b602080825282518282018190526000919060409081850190868401855b82811015610e6257815180516001600160a01b03908116865287820151888701528682015187870152606091820151169085015260809093019290850190600101610e1c565b5091979650505050505050565b60008060408385031215610e8257600080fd5b610e8b83610dc1565b946020939093013593505050565b600060208284031215610eab57600080fd5b5035919050565b600080600060608486031215610ec757600080fd5b83359250610ed760208501610dc1565b9150610ee560408501610dc1565b90509250925092565b600181811c90821680610f0257607f821691505b602082108103610f2257634e487b7160e01b600052602260045260246000fd5b50919050565b601f821115610f7257600081815260208120601f850160051c81016020861015610f4f5750805b601f850160051c820191505b81811015610f6e57828155600101610f5b565b5050505b505050565b815167ffffffffffffffff811115610f9157610f91610cac565b610fa581610f9f8454610eee565b84610f28565b602080601f831160018114610fda5760008415610fc25750858301515b600019600386901b1c1916600185901b178555610f6e565b600085815260208120601f198616915b8281101561100957888601518255948401946001909101908401610fea565b50858210156110275787850151600019600388901b60f8161c191681555b5050505050600190811b01905550565b60006001820161105757634e487b7160e01b600052601160045260246000fd5b5060010190565b60006020828403121561107057600080fd5b505191905056fea264697066735822122024e752c12841207da3182f5c79978fb7aedd3ab881433751f57095c8a43db7bc64736f6c63430008140033","linkReferences":{}},"methodIdentifiers":{"addBouncer(address)":"888764c8","addTicket(address)":"7237a4b6","bouncers(address)":"6a68abe8","entries(uint256)":"b30906d4","entry(uint256,address,address)":"fa333cc2","finishEvent()":"7e65b543","getEntries()":"17be85c3","isEventFinished()":"8ac9882e","isTicketUsed(address,uint256)":"9fd3c913","name()":"06fdde03","owner()":"8da5cb5b","ownerSmartWallet()":"bbedb38e","removeBouncer(address)":"1479290e","renounceOwnership()":"715018a6","setSmartWallet(address)":"2687f0f0","setURI(string)":"02fe5305","ticketCounter()":"8c4d59d0","tickets(address)":"6dcbf2a3","transferOwnership(address)":"f2fde38b","uri()":"eac989f8"},"id":46}