{"abi":[{"type":"constructor","inputs":[{"name":"config","type":"tuple","internalType":"struct Library.TicketConstructor","components":[{"name":"_owner","type":"address","internalType":"address"},{"name":"_ownerSmartWallet","type":"address","internalType":"address"},{"name":"_eventAddress","type":"address","internalType":"address"},{"name":"_baseURI","type":"string","internalType":"string"},{"name":"_name","type":"string","internalType":"string"},{"name":"_symbol","type":"string","internalType":"string"},{"name":"_erc20Address","type":"address","internalType":"address"},{"name":"_price","type":"uint256","internalType":"uint256"},{"name":"_initialSupply","type":"uint256","internalType":"uint256"},{"name":"_maxSupply","type":"uint256","internalType":"uint256"},{"name":"_transferable","type":"bool","internalType":"bool"},{"name":"_whitelistOnly","type":"bool","internalType":"bool"}]}],"stateMutability":"nonpayable"},{"type":"function","name":"balanceOf","inputs":[{"name":"account","type":"address","internalType":"address"},{"name":"id","type":"uint256","internalType":"uint256"}],"outputs":[{"name":"","type":"uint256","internalType":"uint256"}],"stateMutability":"view"},{"type":"function","name":"balanceOfBatch","inputs":[{"name":"accounts","type":"address[]","internalType":"address[]"},{"name":"ids","type":"uint256[]","internalType":"uint256[]"}],"outputs":[{"name":"","type":"uint256[]","internalType":"uint256[]"}],"stateMutability":"view"},{"type":"function","name":"burn","inputs":[{"name":"account","type":"address","internalType":"address"},{"name":"id","type":"uint256","internalType":"uint256"},{"name":"value","type":"uint256","internalType":"uint256"}],"outputs":[],"stateMutability":"nonpayable"},{"type":"function","name":"burnBatch","inputs":[{"name":"account","type":"address","internalType":"address"},{"name":"ids","type":"uint256[]","internalType":"uint256[]"},{"name":"values","type":"uint256[]","internalType":"uint256[]"}],"outputs":[],"stateMutability":"nonpayable"},{"type":"function","name":"currentSupply","inputs":[],"outputs":[{"name":"","type":"uint256","internalType":"uint256"}],"stateMutability":"view"},{"type":"function","name":"distribute","inputs":[{"name":"_distributions","type":"tuple[]","internalType":"struct Ticket.Distribution[]","components":[{"name":"recipient","type":"address","internalType":"address"},{"name":"amount","type":"uint256","internalType":"uint256"}]}],"outputs":[],"stateMutability":"nonpayable"},{"type":"function","name":"erc20Address","inputs":[],"outputs":[{"name":"","type":"address","internalType":"address"}],"stateMutability":"view"},{"type":"function","name":"erc20Token","inputs":[],"outputs":[{"name":"","type":"address","internalType":"contract IERC20"}],"stateMutability":"view"},{"type":"function","name":"eventAddress","inputs":[],"outputs":[{"name":"","type":"address","internalType":"address"}],"stateMutability":"view"},{"type":"function","name":"exists","inputs":[{"name":"id","type":"uint256","internalType":"uint256"}],"outputs":[{"name":"","type":"bool","internalType":"bool"}],"stateMutability":"view"},{"type":"function","name":"get","inputs":[],"outputs":[],"stateMutability":"nonpayable"},{"type":"function","name":"getTicketHolders","inputs":[{"name":"start","type":"uint256","internalType":"uint256"},{"name":"pageSize","type":"uint256","internalType":"uint256"}],"outputs":[{"name":"","type":"address[]","internalType":"address[]"}],"stateMutability":"view"},{"type":"function","name":"getTokensByUser","inputs":[{"name":"user","type":"address","internalType":"address"}],"outputs":[{"name":"","type":"uint256[]","internalType":"uint256[]"}],"stateMutability":"view"},{"type":"function","name":"initialSupply","inputs":[],"outputs":[{"name":"","type":"uint256","internalType":"uint256"}],"stateMutability":"view"},{"type":"function","name":"isApprovedForAll","inputs":[{"name":"account","type":"address","internalType":"address"},{"name":"operator","type":"address","internalType":"address"}],"outputs":[{"name":"","type":"bool","internalType":"bool"}],"stateMutability":"view"},{"type":"function","name":"isWhitelisted","inputs":[{"name":"","type":"address","internalType":"address"}],"outputs":[{"name":"","type":"bool","internalType":"bool"}],"stateMutability":"view"},{"type":"function","name":"maxSupply","inputs":[],"outputs":[{"name":"","type":"uint256","internalType":"uint256"}],"stateMutability":"view"},{"type":"function","name":"name","inputs":[],"outputs":[{"name":"","type":"string","internalType":"string"}],"stateMutability":"view"},{"type":"function","name":"nextTokenId","inputs":[],"outputs":[{"name":"","type":"uint256","internalType":"uint256"}],"stateMutability":"view"},{"type":"function","name":"owner","inputs":[],"outputs":[{"name":"","type":"address","internalType":"address"}],"stateMutability":"view"},{"type":"function","name":"ownerSmartWallet","inputs":[],"outputs":[{"name":"","type":"address","internalType":"address"}],"stateMutability":"view"},{"type":"function","name":"price","inputs":[],"outputs":[{"name":"","type":"uint256","internalType":"uint256"}],"stateMutability":"view"},{"type":"function","name":"renounceOwnership","inputs":[],"outputs":[],"stateMutability":"nonpayable"},{"type":"function","name":"safeBatchTransferFrom","inputs":[{"name":"from","type":"address","internalType":"address"},{"name":"to","type":"address","internalType":"address"},{"name":"ids","type":"uint256[]","internalType":"uint256[]"},{"name":"values","type":"uint256[]","internalType":"uint256[]"},{"name":"data","type":"bytes","internalType":"bytes"}],"outputs":[],"stateMutability":"nonpayable"},{"type":"function","name":"safeTransferFrom","inputs":[{"name":"from","type":"address","internalType":"address"},{"name":"to","type":"address","internalType":"address"},{"name":"id","type":"uint256","internalType":"uint256"},{"name":"value","type":"uint256","internalType":"uint256"},{"name":"data","type":"bytes","internalType":"bytes"}],"outputs":[],"stateMutability":"nonpayable"},{"type":"function","name":"setApprovalForAll","inputs":[{"name":"operator","type":"address","internalType":"address"},{"name":"approved","type":"bool","internalType":"bool"}],"outputs":[],"stateMutability":"nonpayable"},{"type":"function","name":"setSmartWallet","inputs":[{"name":"_smartWallet","type":"address","internalType":"address"}],"outputs":[],"stateMutability":"nonpayable"},{"type":"function","name":"setTransferable","inputs":[{"name":"_transferable","type":"bool","internalType":"bool"}],"outputs":[],"stateMutability":"nonpayable"},{"type":"function","name":"setURI","inputs":[{"name":"newuri","type":"string","internalType":"string"}],"outputs":[],"stateMutability":"nonpayable"},{"type":"function","name":"supportsInterface","inputs":[{"name":"interfaceId","type":"bytes4","internalType":"bytes4"}],"outputs":[{"name":"","type":"bool","internalType":"bool"}],"stateMutability":"view"},{"type":"function","name":"symbol","inputs":[],"outputs":[{"name":"","type":"string","internalType":"string"}],"stateMutability":"view"},{"type":"function","name":"tokenURI","inputs":[{"name":"_tokenId","type":"uint256","internalType":"uint256"}],"outputs":[{"name":"","type":"string","internalType":"string"}],"stateMutability":"view"},{"type":"function","name":"totalSupply","inputs":[],"outputs":[{"name":"","type":"uint256","internalType":"uint256"}],"stateMutability":"view"},{"type":"function","name":"totalSupply","inputs":[{"name":"id","type":"uint256","internalType":"uint256"}],"outputs":[{"name":"","type":"uint256","internalType":"uint256"}],"stateMutability":"view"},{"type":"function","name":"transferOwnership","inputs":[{"name":"newOwner","type":"address","internalType":"address"}],"outputs":[],"stateMutability":"nonpayable"},{"type":"function","name":"transferable","inputs":[],"outputs":[{"name":"","type":"bool","internalType":"bool"}],"stateMutability":"view"},{"type":"function","name":"updateSupply","inputs":[{"name":"_additionalSupply","type":"uint256","internalType":"uint256"}],"outputs":[],"stateMutability":"nonpayable"},{"type":"function","name":"updateWhitelist","inputs":[{"name":"_whitelistUpdates","type":"tuple[]","internalType":"struct Ticket.Whitelist[]","components":[{"name":"user","type":"address","internalType":"address"},{"name":"status","type":"bool","internalType":"bool"}]}],"outputs":[],"stateMutability":"nonpayable"},{"type":"function","name":"uri","inputs":[{"name":"","type":"uint256","internalType":"uint256"}],"outputs":[{"name":"","type":"string","internalType":"string"}],"stateMutability":"view"},{"type":"function","name":"userHasToken","inputs":[{"name":"user","type":"address","internalType":"address"},{"name":"tokenId","type":"uint256","internalType":"uint256"}],"outputs":[{"name":"","type":"bool","internalType":"bool"}],"stateMutability":"view"},{"type":"function","name":"whitelistOnly","inputs":[],"outputs":[{"name":"","type":"bool","internalType":"bool"}],"stateMutability":"view"},{"type":"event","name":"ApprovalForAll","inputs":[{"name":"account","type":"address","indexed":true,"internalType":"address"},{"name":"operator","type":"address","indexed":true,"internalType":"address"},{"name":"approved","type":"bool","indexed":false,"internalType":"bool"}],"anonymous":false},{"type":"event","name":"OwnershipTransferred","inputs":[{"name":"previousOwner","type":"address","indexed":true,"internalType":"address"},{"name":"newOwner","type":"address","indexed":true,"internalType":"address"}],"anonymous":false},{"type":"event","name":"SmartWalletUpdated","inputs":[{"name":"previousWallet","type":"address","indexed":true,"internalType":"address"},{"name":"newWallet","type":"address","indexed":true,"internalType":"address"}],"anonymous":false},{"type":"event","name":"SupplyUpdated","inputs":[{"name":"newSupply","type":"uint256","indexed":false,"internalType":"uint256"}],"anonymous":false},{"type":"event","name":"TransferBatch","inputs":[{"name":"operator","type":"address","indexed":true,"internalType":"address"},{"name":"from","type":"address","indexed":true,"internalType":"address"},{"name":"to","type":"address","indexed":true,"internalType":"address"},{"name":"ids","type":"uint256[]","indexed":false,"internalType":"uint256[]"},{"name":"values","type":"uint256[]","indexed":false,"internalType":"uint256[]"}],"anonymous":false},{"type":"event","name":"TransferSingle","inputs":[{"name":"operator","type":"address","indexed":true,"internalType":"address"},{"name":"from","type":"address","indexed":true,"internalType":"address"},{"name":"to","type":"address","indexed":true,"internalType":"address"},{"name":"id","type":"uint256","indexed":false,"internalType":"uint256"},{"name":"value","type":"uint256","indexed":false,"internalType":"uint256"}],"anonymous":false},{"type":"event","name":"URI","inputs":[{"name":"value","type":"string","indexed":false,"internalType":"string"},{"name":"id","type":"uint256","indexed":true,"internalType":"uint256"}],"anonymous":false},{"type":"error","name":"ERC1155InsufficientBalance","inputs":[{"name":"sender","type":"address","internalType":"address"},{"name":"balance","type":"uint256","internalType":"uint256"},{"name":"needed","type":"uint256","internalType":"uint256"},{"name":"tokenId","type":"uint256","internalType":"uint256"}]},{"type":"error","name":"ERC1155InvalidApprover","inputs":[{"name":"approver","type":"address","internalType":"address"}]},{"type":"error","name":"ERC1155InvalidArrayLength","inputs":[{"name":"idsLength","type":"uint256","internalType":"uint256"},{"name":"valuesLength","type":"uint256","internalType":"uint256"}]},{"type":"error","name":"ERC1155InvalidOperator","inputs":[{"name":"operator","type":"address","internalType":"address"}]},{"type":"error","name":"ERC1155InvalidReceiver","inputs":[{"name":"receiver","type":"address","internalType":"address"}]},{"type":"error","name":"ERC1155InvalidSender","inputs":[{"name":"sender","type":"address","internalType":"address"}]},{"type":"error","name":"ERC1155MissingApprovalForAll","inputs":[{"name":"operator","type":"address","internalType":"address"},{"name":"owner","type":"address","internalType":"address"}]},{"type":"error","name":"OwnableInvalidOwner","inputs":[{"name":"owner","type":"address","internalType":"address"}]},{"type":"error","name":"OwnableUnauthorizedAccount","inputs":[{"name":"account","type":"address","internalType":"address"}]}],"bytecode":{"object":"0x6080604052600160105560006011553480156200001b57600080fd5b50604051620034da380380620034da8339810160408190526200003e9162000404565b6060810151815160208301516080840151826001600160a01b0381166200008057604051631e4fbdf760e01b8152600060048201526024015b60405180910390fd5b6200008b8162000272565b506001600160a01b038216620000e45760405162461bcd60e51b815260206004820152601660248201527f496e76616c69642077616c6c6574206164647265737300000000000000000000604482015260640162000077565b600180546001600160a01b0319166001600160a01b03841617905560026200010d8282620005f0565b505050506200012281620002c260201b60201c565b508061012001518161010001511115620001895760405162461bcd60e51b815260206004820152602160248201527f496e697469616c20737570706c792065786365656473206d617820737570706c6044820152607960f81b606482015260840162000077565b6020810151600180546001600160a01b0319166001600160a01b039092169190911790556080810151600290620001c19082620005f0565b5060a0810151600b90620001d69082620005f0565b506040810151600880546001600160a01b03199081166001600160a01b039384161790915560c083015160098054831691909316908117909255600a8054909116909117905560e081015160115561010080820151600c819055610120830151600d55600e55610140820151600f80546101609094015161ffff1990941691151561ff00191691909117921515909102919091179055620006bc565b600080546001600160a01b038381166001600160a01b0319831681178455604051919092169283917f8be0079c531659141344cd1fd0a4f28419497f9722a3daafe3b4186f6b6457e09190a35050565b6005620002d08282620005f0565b5050565b634e487b7160e01b600052604160045260246000fd5b60405161018081016001600160401b0381118282101715620003105762000310620002d4565b60405290565b604051601f8201601f191681016001600160401b0381118282101715620003415762000341620002d4565b604052919050565b80516001600160a01b03811681146200036157600080fd5b919050565b600082601f8301126200037857600080fd5b81516001600160401b03811115620003945762000394620002d4565b6020620003aa601f8301601f1916820162000316565b8281528582848701011115620003bf57600080fd5b60005b83811015620003df578581018301518282018401528201620003c2565b506000928101909101919091529392505050565b805180151581146200036157600080fd5b6000602082840312156200041757600080fd5b81516001600160401b03808211156200042f57600080fd5b9083019061018082860312156200044557600080fd5b6200044f620002ea565b6200045a8362000349565b81526200046a6020840162000349565b60208201526200047d6040840162000349565b60408201526060830151828111156200049557600080fd5b620004a38782860162000366565b606083015250608083015182811115620004bc57600080fd5b620004ca8782860162000366565b60808301525060a083015182811115620004e357600080fd5b620004f18782860162000366565b60a0830152506200050560c0840162000349565b60c082015260e083810151908201526101008084015190820152610120808401519082015261014091506200053c828401620003f3565b82820152610160915062000552828401620003f3565b91810191909152949350505050565b600181811c908216806200057657607f821691505b6020821081036200059757634e487b7160e01b600052602260045260246000fd5b50919050565b601f821115620005eb57600081815260208120601f850160051c81016020861015620005c65750805b601f850160051c820191505b81811015620005e757828155600101620005d2565b5050505b505050565b81516001600160401b038111156200060c576200060c620002d4565b62000624816200061d845462000561565b846200059d565b602080601f8311600181146200065c5760008415620006435750858301515b600019600386901b1c1916600185901b178555620005e7565b600085815260208120601f198616915b828110156200068d578886015182559484019460019091019084016200066c565b5085821015620006ac5787850151600019600388901b60f8161c191681555b5050505050600190811b01905550565b612e0e80620006cc6000396000f3fe608060405234801561001057600080fd5b50600436106102525760003560e01c80636d4ce63c11610146578063a035b1fe116100c3578063d5abeb0111610087578063d5abeb0114610518578063e985e9c514610521578063f242432a14610534578063f2fde38b14610547578063f5298aca1461055a578063fad567791461056d57600080fd5b8063a035b1fe146104b6578063a22cb465146104bf578063bbedb38e146104d2578063bd85b039146104e5578063c87b56dd1461050557600080fd5b80638a13eea71161010a5780638a13eea71461046a5780638da5cb5b1461047d57806392ff0d311461048e57806395d89b411461049b5780639cd23707146104a357600080fd5b80636d4ce63c14610435578063715018a61461043d57806375794a3c14610445578063771282f61461044e578063803700751461045757600080fd5b8063276184ae116101d45780634e1273f4116101985780634e1273f4146103ba5780634f558e79146103da57806354f2a4d3146103fc5780636b20c4541461040f5780636bd080491461042257600080fd5b8063276184ae1461033e5780632eb2c2d614610369578063378dc3dc1461037c5780633af32abf146103855780634b4687b5146103a857600080fd5b80630e89341c1161021b5780630e89341c146102dd57806318160ddd146102f05780631c378573146102f857806320ced1051461030b5780632687f0f01461032b57600080fd5b8062fdd58e1461025757806301ffc9a71461027d57806302fe5305146102a057806306fdde03146102b55780630ab464f0146102ca575b600080fd5b61026a610265366004612299565b610580565b6040519081526020015b60405180910390f35b61029061028b3660046122d9565b6105aa565b6040519015158152602001610274565b6102b36102ae3660046123bb565b6105fa565b005b6102bd61060e565b604051610274919061245b565b6102906102d8366004612299565b61069c565b6102bd6102eb36600461246e565b6106c5565b60075461026a565b6102b36103063660046124aa565b610759565b61031e61031936600461256b565b61093b565b604051610274919061258d565b6102b36103393660046125da565b610a17565b600954610351906001600160a01b031681565b6040516001600160a01b039091168152602001610274565b6102b361037736600461267b565b610ac7565b61026a600c5481565b6102906103933660046125da565b60156020526000908152604090205460ff1681565b600f5461029090610100900460ff1681565b6103cd6103c8366004612724565b610b2e565b604051610274919061281e565b6102906103e836600461246e565b600090815260066020526040902054151590565b6102b361040a36600461283f565b610c02565b6102b361041d3660046128fa565b610c7a565b6102b361043036600461246e565b610cde565b6102b3610d89565b6102b3611030565b61026a60105481565b61026a600e5481565b6103cd6104653660046125da565b611044565b600a54610351906001600160a01b031681565b6000546001600160a01b0316610351565b600f546102909060ff1681565b6102bd611068565b6102b36104b136600461296d565b611075565b61026a60115481565b6102b36104cd36600461298a565b611090565b600154610351906001600160a01b031681565b61026a6104f336600461246e565b60009081526006602052604090205490565b6102bd61051336600461246e565b61109b565b61026a600d5481565b61029061052f3660046129c1565b6110d6565b6102b36105423660046129f4565b611104565b6102b36105553660046125da565b611163565b6102b3610568366004612a58565b61119e565b600854610351906001600160a01b031681565b60008181526003602090815260408083206001600160a01b03861684529091529020545b92915050565b60006001600160e01b03198216636cdb3d1360e11b14806105db57506001600160e01b031982166303a24d0760e21b145b806105a457506301ffc9a760e01b6001600160e01b03198316146105a4565b6106026111d4565b61060b8161122f565b50565b6002805461061b90612a8b565b80601f016020809104026020016040519081016040528092919081815260200182805461064790612a8b565b80156106945780601f1061066957610100808354040283529160200191610694565b820191906000526020600020905b81548152906001019060200180831161067757829003601f168201915b505050505081565b6001600160a01b03821660009081526012602052604081206106be908361123b565b9392505050565b6060600580546106d490612a8b565b80601f016020809104026020016040519081016040528092919081815260200182805461070090612a8b565b801561074d5780601f106107225761010080835404028352916020019161074d565b820191906000526020600020905b81548152906001019060200180831161073057829003601f168201915b50505050509050919050565b6107616111d4565b6000805b825181101561083057600083828151811061078257610782612ac5565b60200260200101519050600f60019054906101000a900460ff161561080b5780516001600160a01b031660009081526015602052604090205460ff1661080b5760405162461bcd60e51b8152602060048201526019602482015278149958da5c1a595b9d081b9bdd081dda1a5d195b1a5cdd1959603a1b60448201526064015b60405180910390fd5b602081015161081a9084612af1565b925050808061082890612b04565b915050610765565b5080600e54101561087c5760405162461bcd60e51b8152602060048201526016602482015275457863656564732063757272656e7420737570706c7960501b6044820152606401610802565b600d5481600e5461088d9190612af1565b11156108d05760405162461bcd60e51b815260206004820152601260248201527145786365656473206d617820737570706c7960701b6044820152606401610802565b60005b825181101561091f5760008382815181106108f0576108f0612ac5565b6020026020010151905061090c81600001518260200151611253565b508061091781612b04565b9150506108d3565b5080600e60008282546109329190612b1d565b90915550505050565b6060600061094960136112f3565b905060006109578486612af1565b9050818111156109645750805b60006109708683612b1d565b6001600160401b03811115610987576109876122f6565b6040519080825280602002602001820160405280156109b0578160200160208202803683370190505b509050855b82811015610a0d576109c86013826112fd565b826109d38984612b1d565b815181106109e3576109e3612ac5565b6001600160a01b039092166020928302919091019091015280610a0581612b04565b9150506109b5565b5095945050505050565b610a1f6111d4565b6001600160a01b038116610a755760405162461bcd60e51b815260206004820152601c60248201527f496e76616c696420736d6172742077616c6c65742061646472657373000000006044820152606401610802565b600180546001600160a01b038381166001600160a01b0319831681179093556040519116919082907ff7b9883f256cf768ad054d3cfc455603983f3e2d2635d9dbe1a7f6f6546ca83a90600090a35050565b336001600160a01b0386168114801590610ae85750610ae686826110d6565b155b15610b195760405163711bec9160e11b81526001600160a01b03808316600483015287166024820152604401610802565b610b268686868686611309565b505050505050565b60608151835114610b5f5781518351604051635b05999160e01b815260048101929092526024820152604401610802565b600083516001600160401b03811115610b7a57610b7a6122f6565b604051908082528060200260200182016040528015610ba3578160200160208202803683370190505b50905060005b8451811015610bfa57602080820286010151610bcd90602080840287010151610580565b828281518110610bdf57610bdf612ac5565b6020908102919091010152610bf381612b04565b9050610ba9565b509392505050565b610c0a6111d4565b60005b8151811015610c76576000828281518110610c2a57610c2a612ac5565b6020908102919091018101518082015190516001600160a01b0316600090815260159092526040909120805460ff19169115159190911790555080610c6e81612b04565b915050610c0d565b5050565b6001600160a01b0383163314801590610c9a5750610c9883336110d6565b155b15610cce57335b60405163711bec9160e11b81526001600160a01b0391821660048201529084166024820152604401610802565b610cd9838383611370565b505050565b610ce66111d4565b600d5481600e54610cf79190612af1565b1115610d3a5760405162461bcd60e51b815260206004820152601260248201527145786365656473206d617820737570706c7960701b6044820152606401610802565b600081600e54610d4a9190612af1565b600e8190556040518181529091507fea4bfee7f9fb38136c61cc04b6e56efc93eaf1beef326dbc47495b358385914c9060200160405180910390a15050565b6011543390600003610db857610db3816010546001604051806020016040528060008152506113b6565b611018565b600a546040516370a0823160e01b81526001600160a01b03838116600483015260009216906370a0823190602401602060405180830381865afa158015610e03573d6000803e3d6000fd5b505050506040513d601f19601f82011682018060405250810190610e279190612b30565b9050601154811015610e725760405162461bcd60e51b8152602060048201526014602482015273496e73756666696369656e742062616c616e636560601b6044820152606401610802565b600a54604051636eb1769f60e11b81526001600160a01b038481166004830152306024830152600092169063dd62ed3e90604401602060405180830381865afa158015610ec3573d6000803e3d6000fd5b505050506040513d601f19601f82011682018060405250810190610ee79190612b30565b9050601154811015610f345760405162461bcd60e51b8152602060048201526016602482015275496e73756666696369656e7420616c6c6f77616e636560501b6044820152606401610802565b600a546001546011546040516323b872dd60e01b81526001600160a01b038781166004830152928316602482015260448101919091529116906323b872dd906064016020604051808303816000875af1158015610f95573d6000803e3d6000fd5b505050506040513d601f19601f82011682018060405250810190610fb99190612b49565b610ff75760405162461bcd60e51b815260206004820152600f60248201526e151c985b9cd9995c8819985a5b1959608a1b6044820152606401610802565b611015836010546001604051806020016040528060008152506113b6565b50505b6010805490600061102883612b04565b919050555050565b6110386111d4565b6110426000611413565b565b6001600160a01b03811660009081526012602052604090206060906105a490611463565b600b805461061b90612a8b565b61107d6111d4565b600f805460ff1916911515919091179055565b610c76338383611470565b60606110a6826106c5565b6110af83611506565b6040516020016110c0929190612b66565b6040516020818303038152906040529050919050565b6001600160a01b03918216600090815260046020908152604080832093909416825291909152205460ff1690565b336001600160a01b0386168114801590611125575061112386826110d6565b155b156111565760405163711bec9160e11b81526001600160a01b03808316600483015287166024820152604401610802565b610b268686868686611598565b61116b6111d4565b6001600160a01b03811661119557604051631e4fbdf760e01b815260006004820152602401610802565b61060b81611413565b6001600160a01b03831633148015906111be57506111bc83336110d6565b155b156111c95733610ca1565b610cd9838383611626565b6000546001600160a01b03163314806111f757506001546001600160a01b031633145b6110425760405162461bcd60e51b81526020600482015260096024820152682737ba1037bbb732b960b91b6044820152606401610802565b6005610c768282612bdb565b600081815260018301602052604081205415156106be565b60005b81811015610cd95761127c836010546001604051806020016040528060008152506113b6565b6112cb6040518060400160405280600f81526020016e135a5b9d1959081d1bdad95b881251608a1b81525060105460405180604001604052806002815260200161746f60f01b8152508661168e565b601080549060006112db83612b04565b919050555080806112eb90612b04565b915050611256565b60006105a4825490565b60006106be83836116dd565b6001600160a01b03841661133357604051632bfa23e760e11b815260006004820152602401610802565b6001600160a01b03851661135c57604051626a0d4560e21b815260006004820152602401610802565b6113698585858585611707565b5050505050565b6001600160a01b03831661139957604051626a0d4560e21b815260006004820152602401610802565b610cd9836000848460405180602001604052806000815250611707565b6001600160a01b0384166113e057604051632bfa23e760e11b815260006004820152602401610802565b60408051600180825260208201869052818301908152606082018590526080820190925290610b26600087848487611707565b600080546001600160a01b038381166001600160a01b0319831681178455604051919092169283917f8be0079c531659141344cd1fd0a4f28419497f9722a3daafe3b4186f6b6457e09190a35050565b606060006106be8361175a565b6001600160a01b0382166114995760405162ced3e160e81b815260006004820152602401610802565b6001600160a01b03838116600081815260046020908152604080832094871680845294825291829020805460ff191686151590811790915591519182527f17307eab39ab6107e8899845ad3d59bd9653f200f220920489ca2b5937696c31910160405180910390a3505050565b60606000611513836117b5565b60010190506000816001600160401b03811115611532576115326122f6565b6040519080825280601f01601f19166020018201604052801561155c576020820181803683370190505b5090508181016020015b600019016f181899199a1a9b1b9c1cb0b131b232b360811b600a86061a8153600a850494508461156657509392505050565b6001600160a01b0384166115c257604051632bfa23e760e11b815260006004820152602401610802565b6001600160a01b0385166115eb57604051626a0d4560e21b815260006004820152602401610802565b6040805160018082526020820186905281830190815260608201859052608082019092529061161d8787848487611707565b50505050505050565b6001600160a01b03831661164f57604051626a0d4560e21b815260006004820152602401610802565b604080516001808252602082018590528183019081526060820184905260a0820190925260006080820181815291929161136991879185908590611707565b6116d7848484846040516024016116a89493929190612c9a565b60408051601f198184030181529190526020810180516001600160e01b0316631f118ca960e21b17905261188d565b50505050565b60008260000182815481106116f4576116f4612ac5565b9060005260206000200154905092915050565b61171385858585611896565b6001600160a01b03841615611369578251339060010361174c5760208481015190840151611745838989858589611b4e565b5050610b26565b610b26818787878787611c72565b60608160000180548060200260200160405190810160405280929190818152602001828054801561074d57602002820191906000526020600020905b8154815260200190600101908083116117965750505050509050919050565b60008072184f03e93ff9f4daa797ed6e38ed64bf6a1f0160401b83106117f45772184f03e93ff9f4daa797ed6e38ed64bf6a1f0160401b830492506040015b6d04ee2d6d415b85acef81000000008310611820576d04ee2d6d415b85acef8100000000830492506020015b662386f26fc10000831061183e57662386f26fc10000830492506010015b6305f5e1008310611856576305f5e100830492506008015b612710831061186a57612710830492506004015b6064831061187c576064830492506002015b600a83106105a45760010192915050565b61060b81611d5b565b6118a284848484611d7c565b60005b8251811015611a0e5760008282815181106118c2576118c2612ac5565b602002602001015111156119fc576001600160a01b0385161561198f57611902858483815181106118f5576118f5612ac5565b6020026020010151610580565b60000361198f5761195983828151811061191e5761191e612ac5565b602002602001015160126000886001600160a01b03166001600160a01b03168152602001908152602001600020611ed690919063ffffffff16565b506001600160a01b038516600090815260126020526040902061197b906112f3565b60000361198f5761198d601386611ee2565b505b6001600160a01b038416156119fc576119ee8382815181106119b3576119b3612ac5565b602002602001015160126000876001600160a01b03166001600160a01b03168152602001908152602001600020611ef790919063ffffffff16565b506119fa601385611f03565b505b80611a0681612b04565b9150506118a5565b506001600160a01b0384161580611a2c57506001600160a01b038316155b6116d757600f5460ff16611a825760405162461bcd60e51b815260206004820152601960248201527f5472616e736665727320617265206e6f7420616c6c6f776564000000000000006044820152606401610802565b600f54610100900460ff16156116d7573360009081526015602052604090205460ff16611aea5760405162461bcd60e51b815260206004820152601660248201527514d95b99195c881b9bdd081dda1a5d195b1a5cdd195960521b6044820152606401610802565b6001600160a01b03831660009081526015602052604090205460ff166116d75760405162461bcd60e51b8152602060048201526019602482015278149958da5c1a595b9d081b9bdd081dda1a5d195b1a5cdd1959603a1b6044820152606401610802565b6001600160a01b0384163b15610b265760405163f23a6e6160e01b81526001600160a01b0385169063f23a6e6190611b929089908990889088908890600401612cdf565b6020604051808303816000875af1925050508015611bcd575060408051601f3d908101601f19168201909252611bca91810190612d19565b60015b611c36573d808015611bfb576040519150601f19603f3d011682016040523d82523d6000602084013e611c00565b606091505b508051600003611c2e57604051632bfa23e760e11b81526001600160a01b0386166004820152602401610802565b805181602001fd5b6001600160e01b0319811663f23a6e6160e01b1461161d57604051632bfa23e760e11b81526001600160a01b0386166004820152602401610802565b6001600160a01b0384163b15610b265760405163bc197c8160e01b81526001600160a01b0385169063bc197c8190611cb69089908990889088908890600401612d36565b6020604051808303816000875af1925050508015611cf1575060408051601f3d908101601f19168201909252611cee91810190612d19565b60015b611d1f573d808015611bfb576040519150601f19603f3d011682016040523d82523d6000602084013e611c00565b6001600160e01b0319811663bc197c8160e01b1461161d57604051632bfa23e760e11b81526001600160a01b0386166004820152602401610802565b60006a636f6e736f6c652e6c6f679050600080835160208501845afa505050565b611d8884848484611f18565b6001600160a01b038416611e3b576000805b8351811015611e21576000838281518110611db757611db7612ac5565b602002602001015190508060066000878581518110611dd857611dd8612ac5565b602002602001015181526020019081526020016000206000828254611dfd9190612af1565b90915550611e0d90508184612af1565b92505080611e1a90612b04565b9050611d9a565b508060076000828254611e349190612af1565b9091555050505b6001600160a01b0383166116d7576000805b8351811015611ec5576000838281518110611e6a57611e6a612ac5565b602002602001015190508060066000878581518110611e8b57611e8b612ac5565b602002602001015181526020019081526020016000206000828254039250508190555080830192505080611ebe90612b04565b9050611e4d565b506007805491909103905550505050565b60006106be838361213b565b60006106be836001600160a01b03841661213b565b60006106be838361222e565b60006106be836001600160a01b03841661222e565b8051825114611f475781518151604051635b05999160e01b815260048101929092526024820152604401610802565b3360005b835181101561205c576020818102858101820151908501909101516001600160a01b038816156120025760008281526003602090815260408083206001600160a01b038c16845290915290205481811015611fd9576040516303dee4c560e01b81526001600160a01b038a166004820152602481018290526044810183905260648101849052608401610802565b60008381526003602090815260408083206001600160a01b038d16845290915290209082900390555b6001600160a01b038716156120495760008281526003602090815260408083206001600160a01b038b16845290915281208054839290612043908490612af1565b90915550505b50508061205590612b04565b9050611f4b565b5082516001036120dd5760208301516000906020840151909150856001600160a01b0316876001600160a01b0316846001600160a01b03167fc3d58168c5ae7397731d063d5bbf3d657854427343f4c083240f7aacaa2d0f6285856040516120ce929190918252602082015260400190565b60405180910390a45050611369565b836001600160a01b0316856001600160a01b0316826001600160a01b03167f4a39dc06d4c0dbc64b70af90fd698a233a518aa5d07e595d983b8c0526c8f7fb868660405161212c929190612d94565b60405180910390a45050505050565b6000818152600183016020526040812054801561222457600061215f600183612b1d565b855490915060009061217390600190612b1d565b90508082146121d857600086600001828154811061219357612193612ac5565b90600052602060002001549050808760000184815481106121b6576121b6612ac5565b6000918252602080832090910192909255918252600188019052604090208390555b85548690806121e9576121e9612dc2565b6001900381819060005260206000200160009055905585600101600086815260200190815260200160002060009055600193505050506105a4565b60009150506105a4565b6000818152600183016020526040812054612275575081546001818101845560008481526020808220909301849055845484825282860190935260409020919091556105a4565b5060006105a4565b80356001600160a01b038116811461229457600080fd5b919050565b600080604083850312156122ac57600080fd5b6122b58361227d565b946020939093013593505050565b6001600160e01b03198116811461060b57600080fd5b6000602082840312156122eb57600080fd5b81356106be816122c3565b634e487b7160e01b600052604160045260246000fd5b604080519081016001600160401b038111828210171561232e5761232e6122f6565b60405290565b604051601f8201601f191681016001600160401b038111828210171561235c5761235c6122f6565b604052919050565b60006001600160401b0383111561237d5761237d6122f6565b612390601f8401601f1916602001612334565b90508281528383830111156123a457600080fd5b828260208301376000602084830101529392505050565b6000602082840312156123cd57600080fd5b81356001600160401b038111156123e357600080fd5b8201601f810184136123f457600080fd5b61240384823560208401612364565b949350505050565b60005b8381101561242657818101518382015260200161240e565b50506000910152565b6000815180845261244781602086016020860161240b565b601f01601f19169290920160200192915050565b6020815260006106be602083018461242f565b60006020828403121561248057600080fd5b5035919050565b60006001600160401b038211156124a0576124a06122f6565b5060051b60200190565b600060208083850312156124bd57600080fd5b82356001600160401b038111156124d357600080fd5b8301601f810185136124e457600080fd5b80356124f76124f282612487565b612334565b81815260069190911b8201830190838101908783111561251657600080fd5b928401925b8284101561256057604084890312156125345760008081fd5b61253c61230c565b6125458561227d565b8152848601358682015282526040909301929084019061251b565b979650505050505050565b6000806040838503121561257e57600080fd5b50508035926020909101359150565b6020808252825182820181905260009190848201906040850190845b818110156125ce5783516001600160a01b0316835292840192918401916001016125a9565b50909695505050505050565b6000602082840312156125ec57600080fd5b6106be8261227d565b600082601f83011261260657600080fd5b813560206126166124f283612487565b82815260059290921b8401810191818101908684111561263557600080fd5b8286015b848110156126505780358352918301918301612639565b509695505050505050565b600082601f83011261266c57600080fd5b6106be83833560208501612364565b600080600080600060a0868803121561269357600080fd5b61269c8661227d565b94506126aa6020870161227d565b935060408601356001600160401b03808211156126c657600080fd5b6126d289838a016125f5565b945060608801359150808211156126e857600080fd5b6126f489838a016125f5565b9350608088013591508082111561270a57600080fd5b506127178882890161265b565b9150509295509295909350565b6000806040838503121561273757600080fd5b82356001600160401b038082111561274e57600080fd5b818501915085601f83011261276257600080fd5b813560206127726124f283612487565b82815260059290921b8401810191818101908984111561279157600080fd5b948201945b838610156127b6576127a78661227d565b82529482019490820190612796565b965050860135925050808211156127cc57600080fd5b506127d9858286016125f5565b9150509250929050565b600081518084526020808501945080840160005b83811015612813578151875295820195908201906001016127f7565b509495945050505050565b6020815260006106be60208301846127e3565b801515811461060b57600080fd5b6000602080838503121561285257600080fd5b82356001600160401b0381111561286857600080fd5b8301601f8101851361287957600080fd5b80356128876124f282612487565b81815260069190911b820183019083810190878311156128a657600080fd5b928401925b8284101561256057604084890312156128c45760008081fd5b6128cc61230c565b6128d58561227d565b8152858501356128e481612831565b81870152825260409390930192908401906128ab565b60008060006060848603121561290f57600080fd5b6129188461227d565b925060208401356001600160401b038082111561293457600080fd5b612940878388016125f5565b9350604086013591508082111561295657600080fd5b50612963868287016125f5565b9150509250925092565b60006020828403121561297f57600080fd5b81356106be81612831565b6000806040838503121561299d57600080fd5b6129a68361227d565b915060208301356129b681612831565b809150509250929050565b600080604083850312156129d457600080fd5b6129dd8361227d565b91506129eb6020840161227d565b90509250929050565b600080600080600060a08688031215612a0c57600080fd5b612a158661227d565b9450612a236020870161227d565b9350604086013592506060860135915060808601356001600160401b03811115612a4c57600080fd5b6127178882890161265b565b600080600060608486031215612a6d57600080fd5b612a768461227d565b95602085013595506040909401359392505050565b600181811c90821680612a9f57607f821691505b602082108103612abf57634e487b7160e01b600052602260045260246000fd5b50919050565b634e487b7160e01b600052603260045260246000fd5b634e487b7160e01b600052601160045260246000fd5b808201808211156105a4576105a4612adb565b600060018201612b1657612b16612adb565b5060010190565b818103818111156105a4576105a4612adb565b600060208284031215612b4257600080fd5b5051919050565b600060208284031215612b5b57600080fd5b81516106be81612831565b60008351612b7881846020880161240b565b835190830190612b8c81836020880161240b565b01949350505050565b601f821115610cd957600081815260208120601f850160051c81016020861015612bbc5750805b601f850160051c820191505b81811015610b2657828155600101612bc8565b81516001600160401b03811115612bf457612bf46122f6565b612c0881612c028454612a8b565b84612b95565b602080601f831160018114612c3d5760008415612c255750858301515b600019600386901b1c1916600185901b178555610b26565b600085815260208120601f198616915b82811015612c6c57888601518255948401946001909101908401612c4d565b5085821015612c8a5787850151600019600388901b60f8161c191681555b5050505050600190811b01905550565b608081526000612cad608083018761242f565b8560208401528281036040840152612cc5818661242f565b91505060018060a01b038316606083015295945050505050565b6001600160a01b03868116825285166020820152604081018490526060810183905260a0608082018190526000906125609083018461242f565b600060208284031215612d2b57600080fd5b81516106be816122c3565b6001600160a01b0386811682528516602082015260a060408201819052600090612d62908301866127e3565b8281036060840152612d7481866127e3565b90508281036080840152612d88818561242f565b98975050505050505050565b604081526000612da760408301856127e3565b8281036020840152612db981856127e3565b95945050505050565b634e487b7160e01b600052603160045260246000fdfea26469706673582212206d2c62766a7c20df183ec18a308fe2be1b4eafad2e7bf145001839d162df29d364736f6c63430008140033","linkReferences":{}},"methodIdentifiers":{"balanceOf(address,uint256)":"00fdd58e","balanceOfBatch(address[],uint256[])":"4e1273f4","burn(address,uint256,uint256)":"f5298aca","burnBatch(address,uint256[],uint256[])":"6b20c454","currentSupply()":"771282f6","distribute((address,uint256)[])":"1c378573","erc20Address()":"276184ae","erc20Token()":"8a13eea7","eventAddress()":"fad56779","exists(uint256)":"4f558e79","get()":"6d4ce63c","getTicketHolders(uint256,uint256)":"20ced105","getTokensByUser(address)":"80370075","initialSupply()":"378dc3dc","isApprovedForAll(address,address)":"e985e9c5","isWhitelisted(address)":"3af32abf","maxSupply()":"d5abeb01","name()":"06fdde03","nextTokenId()":"75794a3c","owner()":"8da5cb5b","ownerSmartWallet()":"bbedb38e","price()":"a035b1fe","renounceOwnership()":"715018a6","safeBatchTransferFrom(address,address,uint256[],uint256[],bytes)":"2eb2c2d6","safeTransferFrom(address,address,uint256,uint256,bytes)":"f242432a","setApprovalForAll(address,bool)":"a22cb465","setSmartWallet(address)":"2687f0f0","setTransferable(bool)":"9cd23707","setURI(string)":"02fe5305","supportsInterface(bytes4)":"01ffc9a7","symbol()":"95d89b41","tokenURI(uint256)":"c87b56dd","totalSupply()":"18160ddd","totalSupply(uint256)":"bd85b039","transferOwnership(address)":"f2fde38b","transferable()":"92ff0d31","updateSupply(uint256)":"6bd08049","updateWhitelist((address,bool)[])":"54f2a4d3","uri(uint256)":"0e89341c","userHasToken(address,uint256)":"0ab464f0","whitelistOnly()":"4b4687b5"},"id":50}