{"abi":[{"type":"constructor","inputs":[{"name":"_owner","type":"address","internalType":"address"},{"name":"_ownerSmartWallet","type":"address","internalType":"address"},{"name":"_baseURI","type":"string","internalType":"string"},{"name":"_name","type":"string","internalType":"string"},{"name":"_symbol","type":"string","internalType":"string"},{"name":"_erc20Address","type":"address","internalType":"address"},{"name":"_price","type":"uint256","internalType":"uint256"},{"name":"_initialSupply","type":"uint256","internalType":"uint256"},{"name":"_maxSupply","type":"uint256","internalType":"uint256"},{"name":"_transferable","type":"bool","internalType":"bool"},{"name":"_whitelistOnly","type":"bool","internalType":"bool"}],"stateMutability":"nonpayable"},{"type":"function","name":"balanceOf","inputs":[{"name":"account","type":"address","internalType":"address"},{"name":"id","type":"uint256","internalType":"uint256"}],"outputs":[{"name":"","type":"uint256","internalType":"uint256"}],"stateMutability":"view"},{"type":"function","name":"balanceOfBatch","inputs":[{"name":"accounts","type":"address[]","internalType":"address[]"},{"name":"ids","type":"uint256[]","internalType":"uint256[]"}],"outputs":[{"name":"","type":"uint256[]","internalType":"uint256[]"}],"stateMutability":"view"},{"type":"function","name":"burn","inputs":[{"name":"account","type":"address","internalType":"address"},{"name":"id","type":"uint256","internalType":"uint256"},{"name":"value","type":"uint256","internalType":"uint256"}],"outputs":[],"stateMutability":"nonpayable"},{"type":"function","name":"burnBatch","inputs":[{"name":"account","type":"address","internalType":"address"},{"name":"ids","type":"uint256[]","internalType":"uint256[]"},{"name":"values","type":"uint256[]","internalType":"uint256[]"}],"outputs":[],"stateMutability":"nonpayable"},{"type":"function","name":"count","inputs":[],"outputs":[],"stateMutability":"nonpayable"},{"type":"function","name":"counter","inputs":[],"outputs":[{"name":"","type":"uint256","internalType":"uint256"}],"stateMutability":"view"},{"type":"function","name":"currentSupply","inputs":[],"outputs":[{"name":"","type":"uint256","internalType":"uint256"}],"stateMutability":"view"},{"type":"function","name":"distribute","inputs":[{"name":"_distributions","type":"tuple[]","internalType":"struct Ticket.Distribution[]","components":[{"name":"recipient","type":"address","internalType":"address"},{"name":"amount","type":"uint256","internalType":"uint256"}]}],"outputs":[],"stateMutability":"nonpayable"},{"type":"function","name":"erc20Address","inputs":[],"outputs":[{"name":"","type":"address","internalType":"address"}],"stateMutability":"view"},{"type":"function","name":"erc20Token","inputs":[],"outputs":[{"name":"","type":"address","internalType":"contract IERC20"}],"stateMutability":"view"},{"type":"function","name":"exists","inputs":[{"name":"id","type":"uint256","internalType":"uint256"}],"outputs":[{"name":"","type":"bool","internalType":"bool"}],"stateMutability":"view"},{"type":"function","name":"get","inputs":[],"outputs":[],"stateMutability":"nonpayable"},{"type":"function","name":"getTicketHolders","inputs":[{"name":"start","type":"uint256","internalType":"uint256"},{"name":"pageSize","type":"uint256","internalType":"uint256"}],"outputs":[{"name":"","type":"address[]","internalType":"address[]"}],"stateMutability":"view"},{"type":"function","name":"getTokensByUser","inputs":[{"name":"user","type":"address","internalType":"address"}],"outputs":[{"name":"","type":"uint256[]","internalType":"uint256[]"}],"stateMutability":"view"},{"type":"function","name":"initialSupply","inputs":[],"outputs":[{"name":"","type":"uint256","internalType":"uint256"}],"stateMutability":"view"},{"type":"function","name":"isApprovedForAll","inputs":[{"name":"account","type":"address","internalType":"address"},{"name":"operator","type":"address","internalType":"address"}],"outputs":[{"name":"","type":"bool","internalType":"bool"}],"stateMutability":"view"},{"type":"function","name":"isWhitelisted","inputs":[{"name":"","type":"address","internalType":"address"}],"outputs":[{"name":"","type":"bool","internalType":"bool"}],"stateMutability":"view"},{"type":"function","name":"maxSupply","inputs":[],"outputs":[{"name":"","type":"uint256","internalType":"uint256"}],"stateMutability":"view"},{"type":"function","name":"name","inputs":[],"outputs":[{"name":"","type":"string","internalType":"string"}],"stateMutability":"view"},{"type":"function","name":"nextTokenId","inputs":[],"outputs":[{"name":"","type":"uint256","internalType":"uint256"}],"stateMutability":"view"},{"type":"function","name":"owner","inputs":[],"outputs":[{"name":"","type":"address","internalType":"address"}],"stateMutability":"view"},{"type":"function","name":"ownerSmartWallet","inputs":[],"outputs":[{"name":"","type":"address","internalType":"address"}],"stateMutability":"view"},{"type":"function","name":"price","inputs":[],"outputs":[{"name":"","type":"uint256","internalType":"uint256"}],"stateMutability":"view"},{"type":"function","name":"renounceOwnership","inputs":[],"outputs":[],"stateMutability":"nonpayable"},{"type":"function","name":"safeBatchTransferFrom","inputs":[{"name":"from","type":"address","internalType":"address"},{"name":"to","type":"address","internalType":"address"},{"name":"ids","type":"uint256[]","internalType":"uint256[]"},{"name":"values","type":"uint256[]","internalType":"uint256[]"},{"name":"data","type":"bytes","internalType":"bytes"}],"outputs":[],"stateMutability":"nonpayable"},{"type":"function","name":"safeTransferFrom","inputs":[{"name":"from","type":"address","internalType":"address"},{"name":"to","type":"address","internalType":"address"},{"name":"id","type":"uint256","internalType":"uint256"},{"name":"value","type":"uint256","internalType":"uint256"},{"name":"data","type":"bytes","internalType":"bytes"}],"outputs":[],"stateMutability":"nonpayable"},{"type":"function","name":"setApprovalForAll","inputs":[{"name":"operator","type":"address","internalType":"address"},{"name":"approved","type":"bool","internalType":"bool"}],"outputs":[],"stateMutability":"nonpayable"},{"type":"function","name":"setSmartWallet","inputs":[{"name":"_smartWallet","type":"address","internalType":"address"}],"outputs":[],"stateMutability":"nonpayable"},{"type":"function","name":"setTransferable","inputs":[{"name":"_transferable","type":"bool","internalType":"bool"}],"outputs":[],"stateMutability":"nonpayable"},{"type":"function","name":"setURI","inputs":[{"name":"newuri","type":"string","internalType":"string"}],"outputs":[],"stateMutability":"nonpayable"},{"type":"function","name":"supportsInterface","inputs":[{"name":"interfaceId","type":"bytes4","internalType":"bytes4"}],"outputs":[{"name":"","type":"bool","internalType":"bool"}],"stateMutability":"view"},{"type":"function","name":"symbol","inputs":[],"outputs":[{"name":"","type":"string","internalType":"string"}],"stateMutability":"view"},{"type":"function","name":"tokenURI","inputs":[{"name":"_tokenId","type":"uint256","internalType":"uint256"}],"outputs":[{"name":"","type":"string","internalType":"string"}],"stateMutability":"view"},{"type":"function","name":"totalSupply","inputs":[],"outputs":[{"name":"","type":"uint256","internalType":"uint256"}],"stateMutability":"view"},{"type":"function","name":"totalSupply","inputs":[{"name":"id","type":"uint256","internalType":"uint256"}],"outputs":[{"name":"","type":"uint256","internalType":"uint256"}],"stateMutability":"view"},{"type":"function","name":"transferOwnership","inputs":[{"name":"newOwner","type":"address","internalType":"address"}],"outputs":[],"stateMutability":"nonpayable"},{"type":"function","name":"transferable","inputs":[],"outputs":[{"name":"","type":"bool","internalType":"bool"}],"stateMutability":"view"},{"type":"function","name":"updateSupply","inputs":[{"name":"_additionalSupply","type":"uint256","internalType":"uint256"}],"outputs":[],"stateMutability":"nonpayable"},{"type":"function","name":"updateWhitelist","inputs":[{"name":"_whitelistUpdates","type":"tuple[]","internalType":"struct Ticket.Whitelist[]","components":[{"name":"user","type":"address","internalType":"address"},{"name":"status","type":"bool","internalType":"bool"}]}],"outputs":[],"stateMutability":"nonpayable"},{"type":"function","name":"uri","inputs":[{"name":"","type":"uint256","internalType":"uint256"}],"outputs":[{"name":"","type":"string","internalType":"string"}],"stateMutability":"view"},{"type":"function","name":"userHasToken","inputs":[{"name":"user","type":"address","internalType":"address"},{"name":"tokenId","type":"uint256","internalType":"uint256"}],"outputs":[{"name":"","type":"bool","internalType":"bool"}],"stateMutability":"view"},{"type":"function","name":"whitelistOnly","inputs":[],"outputs":[{"name":"","type":"bool","internalType":"bool"}],"stateMutability":"view"},{"type":"event","name":"ApprovalForAll","inputs":[{"name":"account","type":"address","indexed":true,"internalType":"address"},{"name":"operator","type":"address","indexed":true,"internalType":"address"},{"name":"approved","type":"bool","indexed":false,"internalType":"bool"}],"anonymous":false},{"type":"event","name":"OwnershipTransferred","inputs":[{"name":"previousOwner","type":"address","indexed":true,"internalType":"address"},{"name":"newOwner","type":"address","indexed":true,"internalType":"address"}],"anonymous":false},{"type":"event","name":"SupplyUpdated","inputs":[{"name":"newSupply","type":"uint256","indexed":false,"internalType":"uint256"}],"anonymous":false},{"type":"event","name":"TransferBatch","inputs":[{"name":"operator","type":"address","indexed":true,"internalType":"address"},{"name":"from","type":"address","indexed":true,"internalType":"address"},{"name":"to","type":"address","indexed":true,"internalType":"address"},{"name":"ids","type":"uint256[]","indexed":false,"internalType":"uint256[]"},{"name":"values","type":"uint256[]","indexed":false,"internalType":"uint256[]"}],"anonymous":false},{"type":"event","name":"TransferSingle","inputs":[{"name":"operator","type":"address","indexed":true,"internalType":"address"},{"name":"from","type":"address","indexed":true,"internalType":"address"},{"name":"to","type":"address","indexed":true,"internalType":"address"},{"name":"id","type":"uint256","indexed":false,"internalType":"uint256"},{"name":"value","type":"uint256","indexed":false,"internalType":"uint256"}],"anonymous":false},{"type":"event","name":"URI","inputs":[{"name":"value","type":"string","indexed":false,"internalType":"string"},{"name":"id","type":"uint256","indexed":true,"internalType":"uint256"}],"anonymous":false},{"type":"error","name":"ERC1155InsufficientBalance","inputs":[{"name":"sender","type":"address","internalType":"address"},{"name":"balance","type":"uint256","internalType":"uint256"},{"name":"needed","type":"uint256","internalType":"uint256"},{"name":"tokenId","type":"uint256","internalType":"uint256"}]},{"type":"error","name":"ERC1155InvalidApprover","inputs":[{"name":"approver","type":"address","internalType":"address"}]},{"type":"error","name":"ERC1155InvalidArrayLength","inputs":[{"name":"idsLength","type":"uint256","internalType":"uint256"},{"name":"valuesLength","type":"uint256","internalType":"uint256"}]},{"type":"error","name":"ERC1155InvalidOperator","inputs":[{"name":"operator","type":"address","internalType":"address"}]},{"type":"error","name":"ERC1155InvalidReceiver","inputs":[{"name":"receiver","type":"address","internalType":"address"}]},{"type":"error","name":"ERC1155InvalidSender","inputs":[{"name":"sender","type":"address","internalType":"address"}]},{"type":"error","name":"ERC1155MissingApprovalForAll","inputs":[{"name":"operator","type":"address","internalType":"address"},{"name":"owner","type":"address","internalType":"address"}]},{"type":"error","name":"OwnableInvalidOwner","inputs":[{"name":"owner","type":"address","internalType":"address"}]},{"type":"error","name":"OwnableUnauthorizedAccount","inputs":[{"name":"account","type":"address","internalType":"address"}]}],"bytecode":{"object":"0x60806040526001600f55600060105560016015553480156200002057600080fd5b506040516200330b3803806200330b8339810160408190526200004391620002e5565b8a8962000050816200018e565b506001600160a01b0381166200008157604051631e4fbdf760e01b8152600060048201526024015b60405180910390fd5b6200008c81620001a0565b5082841115620000e95760405162461bcd60e51b815260206004820152602160248201527f496e697469616c20737570706c792065786365656473206d617820737570706c6044820152607960f81b606482015260840162000078565b600880546001600160a01b0319166001600160a01b038c16179055600962000112898262000492565b50600a62000121888262000492565b50600680546001600160a01b039097166001600160a01b031997881681179091556007805490971617909555601093909355600b829055600c55600d55600e80549215156101000261ff00199215159290921661ffff1990931692909217179055506200055e9350505050565b60026200019c828262000492565b5050565b600380546001600160a01b038381166001600160a01b0319831681179093556040519116919082907f8be0079c531659141344cd1fd0a4f28419497f9722a3daafe3b4186f6b6457e090600090a35050565b80516001600160a01b03811681146200020a57600080fd5b919050565b634e487b7160e01b600052604160045260246000fd5b600082601f8301126200023757600080fd5b81516001600160401b03808211156200025457620002546200020f565b604051601f8301601f19908116603f011681019082821181831017156200027f576200027f6200020f565b816040528381526020925086838588010111156200029c57600080fd5b600091505b83821015620002c05785820183015181830184015290820190620002a1565b600093810190920192909252949350505050565b805180151581146200020a57600080fd5b60008060008060008060008060008060006101608c8e0312156200030857600080fd5b620003138c620001f2565b9a506200032360208d01620001f2565b60408d0151909a506001600160401b038111156200034057600080fd5b6200034e8e828f0162000225565b60608e0151909a5090506001600160401b038111156200036d57600080fd5b6200037b8e828f0162000225565b60808e015190995090506001600160401b038111156200039a57600080fd5b620003a88e828f0162000225565b975050620003b960a08d01620001f2565b955060c08c0151945060e08c015193506101008c01519250620003e06101208d01620002d4565b9150620003f16101408d01620002d4565b90509295989b509295989b9093969950565b600181811c908216806200041857607f821691505b6020821081036200043957634e487b7160e01b600052602260045260246000fd5b50919050565b601f8211156200048d57600081815260208120601f850160051c81016020861015620004685750805b601f850160051c820191505b81811015620004895782815560010162000474565b5050505b505050565b81516001600160401b03811115620004ae57620004ae6200020f565b620004c681620004bf845462000403565b846200043f565b602080601f831160018114620004fe5760008415620004e55750858301515b600019600386901b1c1916600185901b17855562000489565b600085815260208120601f198616915b828110156200052f578886015182559484019460019091019084016200050e565b50858210156200054e5787850151600019600388901b60f8161c191681555b5050505050600190811b01905550565b612d9d806200056e6000396000f3fe608060405234801561001057600080fd5b506004361061025d5760003560e01c80636bd08049116101465780639cd23707116100c3578063c87b56dd11610087578063c87b56dd14610521578063d5abeb0114610534578063e985e9c51461053d578063f242432a14610550578063f2fde38b14610563578063f5298aca1461057657600080fd5b80639cd23707146104bf578063a035b1fe146104d2578063a22cb465146104db578063bbedb38e146104ee578063bd85b0391461050157600080fd5b8063803700751161010a57806380370075146104735780638a13eea7146104865780638da5cb5b1461049957806392ff0d31146104aa57806395d89b41146104b757600080fd5b80636bd080491461043e5780636d4ce63c14610451578063715018a61461045957806375794a3c14610461578063771282f61461046a57600080fd5b80632687f0f0116101df5780634b4687b5116101a35780634b4687b5146103bb5780634e1273f4146103cd5780634f558e79146103ed57806354f2a4d31461040f57806361bc221a146104225780636b20c4541461042b57600080fd5b80632687f0f01461033e578063276184ae146103515780632eb2c2d61461037c578063378dc3dc1461038f5780633af32abf1461039857600080fd5b80630ab464f0116102265780630ab464f0146102dd5780630e89341c146102f057806318160ddd146103035780631c3785731461030b57806320ced1051461031e57600080fd5b8062fdd58e1461026257806301ffc9a71461028857806302fe5305146102ab57806306661abd146102c057806306fdde03146102c8575b600080fd5b610275610270366004612228565b610589565b6040519081526020015b60405180910390f35b61029b610296366004612268565b6105b1565b604051901515815260200161027f565b6102be6102b936600461234a565b610601565b005b6102be610615565b6102d061062c565b60405161027f91906123ea565b61029b6102eb366004612228565b6106ba565b6102d06102fe3660046123fd565b6106e3565b600554610275565b6102be610319366004612439565b610777565b61033161032c3660046124fa565b610959565b60405161027f919061251c565b6102be61034c366004612569565b610a35565b600654610364906001600160a01b031681565b6040516001600160a01b03909116815260200161027f565b6102be61038a36600461260a565b610a5f565b610275600b5481565b61029b6103a6366004612569565b60146020526000908152604090205460ff1681565b600e5461029b90610100900460ff1681565b6103e06103db3660046126b3565b610ac6565b60405161027f91906127ad565b61029b6103fb3660046123fd565b600090815260046020526040902054151590565b6102be61041d3660046127ce565b610b9a565b61027560155481565b6102be610439366004612889565b610c12565b6102be61044c3660046123fd565b610c76565b6102be610d21565b6102be610fc3565b610275600f5481565b610275600d5481565b6103e0610481366004612569565b610fd7565b600754610364906001600160a01b031681565b6003546001600160a01b0316610364565b600e5461029b9060ff1681565b6102d0610ffb565b6102be6104cd3660046128fc565b611008565b61027560105481565b6102be6104e9366004612919565b611023565b600854610364906001600160a01b031681565b61027561050f3660046123fd565b60009081526004602052604090205490565b6102d061052f3660046123fd565b61102e565b610275600c5481565b61029b61054b366004612950565b611069565b6102be61055e366004612983565b611097565b6102be610571366004612569565b6110f6565b6102be6105843660046129e7565b611131565b6000818152602081815260408083206001600160a01b03861684529091529020545b92915050565b60006001600160e01b03198216636cdb3d1360e11b14806105e257506001600160e01b031982166303a24d0760e21b145b806105ab57506301ffc9a760e01b6001600160e01b03198316146105ab565b610609611167565b610612816111c2565b50565b6015805490600061062583612a30565b9190505550565b6009805461063990612a49565b80601f016020809104026020016040519081016040528092919081815260200182805461066590612a49565b80156106b25780601f10610687576101008083540402835291602001916106b2565b820191906000526020600020905b81548152906001019060200180831161069557829003601f168201915b505050505081565b6001600160a01b03821660009081526011602052604081206106dc90836111ce565b9392505050565b6060600280546106f290612a49565b80601f016020809104026020016040519081016040528092919081815260200182805461071e90612a49565b801561076b5780601f106107405761010080835404028352916020019161076b565b820191906000526020600020905b81548152906001019060200180831161074e57829003601f168201915b50505050509050919050565b61077f611167565b6000805b825181101561084e5760008382815181106107a0576107a0612a83565b60200260200101519050600e60019054906101000a900460ff16156108295780516001600160a01b031660009081526014602052604090205460ff166108295760405162461bcd60e51b8152602060048201526019602482015278149958da5c1a595b9d081b9bdd081dda1a5d195b1a5cdd1959603a1b60448201526064015b60405180910390fd5b60208101516108389084612a99565b925050808061084690612a30565b915050610783565b5080600d54101561089a5760405162461bcd60e51b8152602060048201526016602482015275457863656564732063757272656e7420737570706c7960501b6044820152606401610820565b600c5481600d546108ab9190612a99565b11156108ee5760405162461bcd60e51b815260206004820152601260248201527145786365656473206d617820737570706c7960701b6044820152606401610820565b60005b825181101561093d57600083828151811061090e5761090e612a83565b6020026020010151905061092a816000015182602001516111e6565b508061093581612a30565b9150506108f1565b5080600d60008282546109509190612aac565b90915550505050565b606060006109676012611286565b905060006109758486612a99565b9050818111156109825750805b600061098e8683612aac565b6001600160401b038111156109a5576109a5612285565b6040519080825280602002602001820160405280156109ce578160200160208202803683370190505b509050855b82811015610a2b576109e6601282611290565b826109f18984612aac565b81518110610a0157610a01612a83565b6001600160a01b039092166020928302919091019091015280610a2381612a30565b9150506109d3565b5095945050505050565b610a3d611167565b600880546001600160a01b0319166001600160a01b0392909216919091179055565b336001600160a01b0386168114801590610a805750610a7e8682611069565b155b15610ab15760405163711bec9160e11b81526001600160a01b03808316600483015287166024820152604401610820565b610abe868686868661129c565b505050505050565b60608151835114610af75781518351604051635b05999160e01b815260048101929092526024820152604401610820565b600083516001600160401b03811115610b1257610b12612285565b604051908082528060200260200182016040528015610b3b578160200160208202803683370190505b50905060005b8451811015610b9257602080820286010151610b6590602080840287010151610589565b828281518110610b7757610b77612a83565b6020908102919091010152610b8b81612a30565b9050610b41565b509392505050565b610ba2611167565b60005b8151811015610c0e576000828281518110610bc257610bc2612a83565b6020908102919091018101518082015190516001600160a01b0316600090815260149092526040909120805460ff19169115159190911790555080610c0681612a30565b915050610ba5565b5050565b6001600160a01b0383163314801590610c325750610c308333611069565b155b15610c6657335b60405163711bec9160e11b81526001600160a01b0391821660048201529084166024820152604401610820565b610c71838383611303565b505050565b610c7e611167565b600c5481600d54610c8f9190612a99565b1115610cd25760405162461bcd60e51b815260206004820152601260248201527145786365656473206d617820737570706c7960701b6044820152606401610820565b600081600d54610ce29190612a99565b600d8190556040518181529091507fea4bfee7f9fb38136c61cc04b6e56efc93eaf1beef326dbc47495b358385914c9060200160405180910390a15050565b6010543390600003610d5057610d4b81600f54600160405180602001604052806000815250611349565b610fab565b6007546040516370a0823160e01b81526001600160a01b03838116600483015260009216906370a0823190602401602060405180830381865afa158015610d9b573d6000803e3d6000fd5b505050506040513d601f19601f82011682018060405250810190610dbf9190612abf565b9050601054811015610e0a5760405162461bcd60e51b8152602060048201526014602482015273496e73756666696369656e742062616c616e636560601b6044820152606401610820565b600754604051636eb1769f60e11b81526001600160a01b038481166004830152306024830152600092169063dd62ed3e90604401602060405180830381865afa158015610e5b573d6000803e3d6000fd5b505050506040513d601f19601f82011682018060405250810190610e7f9190612abf565b9050601054811015610ecc5760405162461bcd60e51b8152602060048201526016602482015275496e73756666696369656e7420616c6c6f77616e636560501b6044820152606401610820565b6007546010546040516323b872dd60e01b81526001600160a01b03868116600483015230602483015260448201929092529116906323b872dd906064016020604051808303816000875af1158015610f28573d6000803e3d6000fd5b505050506040513d601f19601f82011682018060405250810190610f4c9190612ad8565b610f8a5760405162461bcd60e51b815260206004820152600f60248201526e151c985b9cd9995c8819985a5b1959608a1b6044820152606401610820565b610fa883600f54600160405180602001604052806000815250611349565b50505b600f8054906000610fbb83612a30565b919050555050565b610fcb611167565b610fd560006113a6565b565b6001600160a01b03811660009081526011602052604090206060906105ab906113f8565b600a805461063990612a49565b611010611167565b600e805460ff1916911515919091179055565b610c0e338383611405565b6060611039826106e3565b6110428361149b565b604051602001611053929190612af5565b6040516020818303038152906040529050919050565b6001600160a01b03918216600090815260016020908152604080832093909416825291909152205460ff1690565b336001600160a01b03861681148015906110b857506110b68682611069565b155b156110e95760405163711bec9160e11b81526001600160a01b03808316600483015287166024820152604401610820565b610abe868686868661152d565b6110fe611167565b6001600160a01b03811661112857604051631e4fbdf760e01b815260006004820152602401610820565b610612816113a6565b6001600160a01b0383163314801590611151575061114f8333611069565b155b1561115c5733610c39565b610c718383836115bb565b6003546001600160a01b031633148061118a57506008546001600160a01b031633145b610fd55760405162461bcd60e51b81526020600482015260096024820152682737ba1037bbb732b960b91b6044820152606401610820565b6002610c0e8282612b6a565b600081815260018301602052604081205415156106dc565b60005b81811015610c715761120f83600f54600160405180602001604052806000815250611349565b61125e6040518060400160405280600f81526020016e135a5b9d1959081d1bdad95b881251608a1b815250600f5460405180604001604052806002815260200161746f60f01b81525086611623565b600f805490600061126e83612a30565b9190505550808061127e90612a30565b9150506111e9565b60006105ab825490565b60006106dc8383611672565b6001600160a01b0384166112c657604051632bfa23e760e11b815260006004820152602401610820565b6001600160a01b0385166112ef57604051626a0d4560e21b815260006004820152602401610820565b6112fc858585858561169c565b5050505050565b6001600160a01b03831661132c57604051626a0d4560e21b815260006004820152602401610820565b610c7183600084846040518060200160405280600081525061169c565b6001600160a01b03841661137357604051632bfa23e760e11b815260006004820152602401610820565b60408051600180825260208201869052818301908152606082018590526080820190925290610abe60008784848761169c565b600380546001600160a01b038381166001600160a01b0319831681179093556040519116919082907f8be0079c531659141344cd1fd0a4f28419497f9722a3daafe3b4186f6b6457e090600090a35050565b606060006106dc836116ef565b6001600160a01b03821661142e5760405162ced3e160e81b815260006004820152602401610820565b6001600160a01b03838116600081815260016020908152604080832094871680845294825291829020805460ff191686151590811790915591519182527f17307eab39ab6107e8899845ad3d59bd9653f200f220920489ca2b5937696c31910160405180910390a3505050565b606060006114a88361174a565b60010190506000816001600160401b038111156114c7576114c7612285565b6040519080825280601f01601f1916602001820160405280156114f1576020820181803683370190505b5090508181016020015b600019016f181899199a1a9b1b9c1cb0b131b232b360811b600a86061a8153600a85049450846114fb57509392505050565b6001600160a01b03841661155757604051632bfa23e760e11b815260006004820152602401610820565b6001600160a01b03851661158057604051626a0d4560e21b815260006004820152602401610820565b604080516001808252602082018690528183019081526060820185905260808201909252906115b2878784848761169c565b50505050505050565b6001600160a01b0383166115e457604051626a0d4560e21b815260006004820152602401610820565b604080516001808252602082018590528183019081526060820184905260a082019092526000608082018181529192916112fc9187918590859061169c565b61166c8484848460405160240161163d9493929190612c29565b60408051601f198184030181529190526020810180516001600160e01b0316631f118ca960e21b179052611822565b50505050565b600082600001828154811061168957611689612a83565b9060005260206000200154905092915050565b6116a88585858561182b565b6001600160a01b038416156112fc57825133906001036116e157602084810151908401516116da838989858589611ae3565b5050610abe565b610abe818787878787611c07565b60608160000180548060200260200160405190810160405280929190818152602001828054801561076b57602002820191906000526020600020905b81548152602001906001019080831161172b5750505050509050919050565b60008072184f03e93ff9f4daa797ed6e38ed64bf6a1f0160401b83106117895772184f03e93ff9f4daa797ed6e38ed64bf6a1f0160401b830492506040015b6d04ee2d6d415b85acef810000000083106117b5576d04ee2d6d415b85acef8100000000830492506020015b662386f26fc1000083106117d357662386f26fc10000830492506010015b6305f5e10083106117eb576305f5e100830492506008015b61271083106117ff57612710830492506004015b60648310611811576064830492506002015b600a83106105ab5760010192915050565b61061281611cf0565b61183784848484611d11565b60005b82518110156119a357600082828151811061185757611857612a83565b60200260200101511115611991576001600160a01b03851615611924576118978584838151811061188a5761188a612a83565b6020026020010151610589565b600003611924576118ee8382815181106118b3576118b3612a83565b602002602001015160116000886001600160a01b03166001600160a01b03168152602001908152602001600020611e6b90919063ffffffff16565b506001600160a01b038516600090815260116020526040902061191090611286565b60000361192457611922601286611e77565b505b6001600160a01b038416156119915761198383828151811061194857611948612a83565b602002602001015160116000876001600160a01b03166001600160a01b03168152602001908152602001600020611e8c90919063ffffffff16565b5061198f601285611e98565b505b8061199b81612a30565b91505061183a565b506001600160a01b03841615806119c157506001600160a01b038316155b61166c57600e5460ff16611a175760405162461bcd60e51b815260206004820152601960248201527f5472616e736665727320617265206e6f7420616c6c6f776564000000000000006044820152606401610820565b600e54610100900460ff161561166c573360009081526014602052604090205460ff16611a7f5760405162461bcd60e51b815260206004820152601660248201527514d95b99195c881b9bdd081dda1a5d195b1a5cdd195960521b6044820152606401610820565b6001600160a01b03831660009081526014602052604090205460ff1661166c5760405162461bcd60e51b8152602060048201526019602482015278149958da5c1a595b9d081b9bdd081dda1a5d195b1a5cdd1959603a1b6044820152606401610820565b6001600160a01b0384163b15610abe5760405163f23a6e6160e01b81526001600160a01b0385169063f23a6e6190611b279089908990889088908890600401612c6e565b6020604051808303816000875af1925050508015611b62575060408051601f3d908101601f19168201909252611b5f91810190612ca8565b60015b611bcb573d808015611b90576040519150601f19603f3d011682016040523d82523d6000602084013e611b95565b606091505b508051600003611bc357604051632bfa23e760e11b81526001600160a01b0386166004820152602401610820565b805181602001fd5b6001600160e01b0319811663f23a6e6160e01b146115b257604051632bfa23e760e11b81526001600160a01b0386166004820152602401610820565b6001600160a01b0384163b15610abe5760405163bc197c8160e01b81526001600160a01b0385169063bc197c8190611c4b9089908990889088908890600401612cc5565b6020604051808303816000875af1925050508015611c86575060408051601f3d908101601f19168201909252611c8391810190612ca8565b60015b611cb4573d808015611b90576040519150601f19603f3d011682016040523d82523d6000602084013e611b95565b6001600160e01b0319811663bc197c8160e01b146115b257604051632bfa23e760e11b81526001600160a01b0386166004820152602401610820565b60006a636f6e736f6c652e6c6f679050600080835160208501845afa505050565b611d1d84848484611ead565b6001600160a01b038416611dd0576000805b8351811015611db6576000838281518110611d4c57611d4c612a83565b602002602001015190508060046000878581518110611d6d57611d6d612a83565b602002602001015181526020019081526020016000206000828254611d929190612a99565b90915550611da290508184612a99565b92505080611daf90612a30565b9050611d2f565b508060056000828254611dc99190612a99565b9091555050505b6001600160a01b03831661166c576000805b8351811015611e5a576000838281518110611dff57611dff612a83565b602002602001015190508060046000878581518110611e2057611e20612a83565b602002602001015181526020019081526020016000206000828254039250508190555080830192505080611e5390612a30565b9050611de2565b506005805491909103905550505050565b60006106dc83836120ca565b60006106dc836001600160a01b0384166120ca565b60006106dc83836121bd565b60006106dc836001600160a01b0384166121bd565b8051825114611edc5781518151604051635b05999160e01b815260048101929092526024820152604401610820565b3360005b8351811015611feb576020818102858101820151908501909101516001600160a01b03881615611f93576000828152602081815260408083206001600160a01b038c16845290915290205481811015611f6c576040516303dee4c560e01b81526001600160a01b038a166004820152602481018290526044810183905260648101849052608401610820565b6000838152602081815260408083206001600160a01b038d16845290915290209082900390555b6001600160a01b03871615611fd8576000828152602081815260408083206001600160a01b038b16845290915281208054839290611fd2908490612a99565b90915550505b505080611fe490612a30565b9050611ee0565b50825160010361206c5760208301516000906020840151909150856001600160a01b0316876001600160a01b0316846001600160a01b03167fc3d58168c5ae7397731d063d5bbf3d657854427343f4c083240f7aacaa2d0f62858560405161205d929190918252602082015260400190565b60405180910390a450506112fc565b836001600160a01b0316856001600160a01b0316826001600160a01b03167f4a39dc06d4c0dbc64b70af90fd698a233a518aa5d07e595d983b8c0526c8f7fb86866040516120bb929190612d23565b60405180910390a45050505050565b600081815260018301602052604081205480156121b35760006120ee600183612aac565b855490915060009061210290600190612aac565b905080821461216757600086600001828154811061212257612122612a83565b906000526020600020015490508087600001848154811061214557612145612a83565b6000918252602080832090910192909255918252600188019052604090208390555b855486908061217857612178612d51565b6001900381819060005260206000200160009055905585600101600086815260200190815260200160002060009055600193505050506105ab565b60009150506105ab565b6000818152600183016020526040812054612204575081546001818101845560008481526020808220909301849055845484825282860190935260409020919091556105ab565b5060006105ab565b80356001600160a01b038116811461222357600080fd5b919050565b6000806040838503121561223b57600080fd5b6122448361220c565b946020939093013593505050565b6001600160e01b03198116811461061257600080fd5b60006020828403121561227a57600080fd5b81356106dc81612252565b634e487b7160e01b600052604160045260246000fd5b604080519081016001600160401b03811182821017156122bd576122bd612285565b60405290565b604051601f8201601f191681016001600160401b03811182821017156122eb576122eb612285565b604052919050565b60006001600160401b0383111561230c5761230c612285565b61231f601f8401601f19166020016122c3565b905082815283838301111561233357600080fd5b828260208301376000602084830101529392505050565b60006020828403121561235c57600080fd5b81356001600160401b0381111561237257600080fd5b8201601f8101841361238357600080fd5b612392848235602084016122f3565b949350505050565b60005b838110156123b557818101518382015260200161239d565b50506000910152565b600081518084526123d681602086016020860161239a565b601f01601f19169290920160200192915050565b6020815260006106dc60208301846123be565b60006020828403121561240f57600080fd5b5035919050565b60006001600160401b0382111561242f5761242f612285565b5060051b60200190565b6000602080838503121561244c57600080fd5b82356001600160401b0381111561246257600080fd5b8301601f8101851361247357600080fd5b803561248661248182612416565b6122c3565b81815260069190911b820183019083810190878311156124a557600080fd5b928401925b828410156124ef57604084890312156124c35760008081fd5b6124cb61229b565b6124d48561220c565b815284860135868201528252604090930192908401906124aa565b979650505050505050565b6000806040838503121561250d57600080fd5b50508035926020909101359150565b6020808252825182820181905260009190848201906040850190845b8181101561255d5783516001600160a01b031683529284019291840191600101612538565b50909695505050505050565b60006020828403121561257b57600080fd5b6106dc8261220c565b600082601f83011261259557600080fd5b813560206125a561248183612416565b82815260059290921b840181019181810190868411156125c457600080fd5b8286015b848110156125df57803583529183019183016125c8565b509695505050505050565b600082601f8301126125fb57600080fd5b6106dc838335602085016122f3565b600080600080600060a0868803121561262257600080fd5b61262b8661220c565b94506126396020870161220c565b935060408601356001600160401b038082111561265557600080fd5b61266189838a01612584565b9450606088013591508082111561267757600080fd5b61268389838a01612584565b9350608088013591508082111561269957600080fd5b506126a6888289016125ea565b9150509295509295909350565b600080604083850312156126c657600080fd5b82356001600160401b03808211156126dd57600080fd5b818501915085601f8301126126f157600080fd5b8135602061270161248183612416565b82815260059290921b8401810191818101908984111561272057600080fd5b948201945b83861015612745576127368661220c565b82529482019490820190612725565b9650508601359250508082111561275b57600080fd5b5061276885828601612584565b9150509250929050565b600081518084526020808501945080840160005b838110156127a257815187529582019590820190600101612786565b509495945050505050565b6020815260006106dc6020830184612772565b801515811461061257600080fd5b600060208083850312156127e157600080fd5b82356001600160401b038111156127f757600080fd5b8301601f8101851361280857600080fd5b803561281661248182612416565b81815260069190911b8201830190838101908783111561283557600080fd5b928401925b828410156124ef57604084890312156128535760008081fd5b61285b61229b565b6128648561220c565b815285850135612873816127c0565b818701528252604093909301929084019061283a565b60008060006060848603121561289e57600080fd5b6128a78461220c565b925060208401356001600160401b03808211156128c357600080fd5b6128cf87838801612584565b935060408601359150808211156128e557600080fd5b506128f286828701612584565b9150509250925092565b60006020828403121561290e57600080fd5b81356106dc816127c0565b6000806040838503121561292c57600080fd5b6129358361220c565b91506020830135612945816127c0565b809150509250929050565b6000806040838503121561296357600080fd5b61296c8361220c565b915061297a6020840161220c565b90509250929050565b600080600080600060a0868803121561299b57600080fd5b6129a48661220c565b94506129b26020870161220c565b9350604086013592506060860135915060808601356001600160401b038111156129db57600080fd5b6126a6888289016125ea565b6000806000606084860312156129fc57600080fd5b612a058461220c565b95602085013595506040909401359392505050565b634e487b7160e01b600052601160045260246000fd5b600060018201612a4257612a42612a1a565b5060010190565b600181811c90821680612a5d57607f821691505b602082108103612a7d57634e487b7160e01b600052602260045260246000fd5b50919050565b634e487b7160e01b600052603260045260246000fd5b808201808211156105ab576105ab612a1a565b818103818111156105ab576105ab612a1a565b600060208284031215612ad157600080fd5b5051919050565b600060208284031215612aea57600080fd5b81516106dc816127c0565b60008351612b0781846020880161239a565b835190830190612b1b81836020880161239a565b01949350505050565b601f821115610c7157600081815260208120601f850160051c81016020861015612b4b5750805b601f850160051c820191505b81811015610abe57828155600101612b57565b81516001600160401b03811115612b8357612b83612285565b612b9781612b918454612a49565b84612b24565b602080601f831160018114612bcc5760008415612bb45750858301515b600019600386901b1c1916600185901b178555610abe565b600085815260208120601f198616915b82811015612bfb57888601518255948401946001909101908401612bdc565b5085821015612c195787850151600019600388901b60f8161c191681555b5050505050600190811b01905550565b608081526000612c3c60808301876123be565b8560208401528281036040840152612c5481866123be565b91505060018060a01b038316606083015295945050505050565b6001600160a01b03868116825285166020820152604081018490526060810183905260a0608082018190526000906124ef908301846123be565b600060208284031215612cba57600080fd5b81516106dc81612252565b6001600160a01b0386811682528516602082015260a060408201819052600090612cf190830186612772565b8281036060840152612d038186612772565b90508281036080840152612d1781856123be565b98975050505050505050565b604081526000612d366040830185612772565b8281036020840152612d488185612772565b95945050505050565b634e487b7160e01b600052603160045260246000fdfea26469706673582212209a717abcad5b2180df9efab715dd38d83630aa4f667d08d5b0ef593e56ae561364736f6c63430008140033","linkReferences":{}},"methodIdentifiers":{"balanceOf(address,uint256)":"00fdd58e","balanceOfBatch(address[],uint256[])":"4e1273f4","burn(address,uint256,uint256)":"f5298aca","burnBatch(address,uint256[],uint256[])":"6b20c454","count()":"06661abd","counter()":"61bc221a","currentSupply()":"771282f6","distribute((address,uint256)[])":"1c378573","erc20Address()":"276184ae","erc20Token()":"8a13eea7","exists(uint256)":"4f558e79","get()":"6d4ce63c","getTicketHolders(uint256,uint256)":"20ced105","getTokensByUser(address)":"80370075","initialSupply()":"378dc3dc","isApprovedForAll(address,address)":"e985e9c5","isWhitelisted(address)":"3af32abf","maxSupply()":"d5abeb01","name()":"06fdde03","nextTokenId()":"75794a3c","owner()":"8da5cb5b","ownerSmartWallet()":"bbedb38e","price()":"a035b1fe","renounceOwnership()":"715018a6","safeBatchTransferFrom(address,address,uint256[],uint256[],bytes)":"2eb2c2d6","safeTransferFrom(address,address,uint256,uint256,bytes)":"f242432a","setApprovalForAll(address,bool)":"a22cb465","setSmartWallet(address)":"2687f0f0","setTransferable(bool)":"9cd23707","setURI(string)":"02fe5305","supportsInterface(bytes4)":"01ffc9a7","symbol()":"95d89b41","tokenURI(uint256)":"c87b56dd","totalSupply()":"18160ddd","totalSupply(uint256)":"bd85b039","transferOwnership(address)":"f2fde38b","transferable()":"92ff0d31","updateSupply(uint256)":"6bd08049","updateWhitelist((address,bool)[])":"54f2a4d3","uri(uint256)":"0e89341c","userHasToken(address,uint256)":"0ab464f0","whitelistOnly()":"4b4687b5"},"id":39}