{"abi":[{"type":"constructor","inputs":[{"name":"config","type":"tuple","internalType":"struct Library.TicketConstructor","components":[{"name":"_owner","type":"address","internalType":"address"},{"name":"_ownerSmartWallet","type":"address","internalType":"address"},{"name":"_eventAddress","type":"address","internalType":"address"},{"name":"_baseURI","type":"string","internalType":"string"},{"name":"_name","type":"string","internalType":"string"},{"name":"_symbol","type":"string","internalType":"string"},{"name":"_erc20Address","type":"address","internalType":"address"},{"name":"_price","type":"uint256","internalType":"uint256"},{"name":"_initialSupply","type":"uint256","internalType":"uint256"},{"name":"_maxSupply","type":"uint256","internalType":"uint256"},{"name":"_transferable","type":"bool","internalType":"bool"},{"name":"_whitelistOnly","type":"bool","internalType":"bool"},{"name":"_stakeholders","type":"tuple[]","internalType":"struct Library.Stakeholder[]","components":[{"name":"wallet","type":"address","internalType":"address payable"},{"name":"feePercentage","type":"uint256","internalType":"uint256"}]}]}],"stateMutability":"nonpayable"},{"type":"function","name":"addStakeholder","inputs":[{"name":"_wallet","type":"address","internalType":"address payable"},{"name":"_feePercentage","type":"uint256","internalType":"uint256"}],"outputs":[],"stateMutability":"nonpayable"},{"type":"function","name":"balanceOf","inputs":[{"name":"account","type":"address","internalType":"address"},{"name":"id","type":"uint256","internalType":"uint256"}],"outputs":[{"name":"","type":"uint256","internalType":"uint256"}],"stateMutability":"view"},{"type":"function","name":"balanceOfBatch","inputs":[{"name":"accounts","type":"address[]","internalType":"address[]"},{"name":"ids","type":"uint256[]","internalType":"uint256[]"}],"outputs":[{"name":"","type":"uint256[]","internalType":"uint256[]"}],"stateMutability":"view"},{"type":"function","name":"burn","inputs":[{"name":"account","type":"address","internalType":"address"},{"name":"id","type":"uint256","internalType":"uint256"},{"name":"value","type":"uint256","internalType":"uint256"}],"outputs":[],"stateMutability":"nonpayable"},{"type":"function","name":"burnBatch","inputs":[{"name":"account","type":"address","internalType":"address"},{"name":"ids","type":"uint256[]","internalType":"uint256[]"},{"name":"values","type":"uint256[]","internalType":"uint256[]"}],"outputs":[],"stateMutability":"nonpayable"},{"type":"function","name":"currentSupply","inputs":[],"outputs":[{"name":"","type":"uint256","internalType":"uint256"}],"stateMutability":"view"},{"type":"function","name":"distribute","inputs":[{"name":"_distributions","type":"tuple[]","internalType":"struct Ticket.Distribution[]","components":[{"name":"recipient","type":"address","internalType":"address"},{"name":"amount","type":"uint256","internalType":"uint256"}]}],"outputs":[],"stateMutability":"nonpayable"},{"type":"function","name":"erc20Address","inputs":[],"outputs":[{"name":"","type":"address","internalType":"address"}],"stateMutability":"view"},{"type":"function","name":"erc20Token","inputs":[],"outputs":[{"name":"","type":"address","internalType":"contract IERC20"}],"stateMutability":"view"},{"type":"function","name":"eventAddress","inputs":[],"outputs":[{"name":"","type":"address","internalType":"address"}],"stateMutability":"view"},{"type":"function","name":"exists","inputs":[{"name":"id","type":"uint256","internalType":"uint256"}],"outputs":[{"name":"","type":"bool","internalType":"bool"}],"stateMutability":"view"},{"type":"function","name":"extractFieldFromContext","inputs":[{"name":"_data","type":"string","internalType":"string"},{"name":"target","type":"string","internalType":"string"}],"outputs":[{"name":"","type":"string","internalType":"string"}],"stateMutability":"pure"},{"type":"function","name":"get","inputs":[],"outputs":[],"stateMutability":"nonpayable"},{"type":"function","name":"getTicketHolders","inputs":[{"name":"start","type":"uint256","internalType":"uint256"},{"name":"pageSize","type":"uint256","internalType":"uint256"}],"outputs":[{"name":"","type":"address[]","internalType":"address[]"}],"stateMutability":"view"},{"type":"function","name":"getTokensByUser","inputs":[{"name":"user","type":"address","internalType":"address"}],"outputs":[{"name":"","type":"uint256[]","internalType":"uint256[]"}],"stateMutability":"view"},{"type":"function","name":"initialSupply","inputs":[],"outputs":[{"name":"","type":"uint256","internalType":"uint256"}],"stateMutability":"view"},{"type":"function","name":"isApprovedForAll","inputs":[{"name":"account","type":"address","internalType":"address"},{"name":"operator","type":"address","internalType":"address"}],"outputs":[{"name":"","type":"bool","internalType":"bool"}],"stateMutability":"view"},{"type":"function","name":"isWhitelisted","inputs":[{"name":"","type":"address","internalType":"address"}],"outputs":[{"name":"","type":"bool","internalType":"bool"}],"stateMutability":"view"},{"type":"function","name":"maxSupply","inputs":[],"outputs":[{"name":"","type":"uint256","internalType":"uint256"}],"stateMutability":"view"},{"type":"function","name":"name","inputs":[],"outputs":[{"name":"","type":"string","internalType":"string"}],"stateMutability":"view"},{"type":"function","name":"nextTokenId","inputs":[],"outputs":[{"name":"","type":"uint256","internalType":"uint256"}],"stateMutability":"view"},{"type":"function","name":"owner","inputs":[],"outputs":[{"name":"","type":"address","internalType":"address"}],"stateMutability":"view"},{"type":"function","name":"ownerSmartWallet","inputs":[],"outputs":[{"name":"","type":"address","internalType":"address"}],"stateMutability":"view"},{"type":"function","name":"price","inputs":[],"outputs":[{"name":"","type":"uint256","internalType":"uint256"}],"stateMutability":"view"},{"type":"function","name":"removeStakeholder","inputs":[{"name":"_index","type":"uint256","internalType":"uint256"}],"outputs":[],"stateMutability":"nonpayable"},{"type":"function","name":"renounceOwnership","inputs":[],"outputs":[],"stateMutability":"nonpayable"},{"type":"function","name":"safeBatchTransferFrom","inputs":[{"name":"from","type":"address","internalType":"address"},{"name":"to","type":"address","internalType":"address"},{"name":"ids","type":"uint256[]","internalType":"uint256[]"},{"name":"values","type":"uint256[]","internalType":"uint256[]"},{"name":"data","type":"bytes","internalType":"bytes"}],"outputs":[],"stateMutability":"nonpayable"},{"type":"function","name":"safeTransferFrom","inputs":[{"name":"from","type":"address","internalType":"address"},{"name":"to","type":"address","internalType":"address"},{"name":"id","type":"uint256","internalType":"uint256"},{"name":"value","type":"uint256","internalType":"uint256"},{"name":"data","type":"bytes","internalType":"bytes"}],"outputs":[],"stateMutability":"nonpayable"},{"type":"function","name":"setApprovalForAll","inputs":[{"name":"operator","type":"address","internalType":"address"},{"name":"approved","type":"bool","internalType":"bool"}],"outputs":[],"stateMutability":"nonpayable"},{"type":"function","name":"setSmartWallet","inputs":[{"name":"_smartWallet","type":"address","internalType":"address"}],"outputs":[],"stateMutability":"nonpayable"},{"type":"function","name":"setTransferable","inputs":[{"name":"_transferable","type":"bool","internalType":"bool"}],"outputs":[],"stateMutability":"nonpayable"},{"type":"function","name":"setURI","inputs":[{"name":"newuri","type":"string","internalType":"string"}],"outputs":[],"stateMutability":"nonpayable"},{"type":"function","name":"stakeholders","inputs":[{"name":"","type":"uint256","internalType":"uint256"}],"outputs":[{"name":"wallet","type":"address","internalType":"address payable"},{"name":"feePercentage","type":"uint256","internalType":"uint256"}],"stateMutability":"view"},{"type":"function","name":"stakeholdersCounter","inputs":[],"outputs":[{"name":"","type":"uint256","internalType":"uint256"}],"stateMutability":"view"},{"type":"function","name":"stakeholdersLocked","inputs":[],"outputs":[{"name":"","type":"bool","internalType":"bool"}],"stateMutability":"view"},{"type":"function","name":"stringToAddress","inputs":[{"name":"_addressString","type":"string","internalType":"string"}],"outputs":[{"name":"","type":"address","internalType":"address"}],"stateMutability":"pure"},{"type":"function","name":"supportsInterface","inputs":[{"name":"interfaceId","type":"bytes4","internalType":"bytes4"}],"outputs":[{"name":"","type":"bool","internalType":"bool"}],"stateMutability":"view"},{"type":"function","name":"symbol","inputs":[],"outputs":[{"name":"","type":"string","internalType":"string"}],"stateMutability":"view"},{"type":"function","name":"tokenURI","inputs":[{"name":"_tokenId","type":"uint256","internalType":"uint256"}],"outputs":[{"name":"","type":"string","internalType":"string"}],"stateMutability":"view"},{"type":"function","name":"totalFeePercentage","inputs":[],"outputs":[{"name":"","type":"uint256","internalType":"uint256"}],"stateMutability":"view"},{"type":"function","name":"totalSupply","inputs":[],"outputs":[{"name":"","type":"uint256","internalType":"uint256"}],"stateMutability":"view"},{"type":"function","name":"totalSupply","inputs":[{"name":"id","type":"uint256","internalType":"uint256"}],"outputs":[{"name":"","type":"uint256","internalType":"uint256"}],"stateMutability":"view"},{"type":"function","name":"transferOwnership","inputs":[{"name":"newOwner","type":"address","internalType":"address"}],"outputs":[],"stateMutability":"nonpayable"},{"type":"function","name":"transferable","inputs":[],"outputs":[{"name":"","type":"bool","internalType":"bool"}],"stateMutability":"view"},{"type":"function","name":"updateStakeholder","inputs":[{"name":"_index","type":"uint256","internalType":"uint256"},{"name":"_feePercentage","type":"uint256","internalType":"uint256"}],"outputs":[],"stateMutability":"nonpayable"},{"type":"function","name":"updateSupply","inputs":[{"name":"_additionalSupply","type":"uint256","internalType":"uint256"}],"outputs":[],"stateMutability":"nonpayable"},{"type":"function","name":"updateWhitelist","inputs":[{"name":"_whitelistUpdates","type":"tuple[]","internalType":"struct Ticket.Whitelist[]","components":[{"name":"user","type":"address","internalType":"address"},{"name":"status","type":"bool","internalType":"bool"}]}],"outputs":[],"stateMutability":"nonpayable"},{"type":"function","name":"uri","inputs":[{"name":"","type":"uint256","internalType":"uint256"}],"outputs":[{"name":"","type":"string","internalType":"string"}],"stateMutability":"view"},{"type":"function","name":"userHasToken","inputs":[{"name":"user","type":"address","internalType":"address"},{"name":"tokenId","type":"uint256","internalType":"uint256"}],"outputs":[{"name":"","type":"bool","internalType":"bool"}],"stateMutability":"view"},{"type":"function","name":"verifyProofAndMint","inputs":[{"name":"proof","type":"tuple","internalType":"struct Proof","components":[{"name":"claimInfo","type":"tuple","internalType":"struct ClaimInfo","components":[{"name":"provider","type":"string","internalType":"string"},{"name":"parameters","type":"string","internalType":"string"},{"name":"context","type":"string","internalType":"string"}]},{"name":"signedClaim","type":"tuple","internalType":"struct SignedClaim","components":[{"name":"claim","type":"tuple","internalType":"struct Claim","components":[{"name":"identifier","type":"bytes32","internalType":"bytes32"},{"name":"owner","type":"address","internalType":"address"},{"name":"timestampS","type":"uint32","internalType":"uint32"},{"name":"epoch","type":"uint32","internalType":"uint32"}]},{"name":"signatures","type":"bytes[]","internalType":"bytes[]"}]}]}],"outputs":[],"stateMutability":"nonpayable"},{"type":"function","name":"whitelistOnly","inputs":[],"outputs":[{"name":"","type":"bool","internalType":"bool"}],"stateMutability":"view"},{"type":"event","name":"ApprovalForAll","inputs":[{"name":"account","type":"address","indexed":true,"internalType":"address"},{"name":"operator","type":"address","indexed":true,"internalType":"address"},{"name":"approved","type":"bool","indexed":false,"internalType":"bool"}],"anonymous":false},{"type":"event","name":"MintedFromProof","inputs":[{"name":"timestamp","type":"uint256","indexed":false,"internalType":"uint256"},{"name":"userSmartWalletAddress","type":"address","indexed":false,"internalType":"address"}],"anonymous":false},{"type":"event","name":"OwnershipTransferred","inputs":[{"name":"previousOwner","type":"address","indexed":true,"internalType":"address"},{"name":"newOwner","type":"address","indexed":true,"internalType":"address"}],"anonymous":false},{"type":"event","name":"SmartWalletUpdated","inputs":[{"name":"previousWallet","type":"address","indexed":true,"internalType":"address"},{"name":"newWallet","type":"address","indexed":true,"internalType":"address"}],"anonymous":false},{"type":"event","name":"StakeholderAdded","inputs":[{"name":"wallet","type":"address","indexed":false,"internalType":"address"},{"name":"feePercentage","type":"uint256","indexed":false,"internalType":"uint256"}],"anonymous":false},{"type":"event","name":"StakeholderRemoved","inputs":[{"name":"wallet","type":"address","indexed":false,"internalType":"address"}],"anonymous":false},{"type":"event","name":"StakeholderUpdated","inputs":[{"name":"wallet","type":"address","indexed":false,"internalType":"address"},{"name":"feePercentage","type":"uint256","indexed":false,"internalType":"uint256"}],"anonymous":false},{"type":"event","name":"StakeholdersLocked","inputs":[],"anonymous":false},{"type":"event","name":"SupplyUpdated","inputs":[{"name":"newSupply","type":"uint256","indexed":false,"internalType":"uint256"}],"anonymous":false},{"type":"event","name":"TransferBatch","inputs":[{"name":"operator","type":"address","indexed":true,"internalType":"address"},{"name":"from","type":"address","indexed":true,"internalType":"address"},{"name":"to","type":"address","indexed":true,"internalType":"address"},{"name":"ids","type":"uint256[]","indexed":false,"internalType":"uint256[]"},{"name":"values","type":"uint256[]","indexed":false,"internalType":"uint256[]"}],"anonymous":false},{"type":"event","name":"TransferSingle","inputs":[{"name":"operator","type":"address","indexed":true,"internalType":"address"},{"name":"from","type":"address","indexed":true,"internalType":"address"},{"name":"to","type":"address","indexed":true,"internalType":"address"},{"name":"id","type":"uint256","indexed":false,"internalType":"uint256"},{"name":"value","type":"uint256","indexed":false,"internalType":"uint256"}],"anonymous":false},{"type":"event","name":"URI","inputs":[{"name":"value","type":"string","indexed":false,"internalType":"string"},{"name":"id","type":"uint256","indexed":true,"internalType":"uint256"}],"anonymous":false},{"type":"error","name":"ERC1155InsufficientBalance","inputs":[{"name":"sender","type":"address","internalType":"address"},{"name":"balance","type":"uint256","internalType":"uint256"},{"name":"needed","type":"uint256","internalType":"uint256"},{"name":"tokenId","type":"uint256","internalType":"uint256"}]},{"type":"error","name":"ERC1155InvalidApprover","inputs":[{"name":"approver","type":"address","internalType":"address"}]},{"type":"error","name":"ERC1155InvalidArrayLength","inputs":[{"name":"idsLength","type":"uint256","internalType":"uint256"},{"name":"valuesLength","type":"uint256","internalType":"uint256"}]},{"type":"error","name":"ERC1155InvalidOperator","inputs":[{"name":"operator","type":"address","internalType":"address"}]},{"type":"error","name":"ERC1155InvalidReceiver","inputs":[{"name":"receiver","type":"address","internalType":"address"}]},{"type":"error","name":"ERC1155InvalidSender","inputs":[{"name":"sender","type":"address","internalType":"address"}]},{"type":"error","name":"ERC1155MissingApprovalForAll","inputs":[{"name":"operator","type":"address","internalType":"address"},{"name":"owner","type":"address","internalType":"address"}]},{"type":"error","name":"OwnableInvalidOwner","inputs":[{"name":"owner","type":"address","internalType":"address"}]},{"type":"error","name":"OwnableUnauthorizedAccount","inputs":[{"name":"account","type":"address","internalType":"address"}]}],"bytecode":{"object":"0x6080604052600160105560006011553480156200001b57600080fd5b5060405162004d6538038062004d658339810160408190526200003e91620007e9565b6060810151815160208301516080840151826001600160a01b0381166200008057604051631e4fbdf760e01b8152600060048201526024015b60405180910390fd5b6200008b81620002fb565b506001600160a01b038216620000e45760405162461bcd60e51b815260206004820152601660248201527f496e76616c69642077616c6c6574206164647265737300000000000000000000604482015260640162000077565b600180546001600160a01b0319166001600160a01b03841617905560026200010d8282620009fa565b5050505062000122816200034b60201b60201c565b508061012001518161010001511115620001895760405162461bcd60e51b815260206004820152602160248201527f496e697469616c20737570706c792065786365656473206d617820737570706c6044820152607960f81b606482015260840162000077565b6020810151600180546001600160a01b0319166001600160a01b039092169190911790556080810151600290620001c19082620009fa565b5060a0810151600b90620001d69082620009fa565b506040810151600880546001600160a01b03199081166001600160a01b039384161790915560c083015160098054831691909316908117909255600a8054909116909117905560e081015160115561010080820151600c819055610120830151600d55600e55610140820151600f805461016085015161ffff1990911692151561ff0019169290921791151590920217905560005b81610180015151811015620002eb57620002d6826101800151828151811062000298576200029862000ac6565b6020026020010151600001518361018001518381518110620002be57620002be62000ac6565b6020026020010151602001516200035d60201b60201c565b80620002e28162000af2565b9150506200026b565b5061018001515160195562000b2a565b600080546001600160a01b038381166001600160a01b0319831681178455604051919092169283917f8be0079c531659141344cd1fd0a4f28419497f9722a3daafe3b4186f6b6457e09190a35050565b6005620003598282620009fa565b5050565b6000811180156200037057506127108111155b620003be5760405162461bcd60e51b815260206004820152601660248201527f496e76616c6964206665652070657263656e7461676500000000000000000000604482015260640162000077565b61271081601754620003d1919062000b0e565b11156200042b5760405162461bcd60e51b815260206004820152602160248201527f546f74616c206665652070657263656e746167652065786365656473203130306044820152602560f81b606482015260840162000077565b60005b601654811015620004d757826001600160a01b03166016828154811062000459576200045962000ac6565b60009182526020909120600290910201546001600160a01b031603620004c25760405162461bcd60e51b815260206004820152601a60248201527f5374616b65686f6c64657220616c726561647920657869737473000000000000604482015260640162000077565b80620004ce8162000af2565b9150506200042e565b50604080518082019091526001600160a01b0383811682526020820183815260168054600181018255600091825293517fd833147d7dc355ba459fc788f669e58cfaf9dc25ddcd0702e87d69c7b5124289600290950294850180546001600160a01b0319169190941617909255517fd833147d7dc355ba459fc788f669e58cfaf9dc25ddcd0702e87d69c7b512428a90920191909155601780548392906200058190849062000b0e565b9091555050604080516001600160a01b0384168152602081018390527f120bfdd311a35c23d43060f2ed5044e464ade4940f2f49f164ab6e0b32eb8336910160405180910390a15050565b634e487b7160e01b600052604160045260246000fd5b604080519081016001600160401b0381118282101715620006075762000607620005cc565b60405290565b6040516101a081016001600160401b0381118282101715620006075762000607620005cc565b604051601f8201601f191681016001600160401b03811182821017156200065e576200065e620005cc565b604052919050565b6001600160a01b03811681146200067c57600080fd5b50565b80516200068c8162000666565b919050565b600082601f830112620006a357600080fd5b81516001600160401b03811115620006bf57620006bf620005cc565b6020620006d5601f8301601f1916820162000633565b8281528582848701011115620006ea57600080fd5b60005b838110156200070a578581018301518282018401528201620006ed565b506000928101909101919091529392505050565b805180151581146200068c57600080fd5b600082601f8301126200074157600080fd5b815160206001600160401b038211156200075f576200075f620005cc565b6200076f818360051b0162000633565b82815260069290921b840181019181810190868411156200078f57600080fd5b8286015b84811015620007de5760408189031215620007ae5760008081fd5b620007b8620005e2565b8151620007c58162000666565b8152818501518582015283529183019160400162000793565b509695505050505050565b600060208284031215620007fc57600080fd5b81516001600160401b03808211156200081457600080fd5b908301906101a082860312156200082a57600080fd5b620008346200060d565b6200083f836200067f565b81526200084f602084016200067f565b602082015262000862604084016200067f565b60408201526060830151828111156200087a57600080fd5b620008888782860162000691565b606083015250608083015182811115620008a157600080fd5b620008af8782860162000691565b60808301525060a083015182811115620008c857600080fd5b620008d68782860162000691565b60a083015250620008ea60c084016200067f565b60c082015260e08381015190820152610100808401519082015261012080840151908201526101406200091f8185016200071e565b90820152610160620009338482016200071e565b9082015261018083810151838111156200094c57600080fd5b6200095a888287016200072f565b918301919091525095945050505050565b600181811c908216806200098057607f821691505b602082108103620009a157634e487b7160e01b600052602260045260246000fd5b50919050565b601f821115620009f557600081815260208120601f850160051c81016020861015620009d05750805b601f850160051c820191505b81811015620009f157828155600101620009dc565b5050505b505050565b81516001600160401b0381111562000a165762000a16620005cc565b62000a2e8162000a2784546200096b565b84620009a7565b602080601f83116001811462000a66576000841562000a4d5750858301515b600019600386901b1c1916600185901b178555620009f1565b600085815260208120601f198616915b8281101562000a975788860151825594840194600190910190840162000a76565b508582101562000ab65787850151600019600388901b60f8161c191681555b5050505050600190811b01905550565b634e487b7160e01b600052603260045260246000fd5b634e487b7160e01b600052601160045260246000fd5b60006001820162000b075762000b0762000adc565b5060010190565b8082018082111562000b245762000b2462000adc565b92915050565b61422b8062000b3a6000396000f3fe608060405234801561001057600080fd5b50600436106102f05760003560e01c80636d4ce63c1161019d578063acea082b116100e9578063cf724bc9116100a2578063f242432a1161007c578063f242432a14610695578063f2fde38b146106a8578063f5298aca146106bb578063fad56779146106ce57600080fd5b8063cf724bc914610666578063d5abeb0114610679578063e985e9c51461068257600080fd5b8063acea082b146105f7578063bbedb38e14610600578063bcd2d97714610613578063bd85b03914610620578063c64c8cfa14610640578063c87b56dd1461065357600080fd5b80638da5cb5b116101565780639aec312e116101305780639aec312e146105b55780639cd23707146105c8578063a035b1fe146105db578063a22cb465146105e457600080fd5b80638da5cb5b1461058f57806392ff0d31146105a057806395d89b41146105ad57600080fd5b80636d4ce63c14610547578063715018a61461054f57806375794a3c14610557578063771282f61461056057806380370075146105695780638a13eea71461057c57600080fd5b806320ced1051161025c5780633af32abf116102155780634f558e79116101ef5780634f558e79146104ec57806354f2a4d31461050e5780636b20c454146105215780636bd080491461053457600080fd5b80633af32abf146104975780634b4687b5146104ba5780634e1273f4146104cc57600080fd5b806320ced105146104225780632687f0f014610442578063276184ae146104555780632eb2c2d6146104685780633755667e1461047b578063378dc3dc1461048e57600080fd5b80630e89341c116102ae5780630e89341c1461038e57806315706fdf146103a157806318160ddd146103cc5780631a478174146103d45780631c378573146103dd5780631d6b8b72146103f057600080fd5b8062fdd58e146102f557806301ffc9a71461031b57806302fe53051461033e57806306fdde031461035357806307788c7c146103685780630ab464f01461037b575b600080fd5b610308610303366004613223565b6106e1565b6040519081526020015b60405180910390f35b61032e610329366004613265565b61070b565b6040519015158152602001610312565b61035161034c366004613381565b61075b565b005b61035b61076f565b604051610312919061340d565b6103516103763660046135aa565b6107fd565b61032e610389366004613223565b61096e565b61035b61039c3660046136ae565b610997565b6103b46103af366004613381565b610a2b565b6040516001600160a01b039091168152602001610312565b600754610308565b61030860175481565b6103516103eb3660046136c7565b610b2a565b6104036103fe3660046136ae565b610c04565b604080516001600160a01b039093168352602083019190915201610312565b610435610430366004613785565b610c3c565b60405161031291906137a7565b6103516104503660046137f4565b610d18565b6009546103b4906001600160a01b031681565b61035161047636600461386c565b610dc8565b61035b610489366004613919565b610e2f565b610308600c5481565b61032e6104a53660046137f4565b60156020526000908152604090205460ff1681565b600f5461032e90610100900460ff1681565b6104df6104da36600461397c565b6110f3565b6040516103129190613a6e565b61032e6104fa3660046136ae565b600090815260066020526040902054151590565b61035161051c366004613a8f565b6111c7565b61035161052f366004613b4c565b61123f565b6103516105423660046136ae565b6112a3565b61035161134f565b610351611859565b61030860105481565b610308600e5481565b6104df6105773660046137f4565b61186d565b600a546103b4906001600160a01b031681565b6000546001600160a01b03166103b4565b600f5461032e9060ff1681565b61035b611891565b6103516105c3366004613223565b61189e565b6103516105d6366004613bc1565b6118d3565b61030860115481565b6103516105f2366004613bde565b6118ee565b61030860195481565b6001546103b4906001600160a01b031681565b60185461032e9060ff1681565b61030861062e3660046136ae565b60009081526006602052604090205490565b61035161064e366004613785565b6118f9565b61035b6106613660046136ae565b611ade565b6103516106743660046136ae565b611b19565b610308600d5481565b61032e610690366004613c17565b611ce3565b6103516106a3366004613c45565b611d11565b6103516106b63660046137f4565b611d70565b6103516106c9366004613cad565b611dab565b6008546103b4906001600160a01b031681565b60008181526003602090815260408083206001600160a01b03861684529091529020545b92915050565b60006001600160e01b03198216636cdb3d1360e11b148061073c57506001600160e01b031982166303a24d0760e21b145b8061070557506301ffc9a760e01b6001600160e01b0319831614610705565b610763611de1565b61076c81611e3c565b50565b6002805461077c90613ce2565b80601f01602080910402602001604051908101604052809291908181526020018280546107a890613ce2565b80156107f55780601f106107ca576101008083540402835291602001916107f5565b820191906000526020600020905b8154815290600101906020018083116107d857829003601f168201915b505050505081565b6040516354b0734f60e11b815273f90085f5fd1a3beb8678623409b3811ecec5f6a59063a960e69e90610834908490600401613d1c565b60006040518083038186803b15801561084c57600080fd5b505afa92505050801561085d575060015b6108ae5760405162461bcd60e51b815260206004820152601960248201527f50726f6f6620766572696669636174696f6e206661696c65640000000000000060448201526064015b60405180910390fd5b6000816000015160400151905060006108fc826040518060400160405280601a81526020017f2275736572536d61727457616c6c657441646472657373223a22000000000000815250610e2f565b9050600061090982610a2b565b905061091481611e48565b61091e6001611ebc565b61092781611f5b565b604080514281526001600160a01b03831660208201527f2a208a0d1a3d0f69ebadc7864c5373c3d8a12457918782e4bb27fd98f172c735910160405180910390a150505050565b6001600160a01b03821660009081526012602052604081206109909083611fe2565b9392505050565b6060600580546109a690613ce2565b80601f01602080910402602001604051908101604052809291908181526020018280546109d290613ce2565b8015610a1f5780601f106109f457610100808354040283529160200191610a1f565b820191906000526020600020905b815481529060010190602001808311610a0257829003601f168201915b50505050509050919050565b80516000908290602a14610a7a5760405162461bcd60e51b8152602060048201526016602482015275092dcecc2d8d2c840c2c8c8e4cae6e640d8cadccee8d60531b60448201526064016108a5565b80600081518110610a8d57610a8d613e31565b6020910101516001600160f81b031916600360fc1b148015610ad4575080600181518110610abd57610abd613e31565b6020910101516001600160f81b031916600f60fb1b145b610b205760405162461bcd60e51b815260206004820152601a60248201527f41646472657373206d757374207374617274207769746820307800000000000060448201526064016108a5565b6020015192915050565b610b32611de1565b6000805b8251811015610b8f576000838281518110610b5357610b53613e31565b60200260200101519050610b6a8160000151611e48565b6020810151610b799084613e5d565b9250508080610b8790613e70565b915050610b36565b50610b9981611ebc565b60005b8251811015610be8576000838281518110610bb957610bb9613e31565b60200260200101519050610bd581600001518260200151611ffa565b5080610be081613e70565b915050610b9c565b5080600e6000828254610bfb9190613e89565b90915550505050565b60168181548110610c1457600080fd5b6000918252602090912060029091020180546001909101546001600160a01b03909116915082565b60606000610c4a601361206f565b90506000610c588486613e5d565b905081811115610c655750805b6000610c718683613e89565b6001600160401b03811115610c8857610c88613282565b604051908082528060200260200182016040528015610cb1578160200160208202803683370190505b509050855b82811015610d0e57610cc9601382612079565b82610cd48984613e89565b81518110610ce457610ce4613e31565b6001600160a01b039092166020928302919091019091015280610d0681613e70565b915050610cb6565b5095945050505050565b610d20611de1565b6001600160a01b038116610d765760405162461bcd60e51b815260206004820152601c60248201527f496e76616c696420736d6172742077616c6c657420616464726573730000000060448201526064016108a5565b600180546001600160a01b038381166001600160a01b0319831681179093556040519116919082907ff7b9883f256cf768ad054d3cfc455603983f3e2d2635d9dbe1a7f6f6546ca83a90600090a35050565b336001600160a01b0386168114801590610de95750610de78682611ce3565b155b15610e1a5760405163711bec9160e11b81526001600160a01b038083166004830152871660248201526044016108a5565b610e278686868686612085565b505050505050565b80518251606091849184911115610e885760405162461bcd60e51b815260206004820152601a60248201527f746172676574206973206c6f6e676572207468616e206461746100000000000060448201526064016108a5565b60008060005b83518551610e9c9190613e89565b8111610f5257600160005b855181108015610eb45750815b15610f2057858181518110610ecb57610ecb613e31565b01602001516001600160f81b03191687610ee58386613e5d565b81518110610ef557610ef5613e31565b01602001516001600160f81b03191614610f0e57600091505b80610f1881613e70565b915050610ea7565b508015610f3f578451610f339083613e5d565b93506001925050610f52565b5080610f4a81613e70565b915050610e8e565b5080610f735760405180602001604052806000815250945050505050610705565b815b845181108015610fed5750848181518110610f9257610f92613e31565b6020910101516001600160f81b031916601160f91b148015610feb5750801580610feb575084610fc3600183613e89565b81518110610fd357610fd3613e31565b6020910101516001600160f81b031916601760fa1b14155b155b156110045780610ffc81613e70565b915050610f75565b828111611027576040518060200160405280600081525095505050505050610705565b60006110338483613e89565b6001600160401b0381111561104a5761104a613282565b6040519080825280601f01601f191660200182016040528015611074576020820181803683370190505b509050835b828110156110e65786818151811061109357611093613e31565b01602001516001600160f81b031916826110ad8784613e89565b815181106110bd576110bd613e31565b60200101906001600160f81b031916908160001a905350806110de81613e70565b915050611079565b5098975050505050505050565b606081518351146111245781518351604051635b05999160e01b8152600481019290925260248201526044016108a5565b600083516001600160401b0381111561113f5761113f613282565b604051908082528060200260200182016040528015611168578160200160208202803683370190505b50905060005b84518110156111bf57602080820286010151611192906020808402870101516106e1565b8282815181106111a4576111a4613e31565b60209081029190910101526111b881613e70565b905061116e565b509392505050565b6111cf611de1565b60005b815181101561123b5760008282815181106111ef576111ef613e31565b6020908102919091018101518082015190516001600160a01b0316600090815260159092526040909120805460ff1916911515919091179055508061123381613e70565b9150506111d2565b5050565b6001600160a01b038316331480159061125f575061125d8333611ce3565b155b1561129357335b60405163711bec9160e11b81526001600160a01b03918216600482015290841660248201526044016108a5565b61129e8383836120ec565b505050565b6112ab611de1565b600d5481600e546112bc9190613e5d565b11156112ff5760405162461bcd60e51b815260206004820152601260248201527145786365656473206d617820737570706c7960701b60448201526064016108a5565b600081600e5461130f9190613e5d565b600e8190556040518181529091507fea4bfee7f9fb38136c61cc04b6e56efc93eaf1beef326dbc47495b358385914c906020015b60405180910390a15050565b60185460ff1615801561136457506001601054115b156113a0576018805460ff191660011790556040517f99f45970703817be58e8c9055b26d154559e46611c4ad7f5e361dd5077e19ec290600090a15b6113a933611e48565b6113b36001611ebc565b6011546000036113cb576113c633611f5b565b611842565b600a546040516370a0823160e01b81523360048201526000916001600160a01b0316906370a0823190602401602060405180830381865afa158015611414573d6000803e3d6000fd5b505050506040513d601f19601f820116820180604052508101906114389190613e9c565b90506011548110156114835760405162461bcd60e51b8152602060048201526014602482015273496e73756666696369656e742062616c616e636560601b60448201526064016108a5565b600a54604051636eb1769f60e11b81523360048201523060248201526000916001600160a01b03169063dd62ed3e90604401602060405180830381865afa1580156114d2573d6000803e3d6000fd5b505050506040513d601f19601f820116820180604052508101906114f69190613e9c565b90506011548110156115435760405162461bcd60e51b8152602060048201526016602482015275496e73756666696369656e7420616c6c6f77616e636560501b60448201526064016108a5565b600a546011546040516323b872dd60e01b815233600482015230602482015260448101919091526001600160a01b03909116906323b872dd906064016020604051808303816000875af115801561159e573d6000803e3d6000fd5b505050506040513d601f19601f820116820180604052508101906115c29190613eb5565b6116005760405162461bcd60e51b815260206004820152600f60248201526e151c985b9cd9995c8819985a5b1959608a1b60448201526064016108a5565b60115460005b6016548110156117715760006127106016838154811061162857611628613e31565b9060005260206000209060020201600101546011546116479190613ed2565b6116519190613ee9565b9050801561175e57600a54601680546001600160a01b039092169163a9059cbb91908590811061168357611683613e31565b600091825260209091206002909102015460405160e083901b6001600160e01b03191681526001600160a01b039091166004820152602481018490526044016020604051808303816000875af11580156116e1573d6000803e3d6000fd5b505050506040513d601f19601f820116820180604052508101906117059190613eb5565b6117515760405162461bcd60e51b815260206004820152601f60248201527f5374616b65686f6c64657220666565207472616e73666572206661696c65640060448201526064016108a5565b61175b8184613e89565b92505b508061176981613e70565b915050611606565b50801561183557600a5460015460405163a9059cbb60e01b81526001600160a01b0391821660048201526024810184905291169063a9059cbb906044016020604051808303816000875af11580156117cd573d6000803e3d6000fd5b505050506040513d601f19601f820116820180604052508101906117f19190613eb5565b6118355760405162461bcd60e51b815260206004820152601560248201527413dddb995c881d1c985b9cd9995c8819985a5b1959605a1b60448201526064016108a5565b61183e33611f5b565b5050505b6010805490600061185283613e70565b9190505550565b611861611de1565b61186b6000612132565b565b6001600160a01b038116600090815260126020526040902060609061070590612182565b600b805461077c90613ce2565b6118a6611de1565b60185460ff16156118c95760405162461bcd60e51b81526004016108a590613f0b565b61123b828261218f565b6118db611de1565b600f805460ff1916911515919091179055565b61123b3383836123a4565b611901611de1565b60185460ff16156119245760405162461bcd60e51b81526004016108a590613f0b565b60165482106119715760405162461bcd60e51b8152602060048201526019602482015278092dcecc2d8d2c840e6e8c2d6cad0ded8c8cae440d2dcc8caf603b1b60448201526064016108a5565b60008111801561198357506127108111155b6119c85760405162461bcd60e51b8152602060048201526016602482015275496e76616c6964206665652070657263656e7461676560501b60448201526064016108a5565b6000601683815481106119dd576119dd613e31565b90600052602060002090600202016001015490506127108282601754611a039190613e89565b611a0d9190613e5d565b1115611a2b5760405162461bcd60e51b81526004016108a590613f42565b8160168481548110611a3f57611a3f613e31565b9060005260206000209060020201600101819055508181601754611a639190613e89565b611a6d9190613e5d565b6017819055507f7a610a8f84e2f81e52d1bab080e29d1299c78e5982147fc2c39516e9770c1f4560168481548110611aa757611aa7613e31565b600091825260209182902060029091020154604080516001600160a01b0390921682529181018590520160405180910390a1505050565b6060611ae982610997565b611af28361243a565b604051602001611b03929190613f83565b6040516020818303038152906040529050919050565b611b21611de1565b60185460ff1615611b445760405162461bcd60e51b81526004016108a590613f0b565b6016548110611b915760405162461bcd60e51b8152602060048201526019602482015278092dcecc2d8d2c840e6e8c2d6cad0ded8c8cae440d2dcc8caf603b1b60448201526064016108a5565b60168181548110611ba457611ba4613e31565b90600052602060002090600202016001015460176000828254611bc79190613e89565b925050819055507f8d36e95af41e9d50e4ca435702a0e868f35b4f71c1e390a2acc6c5c5651ef28b60168281548110611c0257611c02613e31565b6000918252602091829020600290910201546040516001600160a01b0390911681520160405180910390a160168054611c3d90600190613e89565b81548110611c4d57611c4d613e31565b906000526020600020906002020160168281548110611c6e57611c6e613e31565b60009182526020909120825460029092020180546001600160a01b0319166001600160a01b039092169190911781556001918201549101556016805480611cb757611cb7613fb2565b60008281526020812060026000199093019283020180546001600160a01b031916815560010155905550565b6001600160a01b03918216600090815260046020908152604080832093909416825291909152205460ff1690565b336001600160a01b0386168114801590611d325750611d308682611ce3565b155b15611d635760405163711bec9160e11b81526001600160a01b038083166004830152871660248201526044016108a5565b610e2786868686866124cc565b611d78611de1565b6001600160a01b038116611da257604051631e4fbdf760e01b8152600060048201526024016108a5565b61076c81612132565b6001600160a01b0383163314801590611dcb5750611dc98333611ce3565b155b15611dd65733611266565b61129e83838361255a565b6000546001600160a01b0316331480611e0457506001546001600160a01b031633145b61186b5760405162461bcd60e51b81526020600482015260096024820152682737ba1037bbb732b960b91b60448201526064016108a5565b600561123b828261400e565b600f54610100900460ff161561076c576001600160a01b03811660009081526015602052604090205460ff1661076c5760405162461bcd60e51b8152602060048201526019602482015278149958da5c1a595b9d081b9bdd081dda1a5d195b1a5cdd1959603a1b60448201526064016108a5565b80600e541015611f075760405162461bcd60e51b8152602060048201526016602482015275457863656564732063757272656e7420737570706c7960501b60448201526064016108a5565b600d5481600e54611f189190613e5d565b111561076c5760405162461bcd60e51b815260206004820152601260248201527145786365656473206d617820737570706c7960701b60448201526064016108a5565b60185460ff16158015611f7057506001601054115b15611fac576018805460ff191660011790556040517f99f45970703817be58e8c9055b26d154559e46611c4ad7f5e361dd5077e19ec290600090a15b611fca816010546001604051806020016040528060008152506125c2565b60108054906000611fda83613e70565b919050555050565b60008181526001830160205260408120541515610990565b60005b8181101561129e5761200e83611f5b565b61205d6040518060400160405280600f81526020016e135a5b9d1959081d1bdad95b881251608a1b81525060105460405180604001604052806002815260200161746f60f01b8152508661261f565b8061206781613e70565b915050611ffd565b6000610705825490565b6000610990838361266e565b6001600160a01b0384166120af57604051632bfa23e760e11b8152600060048201526024016108a5565b6001600160a01b0385166120d857604051626a0d4560e21b8152600060048201526024016108a5565b6120e58585858585612698565b5050505050565b6001600160a01b03831661211557604051626a0d4560e21b8152600060048201526024016108a5565b61129e836000848460405180602001604052806000815250612698565b600080546001600160a01b038381166001600160a01b0319831681178455604051919092169283917f8be0079c531659141344cd1fd0a4f28419497f9722a3daafe3b4186f6b6457e09190a35050565b60606000610990836126eb565b6000811180156121a157506127108111155b6121e65760405162461bcd60e51b8152602060048201526016602482015275496e76616c6964206665652070657263656e7461676560501b60448201526064016108a5565b612710816017546121f79190613e5d565b11156122155760405162461bcd60e51b81526004016108a590613f42565b60005b6016548110156122b857826001600160a01b03166016828154811061223f5761223f613e31565b60009182526020909120600290910201546001600160a01b0316036122a65760405162461bcd60e51b815260206004820152601a60248201527f5374616b65686f6c64657220616c72656164792065786973747300000000000060448201526064016108a5565b806122b081613e70565b915050612218565b50604080518082019091526001600160a01b0383811682526020820183815260168054600181018255600091825293517fd833147d7dc355ba459fc788f669e58cfaf9dc25ddcd0702e87d69c7b5124289600290950294850180546001600160a01b0319169190941617909255517fd833147d7dc355ba459fc788f669e58cfaf9dc25ddcd0702e87d69c7b512428a9092019190915560178054839290612360908490613e5d565b9091555050604080516001600160a01b0384168152602081018390527f120bfdd311a35c23d43060f2ed5044e464ade4940f2f49f164ab6e0b32eb83369101611343565b6001600160a01b0382166123cd5760405162ced3e160e81b8152600060048201526024016108a5565b6001600160a01b03838116600081815260046020908152604080832094871680845294825291829020805460ff191686151590811790915591519182527f17307eab39ab6107e8899845ad3d59bd9653f200f220920489ca2b5937696c31910160405180910390a3505050565b6060600061244783612746565b60010190506000816001600160401b0381111561246657612466613282565b6040519080825280601f01601f191660200182016040528015612490576020820181803683370190505b5090508181016020015b600019016f181899199a1a9b1b9c1cb0b131b232b360811b600a86061a8153600a850494508461249a57509392505050565b6001600160a01b0384166124f657604051632bfa23e760e11b8152600060048201526024016108a5565b6001600160a01b03851661251f57604051626a0d4560e21b8152600060048201526024016108a5565b604080516001808252602082018690528183019081526060820185905260808201909252906125518787848487612698565b50505050505050565b6001600160a01b03831661258357604051626a0d4560e21b8152600060048201526024016108a5565b604080516001808252602082018590528183019081526060820184905260a082019092526000608082018181529192916120e591879185908590612698565b6001600160a01b0384166125ec57604051632bfa23e760e11b8152600060048201526024016108a5565b60408051600180825260208201869052818301908152606082018590526080820190925290610e27600087848487612698565b6126688484848460405160240161263994939291906140cd565b60408051601f198184030181529190526020810180516001600160e01b0316631f118ca960e21b17905261281e565b50505050565b600082600001828154811061268557612685613e31565b9060005260206000200154905092915050565b6126a485858585612827565b6001600160a01b038416156120e557825133906001036126dd57602084810151908401516126d6838989858589612adf565b5050610e27565b610e27818787878787612c03565b606081600001805480602002602001604051908101604052809291908181526020018280548015610a1f57602002820191906000526020600020905b8154815260200190600101908083116127275750505050509050919050565b60008072184f03e93ff9f4daa797ed6e38ed64bf6a1f0160401b83106127855772184f03e93ff9f4daa797ed6e38ed64bf6a1f0160401b830492506040015b6d04ee2d6d415b85acef810000000083106127b1576d04ee2d6d415b85acef8100000000830492506020015b662386f26fc1000083106127cf57662386f26fc10000830492506010015b6305f5e10083106127e7576305f5e100830492506008015b61271083106127fb57612710830492506004015b6064831061280d576064830492506002015b600a83106107055760010192915050565b61076c81612cec565b61283384848484612d0d565b60005b825181101561299f57600082828151811061285357612853613e31565b6020026020010151111561298d576001600160a01b03851615612920576128938584838151811061288657612886613e31565b60200260200101516106e1565b600003612920576128ea8382815181106128af576128af613e31565b602002602001015160126000886001600160a01b03166001600160a01b03168152602001908152602001600020612e6790919063ffffffff16565b506001600160a01b038516600090815260126020526040902061290c9061206f565b6000036129205761291e601386612e73565b505b6001600160a01b0384161561298d5761297f83828151811061294457612944613e31565b602002602001015160126000876001600160a01b03166001600160a01b03168152602001908152602001600020612e8890919063ffffffff16565b5061298b601385612e94565b505b8061299781613e70565b915050612836565b506001600160a01b03841615806129bd57506001600160a01b038316155b61266857600f5460ff16612a135760405162461bcd60e51b815260206004820152601960248201527f5472616e736665727320617265206e6f7420616c6c6f7765640000000000000060448201526064016108a5565b600f54610100900460ff1615612668573360009081526015602052604090205460ff16612a7b5760405162461bcd60e51b815260206004820152601660248201527514d95b99195c881b9bdd081dda1a5d195b1a5cdd195960521b60448201526064016108a5565b6001600160a01b03831660009081526015602052604090205460ff166126685760405162461bcd60e51b8152602060048201526019602482015278149958da5c1a595b9d081b9bdd081dda1a5d195b1a5cdd1959603a1b60448201526064016108a5565b6001600160a01b0384163b15610e275760405163f23a6e6160e01b81526001600160a01b0385169063f23a6e6190612b239089908990889088908890600401614112565b6020604051808303816000875af1925050508015612b5e575060408051601f3d908101601f19168201909252612b5b9181019061414c565b60015b612bc7573d808015612b8c576040519150601f19603f3d011682016040523d82523d6000602084013e612b91565b606091505b508051600003612bbf57604051632bfa23e760e11b81526001600160a01b03861660048201526024016108a5565b805181602001fd5b6001600160e01b0319811663f23a6e6160e01b1461255157604051632bfa23e760e11b81526001600160a01b03861660048201526024016108a5565b6001600160a01b0384163b15610e275760405163bc197c8160e01b81526001600160a01b0385169063bc197c8190612c479089908990889088908890600401614169565b6020604051808303816000875af1925050508015612c82575060408051601f3d908101601f19168201909252612c7f9181019061414c565b60015b612cb0573d808015612b8c576040519150601f19603f3d011682016040523d82523d6000602084013e612b91565b6001600160e01b0319811663bc197c8160e01b1461255157604051632bfa23e760e11b81526001600160a01b03861660048201526024016108a5565b60006a636f6e736f6c652e6c6f679050600080835160208501845afa505050565b612d1984848484612ea9565b6001600160a01b038416612dcc576000805b8351811015612db2576000838281518110612d4857612d48613e31565b602002602001015190508060066000878581518110612d6957612d69613e31565b602002602001015181526020019081526020016000206000828254612d8e9190613e5d565b90915550612d9e90508184613e5d565b92505080612dab90613e70565b9050612d2b565b508060076000828254612dc59190613e5d565b9091555050505b6001600160a01b038316612668576000805b8351811015612e56576000838281518110612dfb57612dfb613e31565b602002602001015190508060066000878581518110612e1c57612e1c613e31565b602002602001015181526020019081526020016000206000828254039250508190555080830192505080612e4f90613e70565b9050612dde565b506007805491909103905550505050565b600061099083836130cc565b6000610990836001600160a01b0384166130cc565b600061099083836131bf565b6000610990836001600160a01b0384166131bf565b8051825114612ed85781518151604051635b05999160e01b8152600481019290925260248201526044016108a5565b3360005b8351811015612fed576020818102858101820151908501909101516001600160a01b03881615612f935760008281526003602090815260408083206001600160a01b038c16845290915290205481811015612f6a576040516303dee4c560e01b81526001600160a01b038a1660048201526024810182905260448101839052606481018490526084016108a5565b60008381526003602090815260408083206001600160a01b038d16845290915290209082900390555b6001600160a01b03871615612fda5760008281526003602090815260408083206001600160a01b038b16845290915281208054839290612fd4908490613e5d565b90915550505b505080612fe690613e70565b9050612edc565b50825160010361306e5760208301516000906020840151909150856001600160a01b0316876001600160a01b0316846001600160a01b03167fc3d58168c5ae7397731d063d5bbf3d657854427343f4c083240f7aacaa2d0f62858560405161305f929190918252602082015260400190565b60405180910390a450506120e5565b836001600160a01b0316856001600160a01b0316826001600160a01b03167f4a39dc06d4c0dbc64b70af90fd698a233a518aa5d07e595d983b8c0526c8f7fb86866040516130bd9291906141c7565b60405180910390a45050505050565b600081815260018301602052604081205480156131b55760006130f0600183613e89565b855490915060009061310490600190613e89565b905080821461316957600086600001828154811061312457613124613e31565b906000526020600020015490508087600001848154811061314757613147613e31565b6000918252602080832090910192909255918252600188019052604090208390555b855486908061317a5761317a613fb2565b600190038181906000526020600020016000905590558560010160008681526020019081526020016000206000905560019350505050610705565b6000915050610705565b600081815260018301602052604081205461320657508154600181810184556000848152602080822090930184905584548482528286019093526040902091909155610705565b506000610705565b6001600160a01b038116811461076c57600080fd5b6000806040838503121561323657600080fd5b82356132418161320e565b946020939093013593505050565b6001600160e01b03198116811461076c57600080fd5b60006020828403121561327757600080fd5b81356109908161324f565b634e487b7160e01b600052604160045260246000fd5b604080519081016001600160401b03811182821017156132ba576132ba613282565b60405290565b604051606081016001600160401b03811182821017156132ba576132ba613282565b604051601f8201601f191681016001600160401b038111828210171561330a5761330a613282565b604052919050565b600082601f83011261332357600080fd5b81356001600160401b0381111561333c5761333c613282565b61334f601f8201601f19166020016132e2565b81815284602083860101111561336457600080fd5b816020850160208301376000918101602001919091529392505050565b60006020828403121561339357600080fd5b81356001600160401b038111156133a957600080fd5b6133b584828501613312565b949350505050565b60005b838110156133d85781810151838201526020016133c0565b50506000910152565b600081518084526133f98160208601602086016133bd565b601f01601f19169290920160200192915050565b60208152600061099060208301846133e1565b803563ffffffff8116811461343457600080fd5b919050565b60006001600160401b0382111561345257613452613282565b5060051b60200190565b600082601f83011261346d57600080fd5b8135602061348261347d83613439565b6132e2565b82815260059290921b840181019181810190868411156134a157600080fd5b8286015b848110156134e05780356001600160401b038111156134c45760008081fd5b6134d28986838b0101613312565b8452509183019183016134a5565b509695505050505050565b600081830360a08112156134fe57600080fd5b613506613298565b9150608081121561351657600080fd5b50604051608081016001600160401b03828210818311171561353a5761353a613282565b8160405284358352602085013591506135528261320e565b81602084015261356460408601613420565b604084015261357560608601613420565b60608401529183526080840135918083111561359057600080fd5b505061359e8482850161345c565b60208301525092915050565b6000602082840312156135bc57600080fd5b81356001600160401b03808211156135d357600080fd5b90830190604082860312156135e757600080fd5b6135ef613298565b8235828111156135fe57600080fd5b83016060818803121561361057600080fd5b6136186132c0565b81358481111561362757600080fd5b61363389828501613312565b82525060208201358481111561364857600080fd5b61365489828501613312565b60208301525060408201358481111561366c57600080fd5b61367889828501613312565b60408301525082525060208301358281111561369357600080fd5b61369f878286016134eb565b60208301525095945050505050565b6000602082840312156136c057600080fd5b5035919050565b600060208083850312156136da57600080fd5b82356001600160401b038111156136f057600080fd5b8301601f8101851361370157600080fd5b803561370f61347d82613439565b81815260069190911b8201830190838101908783111561372e57600080fd5b928401925b8284101561377a576040848903121561374c5760008081fd5b613754613298565b843561375f8161320e565b81528486013586820152825260409093019290840190613733565b979650505050505050565b6000806040838503121561379857600080fd5b50508035926020909101359150565b6020808252825182820181905260009190848201906040850190845b818110156137e85783516001600160a01b0316835292840192918401916001016137c3565b50909695505050505050565b60006020828403121561380657600080fd5b81356109908161320e565b600082601f83011261382257600080fd5b8135602061383261347d83613439565b82815260059290921b8401810191818101908684111561385157600080fd5b8286015b848110156134e05780358352918301918301613855565b600080600080600060a0868803121561388457600080fd5b853561388f8161320e565b9450602086013561389f8161320e565b935060408601356001600160401b03808211156138bb57600080fd5b6138c789838a01613811565b945060608801359150808211156138dd57600080fd5b6138e989838a01613811565b935060808801359150808211156138ff57600080fd5b5061390c88828901613312565b9150509295509295909350565b6000806040838503121561392c57600080fd5b82356001600160401b038082111561394357600080fd5b61394f86838701613312565b9350602085013591508082111561396557600080fd5b5061397285828601613312565b9150509250929050565b6000806040838503121561398f57600080fd5b82356001600160401b03808211156139a657600080fd5b818501915085601f8301126139ba57600080fd5b813560206139ca61347d83613439565b82815260059290921b840181019181810190898411156139e957600080fd5b948201945b83861015613a10578535613a018161320e565b825294820194908201906139ee565b96505086013592505080821115613a2657600080fd5b5061397285828601613811565b600081518084526020808501945080840160005b83811015613a6357815187529582019590820190600101613a47565b509495945050505050565b6020815260006109906020830184613a33565b801515811461076c57600080fd5b60006020808385031215613aa257600080fd5b82356001600160401b03811115613ab857600080fd5b8301601f81018513613ac957600080fd5b8035613ad761347d82613439565b81815260069190911b82018301908381019087831115613af657600080fd5b928401925b8284101561377a5760408489031215613b145760008081fd5b613b1c613298565b8435613b278161320e565b815284860135613b3681613a81565b8187015282526040939093019290840190613afb565b600080600060608486031215613b6157600080fd5b8335613b6c8161320e565b925060208401356001600160401b0380821115613b8857600080fd5b613b9487838801613811565b93506040860135915080821115613baa57600080fd5b50613bb786828701613811565b9150509250925092565b600060208284031215613bd357600080fd5b813561099081613a81565b60008060408385031215613bf157600080fd5b8235613bfc8161320e565b91506020830135613c0c81613a81565b809150509250929050565b60008060408385031215613c2a57600080fd5b8235613c358161320e565b91506020830135613c0c8161320e565b600080600080600060a08688031215613c5d57600080fd5b8535613c688161320e565b94506020860135613c788161320e565b9350604086013592506060860135915060808601356001600160401b03811115613ca157600080fd5b61390c88828901613312565b600080600060608486031215613cc257600080fd5b8335613ccd8161320e565b95602085013595506040909401359392505050565b600181811c90821680613cf657607f821691505b602082108103613d1657634e487b7160e01b600052602260045260246000fd5b50919050565b6000602080835283516040828501528051606080860152613d4060c08601826133e1565b905082820151605f1980878403016080880152613d5d83836133e1565b925060408401519350808784030160a08801525050613d7c81836133e1565b83870151601f1987830301604080890191909152815180518452808701516001600160a01b0316848801528082015163ffffffff908116928501929092526060908101519091169083015284015160a06080830181905281519083018190529193508401915060c0600582901b84018101919084019060005b81811015613e235760bf19868503018352613e118486516133e1565b94870194935091860191600101613df5565b509198975050505050505050565b634e487b7160e01b600052603260045260246000fd5b634e487b7160e01b600052601160045260246000fd5b8082018082111561070557610705613e47565b600060018201613e8257613e82613e47565b5060010190565b8181038181111561070557610705613e47565b600060208284031215613eae57600080fd5b5051919050565b600060208284031215613ec757600080fd5b815161099081613a81565b808202811582820484141761070557610705613e47565b600082613f0657634e487b7160e01b600052601260045260246000fd5b500490565b60208082526017908201527f5374616b65686f6c6465727320617265206c6f636b6564000000000000000000604082015260600190565b60208082526021908201527f546f74616c206665652070657263656e746167652065786365656473203130306040820152602560f81b606082015260800190565b60008351613f958184602088016133bd565b835190830190613fa98183602088016133bd565b01949350505050565b634e487b7160e01b600052603160045260246000fd5b601f82111561129e57600081815260208120601f850160051c81016020861015613fef5750805b601f850160051c820191505b81811015610e2757828155600101613ffb565b81516001600160401b0381111561402757614027613282565b61403b816140358454613ce2565b84613fc8565b602080601f83116001811461407057600084156140585750858301515b600019600386901b1c1916600185901b178555610e27565b600085815260208120601f198616915b8281101561409f57888601518255948401946001909101908401614080565b50858210156140bd5787850151600019600388901b60f8161c191681555b5050505050600190811b01905550565b6080815260006140e060808301876133e1565b85602084015282810360408401526140f881866133e1565b91505060018060a01b038316606083015295945050505050565b6001600160a01b03868116825285166020820152604081018490526060810183905260a06080820181905260009061377a908301846133e1565b60006020828403121561415e57600080fd5b81516109908161324f565b6001600160a01b0386811682528516602082015260a06040820181905260009061419590830186613a33565b82810360608401526141a78186613a33565b905082810360808401526141bb81856133e1565b98975050505050505050565b6040815260006141da6040830185613a33565b82810360208401526141ec8185613a33565b9594505050505056fea2646970667358221220ad2f76a551f4eb33dca35c2b5ed9f25495722ccac57000d7b870d5f033172df064736f6c63430008140033","linkReferences":{}},"methodIdentifiers":{"addStakeholder(address,uint256)":"9aec312e","balanceOf(address,uint256)":"00fdd58e","balanceOfBatch(address[],uint256[])":"4e1273f4","burn(address,uint256,uint256)":"f5298aca","burnBatch(address,uint256[],uint256[])":"6b20c454","currentSupply()":"771282f6","distribute((address,uint256)[])":"1c378573","erc20Address()":"276184ae","erc20Token()":"8a13eea7","eventAddress()":"fad56779","exists(uint256)":"4f558e79","extractFieldFromContext(string,string)":"3755667e","get()":"6d4ce63c","getTicketHolders(uint256,uint256)":"20ced105","getTokensByUser(address)":"80370075","initialSupply()":"378dc3dc","isApprovedForAll(address,address)":"e985e9c5","isWhitelisted(address)":"3af32abf","maxSupply()":"d5abeb01","name()":"06fdde03","nextTokenId()":"75794a3c","owner()":"8da5cb5b","ownerSmartWallet()":"bbedb38e","price()":"a035b1fe","removeStakeholder(uint256)":"cf724bc9","renounceOwnership()":"715018a6","safeBatchTransferFrom(address,address,uint256[],uint256[],bytes)":"2eb2c2d6","safeTransferFrom(address,address,uint256,uint256,bytes)":"f242432a","setApprovalForAll(address,bool)":"a22cb465","setSmartWallet(address)":"2687f0f0","setTransferable(bool)":"9cd23707","setURI(string)":"02fe5305","stakeholders(uint256)":"1d6b8b72","stakeholdersCounter()":"acea082b","stakeholdersLocked()":"bcd2d977","stringToAddress(string)":"15706fdf","supportsInterface(bytes4)":"01ffc9a7","symbol()":"95d89b41","tokenURI(uint256)":"c87b56dd","totalFeePercentage()":"1a478174","totalSupply()":"18160ddd","totalSupply(uint256)":"bd85b039","transferOwnership(address)":"f2fde38b","transferable()":"92ff0d31","updateStakeholder(uint256,uint256)":"c64c8cfa","updateSupply(uint256)":"6bd08049","updateWhitelist((address,bool)[])":"54f2a4d3","uri(uint256)":"0e89341c","userHasToken(address,uint256)":"0ab464f0","verifyProofAndMint(((string,string,string),((bytes32,address,uint32,uint32),bytes[])))":"07788c7c","whitelistOnly()":"4b4687b5"},"id":47}