{"abi":[{"type":"constructor","inputs":[{"name":"config","type":"tuple","internalType":"struct Library.TicketConstructor","components":[{"name":"_owner","type":"address","internalType":"address"},{"name":"_ownerSmartWallet","type":"address","internalType":"address"},{"name":"_eventAddress","type":"address","internalType":"address"},{"name":"_baseURI","type":"string","internalType":"string"},{"name":"_name","type":"string","internalType":"string"},{"name":"_symbol","type":"string","internalType":"string"},{"name":"_erc20Address","type":"address","internalType":"address"},{"name":"_price","type":"uint256","internalType":"uint256"},{"name":"_initialSupply","type":"uint256","internalType":"uint256"},{"name":"_maxSupply","type":"uint256","internalType":"uint256"},{"name":"_transferable","type":"bool","internalType":"bool"},{"name":"_whitelistOnly","type":"bool","internalType":"bool"},{"name":"_stakeholders","type":"tuple[]","internalType":"struct Library.Stakeholder[]","components":[{"name":"wallet","type":"address","internalType":"address payable"},{"name":"feePercentage","type":"uint256","internalType":"uint256"}]}]}],"stateMutability":"nonpayable"},{"type":"function","name":"addStakeholder","inputs":[{"name":"_wallet","type":"address","internalType":"address payable"},{"name":"_feePercentage","type":"uint256","internalType":"uint256"}],"outputs":[],"stateMutability":"nonpayable"},{"type":"function","name":"balanceOf","inputs":[{"name":"account","type":"address","internalType":"address"},{"name":"id","type":"uint256","internalType":"uint256"}],"outputs":[{"name":"","type":"uint256","internalType":"uint256"}],"stateMutability":"view"},{"type":"function","name":"balanceOfBatch","inputs":[{"name":"accounts","type":"address[]","internalType":"address[]"},{"name":"ids","type":"uint256[]","internalType":"uint256[]"}],"outputs":[{"name":"","type":"uint256[]","internalType":"uint256[]"}],"stateMutability":"view"},{"type":"function","name":"burn","inputs":[{"name":"account","type":"address","internalType":"address"},{"name":"id","type":"uint256","internalType":"uint256"},{"name":"value","type":"uint256","internalType":"uint256"}],"outputs":[],"stateMutability":"nonpayable"},{"type":"function","name":"burnBatch","inputs":[{"name":"account","type":"address","internalType":"address"},{"name":"ids","type":"uint256[]","internalType":"uint256[]"},{"name":"values","type":"uint256[]","internalType":"uint256[]"}],"outputs":[],"stateMutability":"nonpayable"},{"type":"function","name":"currentSupply","inputs":[],"outputs":[{"name":"","type":"uint256","internalType":"uint256"}],"stateMutability":"view"},{"type":"function","name":"distribute","inputs":[{"name":"_distributions","type":"tuple[]","internalType":"struct Ticket.Distribution[]","components":[{"name":"recipient","type":"address","internalType":"address"},{"name":"amount","type":"uint256","internalType":"uint256"}]}],"outputs":[],"stateMutability":"nonpayable"},{"type":"function","name":"distributionsCounter","inputs":[],"outputs":[{"name":"","type":"uint256","internalType":"uint256"}],"stateMutability":"view"},{"type":"function","name":"erc20Address","inputs":[],"outputs":[{"name":"","type":"address","internalType":"address"}],"stateMutability":"view"},{"type":"function","name":"erc20Token","inputs":[],"outputs":[{"name":"","type":"address","internalType":"contract IERC20"}],"stateMutability":"view"},{"type":"function","name":"eventAddress","inputs":[],"outputs":[{"name":"","type":"address","internalType":"address"}],"stateMutability":"view"},{"type":"function","name":"exists","inputs":[{"name":"id","type":"uint256","internalType":"uint256"}],"outputs":[{"name":"","type":"bool","internalType":"bool"}],"stateMutability":"view"},{"type":"function","name":"extractFieldFromContext","inputs":[{"name":"data","type":"string","internalType":"string"},{"name":"target","type":"string","internalType":"string"}],"outputs":[{"name":"","type":"string","internalType":"string"}],"stateMutability":"pure"},{"type":"function","name":"get","inputs":[],"outputs":[],"stateMutability":"nonpayable"},{"type":"function","name":"getTicketHolders","inputs":[{"name":"start","type":"uint256","internalType":"uint256"},{"name":"pageSize","type":"uint256","internalType":"uint256"}],"outputs":[{"name":"","type":"address[]","internalType":"address[]"}],"stateMutability":"view"},{"type":"function","name":"getTokensByUser","inputs":[{"name":"user","type":"address","internalType":"address"}],"outputs":[{"name":"","type":"uint256[]","internalType":"uint256[]"}],"stateMutability":"view"},{"type":"function","name":"initialSupply","inputs":[],"outputs":[{"name":"","type":"uint256","internalType":"uint256"}],"stateMutability":"view"},{"type":"function","name":"isApprovedForAll","inputs":[{"name":"account","type":"address","internalType":"address"},{"name":"operator","type":"address","internalType":"address"}],"outputs":[{"name":"","type":"bool","internalType":"bool"}],"stateMutability":"view"},{"type":"function","name":"isWhitelisted","inputs":[{"name":"","type":"address","internalType":"address"}],"outputs":[{"name":"","type":"bool","internalType":"bool"}],"stateMutability":"view"},{"type":"function","name":"maxSupply","inputs":[],"outputs":[{"name":"","type":"uint256","internalType":"uint256"}],"stateMutability":"view"},{"type":"function","name":"name","inputs":[],"outputs":[{"name":"","type":"string","internalType":"string"}],"stateMutability":"view"},{"type":"function","name":"nextTokenId","inputs":[],"outputs":[{"name":"","type":"uint256","internalType":"uint256"}],"stateMutability":"view"},{"type":"function","name":"owner","inputs":[],"outputs":[{"name":"","type":"address","internalType":"address"}],"stateMutability":"view"},{"type":"function","name":"ownerSmartWallet","inputs":[],"outputs":[{"name":"","type":"address","internalType":"address"}],"stateMutability":"view"},{"type":"function","name":"price","inputs":[],"outputs":[{"name":"","type":"uint256","internalType":"uint256"}],"stateMutability":"view"},{"type":"function","name":"removeStakeholder","inputs":[{"name":"_index","type":"uint256","internalType":"uint256"}],"outputs":[],"stateMutability":"nonpayable"},{"type":"function","name":"renounceOwnership","inputs":[],"outputs":[],"stateMutability":"nonpayable"},{"type":"function","name":"safeBatchTransferFrom","inputs":[{"name":"from","type":"address","internalType":"address"},{"name":"to","type":"address","internalType":"address"},{"name":"ids","type":"uint256[]","internalType":"uint256[]"},{"name":"values","type":"uint256[]","internalType":"uint256[]"},{"name":"data","type":"bytes","internalType":"bytes"}],"outputs":[],"stateMutability":"nonpayable"},{"type":"function","name":"safeTransferFrom","inputs":[{"name":"from","type":"address","internalType":"address"},{"name":"to","type":"address","internalType":"address"},{"name":"id","type":"uint256","internalType":"uint256"},{"name":"value","type":"uint256","internalType":"uint256"},{"name":"data","type":"bytes","internalType":"bytes"}],"outputs":[],"stateMutability":"nonpayable"},{"type":"function","name":"setApprovalForAll","inputs":[{"name":"operator","type":"address","internalType":"address"},{"name":"approved","type":"bool","internalType":"bool"}],"outputs":[],"stateMutability":"nonpayable"},{"type":"function","name":"setSmartWallet","inputs":[{"name":"_smartWallet","type":"address","internalType":"address"}],"outputs":[],"stateMutability":"nonpayable"},{"type":"function","name":"setTransferable","inputs":[{"name":"_transferable","type":"bool","internalType":"bool"}],"outputs":[],"stateMutability":"nonpayable"},{"type":"function","name":"setURI","inputs":[{"name":"newuri","type":"string","internalType":"string"}],"outputs":[],"stateMutability":"nonpayable"},{"type":"function","name":"stakeholders","inputs":[{"name":"","type":"uint256","internalType":"uint256"}],"outputs":[{"name":"wallet","type":"address","internalType":"address payable"},{"name":"feePercentage","type":"uint256","internalType":"uint256"}],"stateMutability":"view"},{"type":"function","name":"stakeholdersCounter","inputs":[],"outputs":[{"name":"","type":"uint256","internalType":"uint256"}],"stateMutability":"view"},{"type":"function","name":"stakeholdersLocked","inputs":[],"outputs":[{"name":"","type":"bool","internalType":"bool"}],"stateMutability":"view"},{"type":"function","name":"stringToAddress","inputs":[{"name":"_address","type":"string","internalType":"string"}],"outputs":[{"name":"","type":"address","internalType":"address"}],"stateMutability":"pure"},{"type":"function","name":"supportsInterface","inputs":[{"name":"interfaceId","type":"bytes4","internalType":"bytes4"}],"outputs":[{"name":"","type":"bool","internalType":"bool"}],"stateMutability":"view"},{"type":"function","name":"symbol","inputs":[],"outputs":[{"name":"","type":"string","internalType":"string"}],"stateMutability":"view"},{"type":"function","name":"tokenURI","inputs":[{"name":"_tokenId","type":"uint256","internalType":"uint256"}],"outputs":[{"name":"","type":"string","internalType":"string"}],"stateMutability":"view"},{"type":"function","name":"totalFeePercentage","inputs":[],"outputs":[{"name":"","type":"uint256","internalType":"uint256"}],"stateMutability":"view"},{"type":"function","name":"totalSupply","inputs":[],"outputs":[{"name":"","type":"uint256","internalType":"uint256"}],"stateMutability":"view"},{"type":"function","name":"totalSupply","inputs":[{"name":"id","type":"uint256","internalType":"uint256"}],"outputs":[{"name":"","type":"uint256","internalType":"uint256"}],"stateMutability":"view"},{"type":"function","name":"transferOwnership","inputs":[{"name":"newOwner","type":"address","internalType":"address"}],"outputs":[],"stateMutability":"nonpayable"},{"type":"function","name":"transferable","inputs":[],"outputs":[{"name":"","type":"bool","internalType":"bool"}],"stateMutability":"view"},{"type":"function","name":"updateStakeholder","inputs":[{"name":"_index","type":"uint256","internalType":"uint256"},{"name":"_feePercentage","type":"uint256","internalType":"uint256"}],"outputs":[],"stateMutability":"nonpayable"},{"type":"function","name":"updateSupply","inputs":[{"name":"_additionalSupply","type":"uint256","internalType":"uint256"}],"outputs":[],"stateMutability":"nonpayable"},{"type":"function","name":"updateWhitelist","inputs":[{"name":"_whitelistUpdates","type":"tuple[]","internalType":"struct Ticket.Whitelist[]","components":[{"name":"user","type":"address","internalType":"address"},{"name":"status","type":"bool","internalType":"bool"}]}],"outputs":[],"stateMutability":"nonpayable"},{"type":"function","name":"uri","inputs":[{"name":"","type":"uint256","internalType":"uint256"}],"outputs":[{"name":"","type":"string","internalType":"string"}],"stateMutability":"view"},{"type":"function","name":"userHasToken","inputs":[{"name":"user","type":"address","internalType":"address"},{"name":"tokenId","type":"uint256","internalType":"uint256"}],"outputs":[{"name":"","type":"bool","internalType":"bool"}],"stateMutability":"view"},{"type":"function","name":"verifyProofAndMint","inputs":[{"name":"proof","type":"tuple","internalType":"struct Proof","components":[{"name":"claimInfo","type":"tuple","internalType":"struct ClaimInfo","components":[{"name":"provider","type":"string","internalType":"string"},{"name":"parameters","type":"string","internalType":"string"},{"name":"context","type":"string","internalType":"string"}]},{"name":"signedClaim","type":"tuple","internalType":"struct SignedClaim","components":[{"name":"claim","type":"tuple","internalType":"struct Claim","components":[{"name":"identifier","type":"bytes32","internalType":"bytes32"},{"name":"owner","type":"address","internalType":"address"},{"name":"timestampS","type":"uint32","internalType":"uint32"},{"name":"epoch","type":"uint32","internalType":"uint32"}]},{"name":"signatures","type":"bytes[]","internalType":"bytes[]"}]}]}],"outputs":[],"stateMutability":"nonpayable"},{"type":"function","name":"whitelistOnly","inputs":[],"outputs":[{"name":"","type":"bool","internalType":"bool"}],"stateMutability":"view"},{"type":"event","name":"ApprovalForAll","inputs":[{"name":"account","type":"address","indexed":true,"internalType":"address"},{"name":"operator","type":"address","indexed":true,"internalType":"address"},{"name":"approved","type":"bool","indexed":false,"internalType":"bool"}],"anonymous":false},{"type":"event","name":"MintedFromProof","inputs":[{"name":"timestamp","type":"uint256","indexed":false,"internalType":"uint256"},{"name":"userSmartWalletAddress","type":"address","indexed":false,"internalType":"address"},{"name":"context","type":"string","indexed":false,"internalType":"string"},{"name":"userSmartWalletAddressFromContext","type":"string","indexed":false,"internalType":"string"}],"anonymous":false},{"type":"event","name":"OwnershipTransferred","inputs":[{"name":"previousOwner","type":"address","indexed":true,"internalType":"address"},{"name":"newOwner","type":"address","indexed":true,"internalType":"address"}],"anonymous":false},{"type":"event","name":"SmartWalletUpdated","inputs":[{"name":"previousWallet","type":"address","indexed":true,"internalType":"address"},{"name":"newWallet","type":"address","indexed":true,"internalType":"address"}],"anonymous":false},{"type":"event","name":"StakeholderAdded","inputs":[{"name":"wallet","type":"address","indexed":false,"internalType":"address"},{"name":"feePercentage","type":"uint256","indexed":false,"internalType":"uint256"}],"anonymous":false},{"type":"event","name":"StakeholderRemoved","inputs":[{"name":"wallet","type":"address","indexed":false,"internalType":"address"}],"anonymous":false},{"type":"event","name":"StakeholderUpdated","inputs":[{"name":"wallet","type":"address","indexed":false,"internalType":"address"},{"name":"feePercentage","type":"uint256","indexed":false,"internalType":"uint256"}],"anonymous":false},{"type":"event","name":"StakeholdersLocked","inputs":[],"anonymous":false},{"type":"event","name":"SupplyUpdated","inputs":[{"name":"newSupply","type":"uint256","indexed":false,"internalType":"uint256"}],"anonymous":false},{"type":"event","name":"TicketPurchased","inputs":[{"name":"price","type":"uint256","indexed":false,"internalType":"uint256"},{"name":"stakeholdersShare","type":"uint256","indexed":false,"internalType":"uint256"}],"anonymous":false},{"type":"event","name":"TransferBatch","inputs":[{"name":"operator","type":"address","indexed":true,"internalType":"address"},{"name":"from","type":"address","indexed":true,"internalType":"address"},{"name":"to","type":"address","indexed":true,"internalType":"address"},{"name":"ids","type":"uint256[]","indexed":false,"internalType":"uint256[]"},{"name":"values","type":"uint256[]","indexed":false,"internalType":"uint256[]"}],"anonymous":false},{"type":"event","name":"TransferSingle","inputs":[{"name":"operator","type":"address","indexed":true,"internalType":"address"},{"name":"from","type":"address","indexed":true,"internalType":"address"},{"name":"to","type":"address","indexed":true,"internalType":"address"},{"name":"id","type":"uint256","indexed":false,"internalType":"uint256"},{"name":"value","type":"uint256","indexed":false,"internalType":"uint256"}],"anonymous":false},{"type":"event","name":"URI","inputs":[{"name":"value","type":"string","indexed":false,"internalType":"string"},{"name":"id","type":"uint256","indexed":true,"internalType":"uint256"}],"anonymous":false},{"type":"error","name":"ERC1155InsufficientBalance","inputs":[{"name":"sender","type":"address","internalType":"address"},{"name":"balance","type":"uint256","internalType":"uint256"},{"name":"needed","type":"uint256","internalType":"uint256"},{"name":"tokenId","type":"uint256","internalType":"uint256"}]},{"type":"error","name":"ERC1155InvalidApprover","inputs":[{"name":"approver","type":"address","internalType":"address"}]},{"type":"error","name":"ERC1155InvalidArrayLength","inputs":[{"name":"idsLength","type":"uint256","internalType":"uint256"},{"name":"valuesLength","type":"uint256","internalType":"uint256"}]},{"type":"error","name":"ERC1155InvalidOperator","inputs":[{"name":"operator","type":"address","internalType":"address"}]},{"type":"error","name":"ERC1155InvalidReceiver","inputs":[{"name":"receiver","type":"address","internalType":"address"}]},{"type":"error","name":"ERC1155InvalidSender","inputs":[{"name":"sender","type":"address","internalType":"address"}]},{"type":"error","name":"ERC1155MissingApprovalForAll","inputs":[{"name":"operator","type":"address","internalType":"address"},{"name":"owner","type":"address","internalType":"address"}]},{"type":"error","name":"OwnableInvalidOwner","inputs":[{"name":"owner","type":"address","internalType":"address"}]},{"type":"error","name":"OwnableUnauthorizedAccount","inputs":[{"name":"account","type":"address","internalType":"address"}]}],"bytecode":{"object":"0x6080604052600160105560006011553480156200001b57600080fd5b5060405162004f6038038062004f608339810160408190526200003e91620007e9565b6060810151815160208301516080840151826001600160a01b0381166200008057604051631e4fbdf760e01b8152600060048201526024015b60405180910390fd5b6200008b81620002fb565b506001600160a01b038216620000e45760405162461bcd60e51b815260206004820152601660248201527f496e76616c69642077616c6c6574206164647265737300000000000000000000604482015260640162000077565b600180546001600160a01b0319166001600160a01b03841617905560026200010d8282620009fa565b5050505062000122816200034b60201b60201c565b508061012001518161010001511115620001895760405162461bcd60e51b815260206004820152602160248201527f496e697469616c20737570706c792065786365656473206d617820737570706c6044820152607960f81b606482015260840162000077565b6020810151600180546001600160a01b0319166001600160a01b039092169190911790556080810151600290620001c19082620009fa565b5060a0810151600b90620001d69082620009fa565b506040810151600880546001600160a01b03199081166001600160a01b039384161790915560c083015160098054831691909316908117909255600a8054909116909117905560e081015160115561010080820151600c819055610120830151600d55600e55610140820151600f805461016085015161ffff1990911692151561ff0019169290921791151590920217905560005b81610180015151811015620002eb57620002d6826101800151828151811062000298576200029862000ac6565b6020026020010151600001518361018001518381518110620002be57620002be62000ac6565b6020026020010151602001516200035d60201b60201c565b80620002e28162000af2565b9150506200026b565b50610180015151601a5562000b2a565b600080546001600160a01b038381166001600160a01b0319831681178455604051919092169283917f8be0079c531659141344cd1fd0a4f28419497f9722a3daafe3b4186f6b6457e09190a35050565b6005620003598282620009fa565b5050565b6000811180156200037057506127108111155b620003be5760405162461bcd60e51b815260206004820152601660248201527f496e76616c6964206665652070657263656e7461676500000000000000000000604482015260640162000077565b61271081601854620003d1919062000b0e565b11156200042b5760405162461bcd60e51b815260206004820152602160248201527f546f74616c206665652070657263656e746167652065786365656473203130306044820152602560f81b606482015260840162000077565b60005b601754811015620004d757826001600160a01b03166017828154811062000459576200045962000ac6565b60009182526020909120600290910201546001600160a01b031603620004c25760405162461bcd60e51b815260206004820152601a60248201527f5374616b65686f6c64657220616c726561647920657869737473000000000000604482015260640162000077565b80620004ce8162000af2565b9150506200042e565b50604080518082019091526001600160a01b0383811682526020820183815260178054600181018255600091825293517fc624b66cc0138b8fabc209247f72d758e1cf3343756d543badbf24212bed8c15600290950294850180546001600160a01b0319169190941617909255517fc624b66cc0138b8fabc209247f72d758e1cf3343756d543badbf24212bed8c1690920191909155601880548392906200058190849062000b0e565b9091555050604080516001600160a01b0384168152602081018390527f120bfdd311a35c23d43060f2ed5044e464ade4940f2f49f164ab6e0b32eb8336910160405180910390a15050565b634e487b7160e01b600052604160045260246000fd5b604080519081016001600160401b0381118282101715620006075762000607620005cc565b60405290565b6040516101a081016001600160401b0381118282101715620006075762000607620005cc565b604051601f8201601f191681016001600160401b03811182821017156200065e576200065e620005cc565b604052919050565b6001600160a01b03811681146200067c57600080fd5b50565b80516200068c8162000666565b919050565b600082601f830112620006a357600080fd5b81516001600160401b03811115620006bf57620006bf620005cc565b6020620006d5601f8301601f1916820162000633565b8281528582848701011115620006ea57600080fd5b60005b838110156200070a578581018301518282018401528201620006ed565b506000928101909101919091529392505050565b805180151581146200068c57600080fd5b600082601f8301126200074157600080fd5b815160206001600160401b038211156200075f576200075f620005cc565b6200076f818360051b0162000633565b82815260069290921b840181019181810190868411156200078f57600080fd5b8286015b84811015620007de5760408189031215620007ae5760008081fd5b620007b8620005e2565b8151620007c58162000666565b8152818501518582015283529183019160400162000793565b509695505050505050565b600060208284031215620007fc57600080fd5b81516001600160401b03808211156200081457600080fd5b908301906101a082860312156200082a57600080fd5b620008346200060d565b6200083f836200067f565b81526200084f602084016200067f565b602082015262000862604084016200067f565b60408201526060830151828111156200087a57600080fd5b620008888782860162000691565b606083015250608083015182811115620008a157600080fd5b620008af8782860162000691565b60808301525060a083015182811115620008c857600080fd5b620008d68782860162000691565b60a083015250620008ea60c084016200067f565b60c082015260e08381015190820152610100808401519082015261012080840151908201526101406200091f8185016200071e565b90820152610160620009338482016200071e565b9082015261018083810151838111156200094c57600080fd5b6200095a888287016200072f565b918301919091525095945050505050565b600181811c908216806200098057607f821691505b602082108103620009a157634e487b7160e01b600052602260045260246000fd5b50919050565b601f821115620009f557600081815260208120601f850160051c81016020861015620009d05750805b601f850160051c820191505b81811015620009f157828155600101620009dc565b5050505b505050565b81516001600160401b0381111562000a165762000a16620005cc565b62000a2e8162000a2784546200096b565b84620009a7565b602080601f83116001811462000a66576000841562000a4d5750858301515b600019600386901b1c1916600185901b178555620009f1565b600085815260208120601f198616915b8281101562000a975788860151825594840194600190910190840162000a76565b508582101562000ab65787850151600019600388901b60f8161c191681555b5050505050600190811b01905550565b634e487b7160e01b600052603260045260246000fd5b634e487b7160e01b600052601160045260246000fd5b60006001820162000b075762000b0762000adc565b5060010190565b8082018082111562000b245762000b2462000adc565b92915050565b6144268062000b3a6000396000f3fe608060405234801561001057600080fd5b506004361061030b5760003560e01c8063715018a61161019d578063acea082b116100e9578063cf724bc9116100a2578063f242432a1161007c578063f242432a146106b9578063f2fde38b146106cc578063f5298aca146106df578063fad56779146106f257600080fd5b8063cf724bc91461068a578063d5abeb011461069d578063e985e9c5146106a657600080fd5b8063acea082b1461061b578063bbedb38e14610624578063bcd2d97714610637578063bd85b03914610644578063c64c8cfa14610664578063c87b56dd1461067757600080fd5b80638da5cb5b116101565780639aec312e116101305780639aec312e146105d95780639cd23707146105ec578063a035b1fe146105ff578063a22cb4651461060857600080fd5b80638da5cb5b146105b357806392ff0d31146105c457806395d89b41146105d157600080fd5b8063715018a61461056a57806375794a3c14610572578063771282f61461057b578063803700751461058457806380747675146105975780638a13eea7146105a057600080fd5b80632687f0f01161025c5780634b4687b51161021557806354f2a4d3116101ef57806354f2a4d3146105295780636b20c4541461053c5780636bd080491461054f5780636d4ce63c1461056257600080fd5b80634b4687b5146104d55780634e1273f4146104e75780634f558e791461050757600080fd5b80632687f0f01461045d578063276184ae146104705780632eb2c2d6146104835780633755667e14610496578063378dc3dc146104a95780633af32abf146104b257600080fd5b80630e89341c116102c95780631a478174116102a35780631a478174146103ef5780631c378573146103f85780631d6b8b721461040b57806320ced1051461043d57600080fd5b80630e89341c146103a957806315706fdf146103bc57806318160ddd146103e757600080fd5b8062fdd58e1461031057806301ffc9a71461033657806302fe53051461035957806306fdde031461036e57806307788c7c146103835780630ab464f014610396575b600080fd5b61032361031e366004613397565b610705565b6040519081526020015b60405180910390f35b6103496103443660046133d9565b61072f565b604051901515815260200161032d565b61036c6103673660046134f5565b61077f565b005b610376610793565b60405161032d9190613581565b61036c61039136600461371e565b610821565b6103496103a4366004613397565b61098e565b6103766103b7366004613822565b6109b7565b6103cf6103ca3660046134f5565b610a4b565b6040516001600160a01b03909116815260200161032d565b600754610323565b61032360185481565b61036c61040636600461383b565b610bde565b61041e610419366004613822565b610ccd565b604080516001600160a01b03909316835260208301919091520161032d565b61045061044b3660046138f9565b610d05565b60405161032d919061391b565b61036c61046b366004613968565b610de1565b6009546103cf906001600160a01b031681565b61036c6104913660046139e0565b610e91565b6103766104a4366004613a8d565b610ef8565b610323600c5481565b6103496104c0366004613968565b60156020526000908152604090205460ff1681565b600f5461034990610100900460ff1681565b6104fa6104f5366004613af0565b611221565b60405161032d9190613be2565b610349610515366004613822565b600090815260066020526040902054151590565b61036c610537366004613c03565b6112f5565b61036c61054a366004613cc0565b61136d565b61036c61055d366004613822565b6113d1565b61036c61147d565b61036c6119cd565b61032360105481565b610323600e5481565b6104fa610592366004613968565b6119e1565b61032360165481565b600a546103cf906001600160a01b031681565b6000546001600160a01b03166103cf565b600f546103499060ff1681565b610376611a05565b61036c6105e7366004613397565b611a12565b61036c6105fa366004613d35565b611a47565b61032360115481565b61036c610616366004613d52565b611a62565b610323601a5481565b6001546103cf906001600160a01b031681565b6019546103499060ff1681565b610323610652366004613822565b60009081526006602052604090205490565b61036c6106723660046138f9565b611a6d565b610376610685366004613822565b611c52565b61036c610698366004613822565b611c8d565b610323600d5481565b6103496106b4366004613d8b565b611e57565b61036c6106c7366004613db9565b611e85565b61036c6106da366004613968565b611ee4565b61036c6106ed366004613e21565b611f1f565b6008546103cf906001600160a01b031681565b60008181526003602090815260408083206001600160a01b03861684529091529020545b92915050565b60006001600160e01b03198216636cdb3d1360e11b148061076057506001600160e01b031982166303a24d0760e21b145b8061072957506301ffc9a760e01b6001600160e01b0319831614610729565b610787611f55565b61079081611fb0565b50565b600280546107a090613e56565b80601f01602080910402602001604051908101604052809291908181526020018280546107cc90613e56565b80156108195780601f106107ee57610100808354040283529160200191610819565b820191906000526020600020905b8154815290600101906020018083116107fc57829003601f168201915b505050505081565b6040516354b0734f60e11b815273f90085f5fd1a3beb8678623409b3811ecec5f6a59063a960e69e90610858908490600401613e90565b60006040518083038186803b15801561087057600080fd5b505afa925050508015610881575060015b6108d25760405162461bcd60e51b815260206004820152601960248201527f50726f6f6620766572696669636174696f6e206661696c65640000000000000060448201526064015b60405180910390fd5b600081600001516040015190506000610920826040518060400160405280601a81526020017f2275736572536d61727457616c6c657441646472657373223a22000000000000815250610ef8565b9050600061092d82610a4b565b905061093881611fbc565b6109426001612030565b61094b816120cf565b7fc414b92cbd4c8e87fd45fe821cb93d6b1bd8e3dcef3d7eed52a114a6fcda0c79428285856040516109809493929190613fa5565b60405180910390a150505050565b6001600160a01b03821660009081526012602052604081206109b09083612156565b9392505050565b6060600580546109c690613e56565b80601f01602080910402602001604051908101604052809291908181526020018280546109f290613e56565b8015610a3f5780601f10610a1457610100808354040283529160200191610a3f565b820191906000526020600020905b815481529060010190602001808311610a2257829003601f168201915b50505050509050919050565b80516000908290602a14610a9a5760405162461bcd60e51b8152602060048201526016602482015275092dcecc2d8d2c840c2c8c8e4cae6e640d8cadccee8d60531b60448201526064016108c9565b600060025b602a811015610bd3576000838281518110610abc57610abc613fe1565b016020015160f81c905060308110801590610adb575060398160ff1611155b15610af257610aeb60308261400d565b9050610b8a565b60418160ff1610158015610b0a575060468160ff1611155b15610b1a57610aeb60378261400d565b60618160ff1610158015610b32575060668160ff1611155b15610b4257610aeb60578261400d565b60405162461bcd60e51b815260206004820152601960248201527f496e76616c69642061646472657373206368617261637465720000000000000060448201526064016108c9565b610b95826029614026565b610ba0906004614039565b6001600160a01b03168160ff166001600160a01b0316901b60601b83179250508080610bcb9061406b565b915050610a9f565b5060601c9392505050565b610be6611f55565b6000805b8251811015610c43576000838281518110610c0757610c07613fe1565b60200260200101519050610c1e8160000151611fbc565b6020810151610c2d9084614084565b9250508080610c3b9061406b565b915050610bea565b50610c4d81612030565b60005b8251811015610c9c576000838281518110610c6d57610c6d613fe1565b60200260200101519050610c898160000151826020015161216e565b5080610c948161406b565b915050610c50565b5080600e6000828254610caf9190614026565b909155505060168054906000610cc48361406b565b91905055505050565b60178181548110610cdd57600080fd5b6000918252602090912060029091020180546001909101546001600160a01b03909116915082565b60606000610d1360136121e3565b90506000610d218486614084565b905081811115610d2e5750805b6000610d3a8683614026565b6001600160401b03811115610d5157610d516133f6565b604051908082528060200260200182016040528015610d7a578160200160208202803683370190505b509050855b82811015610dd757610d926013826121ed565b82610d9d8984614026565b81518110610dad57610dad613fe1565b6001600160a01b039092166020928302919091019091015280610dcf8161406b565b915050610d7f565b5095945050505050565b610de9611f55565b6001600160a01b038116610e3f5760405162461bcd60e51b815260206004820152601c60248201527f496e76616c696420736d6172742077616c6c657420616464726573730000000060448201526064016108c9565b600180546001600160a01b038381166001600160a01b0319831681179093556040519116919082907ff7b9883f256cf768ad054d3cfc455603983f3e2d2635d9dbe1a7f6f6546ca83a90600090a35050565b336001600160a01b0386168114801590610eb25750610eb08682611e57565b155b15610ee35760405163711bec9160e11b81526001600160a01b038083166004830152871660248201526044016108c9565b610ef086868686866121f9565b505050505050565b80518251606091849184911115610f515760405162461bcd60e51b815260206004820152601a60248201527f746172676574206973206c6f6e676572207468616e206461746100000000000060448201526064016108c9565b60008060005b83518551610f659190614026565b811161101b57600160005b855181108015610f7d5750815b15610fe957858181518110610f9457610f94613fe1565b01602001516001600160f81b03191687610fae8386614084565b81518110610fbe57610fbe613fe1565b01602001516001600160f81b03191614610fd757600091505b80610fe18161406b565b915050610f70565b508015611008578451610ffc9083614084565b9350600192505061101b565b50806110138161406b565b915050610f57565b508061103c5760405180602001604052806000815250945050505050610729565b815b8451811080156110ae575084818151811061105b5761105b613fe1565b6020910101516001600160f81b031916601160f91b1480156110ac575084611084600183614026565b8151811061109457611094613fe1565b6020910101516001600160f81b031916601760fa1b14155b155b156110c557806110bd8161406b565b91505061103e565b828111158061113457508481815181106110e1576110e1613fe1565b6020910101516001600160f81b031916601160f91b14801561113257508461110a600183614026565b8151811061111a5761111a613fe1565b6020910101516001600160f81b031916601760fa1b14155b155b15611155576040518060200160405280600081525095505050505050610729565b60006111618483614026565b6001600160401b03811115611178576111786133f6565b6040519080825280601f01601f1916602001820160405280156111a2576020820181803683370190505b509050835b82811015611214578681815181106111c1576111c1613fe1565b01602001516001600160f81b031916826111db8784614026565b815181106111eb576111eb613fe1565b60200101906001600160f81b031916908160001a9053508061120c8161406b565b9150506111a7565b5098975050505050505050565b606081518351146112525781518351604051635b05999160e01b8152600481019290925260248201526044016108c9565b600083516001600160401b0381111561126d5761126d6133f6565b604051908082528060200260200182016040528015611296578160200160208202803683370190505b50905060005b84518110156112ed576020808202860101516112c090602080840287010151610705565b8282815181106112d2576112d2613fe1565b60209081029190910101526112e68161406b565b905061129c565b509392505050565b6112fd611f55565b60005b815181101561136957600082828151811061131d5761131d613fe1565b6020908102919091018101518082015190516001600160a01b0316600090815260159092526040909120805460ff191691151591909117905550806113618161406b565b915050611300565b5050565b6001600160a01b038316331480159061138d575061138b8333611e57565b155b156113c157335b60405163711bec9160e11b81526001600160a01b03918216600482015290841660248201526044016108c9565b6113cc838383612260565b505050565b6113d9611f55565b600d5481600e546113ea9190614084565b111561142d5760405162461bcd60e51b815260206004820152601260248201527145786365656473206d617820737570706c7960701b60448201526064016108c9565b600081600e5461143d9190614084565b600e8190556040518181529091507fea4bfee7f9fb38136c61cc04b6e56efc93eaf1beef326dbc47495b358385914c906020015b60405180910390a15050565b60195460ff1615801561149257506001601054115b156114ce576019805460ff191660011790556040517f99f45970703817be58e8c9055b26d154559e46611c4ad7f5e361dd5077e19ec290600090a15b6114d733611fbc565b6114e16001612030565b60115460008190036114fb576114f6336120cf565b61196e565b600a546040516370a0823160e01b81523360048201526000916001600160a01b0316906370a0823190602401602060405180830381865afa158015611544573d6000803e3d6000fd5b505050506040513d601f19601f820116820180604052508101906115689190614097565b90506011548110156115b35760405162461bcd60e51b8152602060048201526014602482015273496e73756666696369656e742062616c616e636560601b60448201526064016108c9565b600a54604051636eb1769f60e11b81523360048201523060248201526000916001600160a01b03169063dd62ed3e90604401602060405180830381865afa158015611602573d6000803e3d6000fd5b505050506040513d601f19601f820116820180604052508101906116269190614097565b90506011548110156116735760405162461bcd60e51b8152602060048201526016602482015275496e73756666696369656e7420616c6c6f77616e636560501b60448201526064016108c9565b600a546011546040516323b872dd60e01b815233600482015230602482015260448101919091526001600160a01b03909116906323b872dd906064016020604051808303816000875af11580156116ce573d6000803e3d6000fd5b505050506040513d601f19601f820116820180604052508101906116f291906140b0565b6117305760405162461bcd60e51b815260206004820152600f60248201526e151c985b9cd9995c8819985a5b1959608a1b60448201526064016108c9565b60005b60175481101561189e5760006127106017838154811061175557611755613fe1565b90600052602060002090600202016001015460115461177491906140cd565b61177e91906140e4565b9050801561188b57600a54601780546001600160a01b039092169163a9059cbb9190859081106117b0576117b0613fe1565b600091825260209091206002909102015460405160e083901b6001600160e01b03191681526001600160a01b039091166004820152602481018490526044016020604051808303816000875af115801561180e573d6000803e3d6000fd5b505050506040513d601f19601f8201168201806040525081019061183291906140b0565b61187e5760405162461bcd60e51b815260206004820152601f60248201527f5374616b65686f6c64657220666565207472616e73666572206661696c65640060448201526064016108c9565b6118888186614026565b94505b50806118968161406b565b915050611733565b50821561196257600a5460015460405163a9059cbb60e01b81526001600160a01b0391821660048201526024810186905291169063a9059cbb906044016020604051808303816000875af11580156118fa573d6000803e3d6000fd5b505050506040513d601f19601f8201168201806040525081019061191e91906140b0565b6119625760405162461bcd60e51b815260206004820152601560248201527413dddb995c881d1c985b9cd9995c8819985a5b1959605a1b60448201526064016108c9565b61196b336120cf565b50505b6010805490600061197e8361406b565b90915550506011547fd83a155e5baad5912b026096e739efc45a8d05e779404e88a7e81f8e0a5d328f906119b28382614026565b6040805192835260208301919091520160405180910390a150565b6119d5611f55565b6119df60006122a6565b565b6001600160a01b0381166000908152601260205260409020606090610729906122f6565b600b80546107a090613e56565b611a1a611f55565b60195460ff1615611a3d5760405162461bcd60e51b81526004016108c990614106565b6113698282612303565b611a4f611f55565b600f805460ff1916911515919091179055565b611369338383612518565b611a75611f55565b60195460ff1615611a985760405162461bcd60e51b81526004016108c990614106565b6017548210611ae55760405162461bcd60e51b8152602060048201526019602482015278092dcecc2d8d2c840e6e8c2d6cad0ded8c8cae440d2dcc8caf603b1b60448201526064016108c9565b600081118015611af757506127108111155b611b3c5760405162461bcd60e51b8152602060048201526016602482015275496e76616c6964206665652070657263656e7461676560501b60448201526064016108c9565b600060178381548110611b5157611b51613fe1565b90600052602060002090600202016001015490506127108282601854611b779190614026565b611b819190614084565b1115611b9f5760405162461bcd60e51b81526004016108c99061413d565b8160178481548110611bb357611bb3613fe1565b9060005260206000209060020201600101819055508181601854611bd79190614026565b611be19190614084565b6018819055507f7a610a8f84e2f81e52d1bab080e29d1299c78e5982147fc2c39516e9770c1f4560178481548110611c1b57611c1b613fe1565b600091825260209182902060029091020154604080516001600160a01b0390921682529181018590520160405180910390a1505050565b6060611c5d826109b7565b611c66836125ae565b604051602001611c7792919061417e565b6040516020818303038152906040529050919050565b611c95611f55565b60195460ff1615611cb85760405162461bcd60e51b81526004016108c990614106565b6017548110611d055760405162461bcd60e51b8152602060048201526019602482015278092dcecc2d8d2c840e6e8c2d6cad0ded8c8cae440d2dcc8caf603b1b60448201526064016108c9565b60178181548110611d1857611d18613fe1565b90600052602060002090600202016001015460186000828254611d3b9190614026565b925050819055507f8d36e95af41e9d50e4ca435702a0e868f35b4f71c1e390a2acc6c5c5651ef28b60178281548110611d7657611d76613fe1565b6000918252602091829020600290910201546040516001600160a01b0390911681520160405180910390a160178054611db190600190614026565b81548110611dc157611dc1613fe1565b906000526020600020906002020160178281548110611de257611de2613fe1565b60009182526020909120825460029092020180546001600160a01b0319166001600160a01b039092169190911781556001918201549101556017805480611e2b57611e2b6141ad565b60008281526020812060026000199093019283020180546001600160a01b031916815560010155905550565b6001600160a01b03918216600090815260046020908152604080832093909416825291909152205460ff1690565b336001600160a01b0386168114801590611ea65750611ea48682611e57565b155b15611ed75760405163711bec9160e11b81526001600160a01b038083166004830152871660248201526044016108c9565b610ef08686868686612640565b611eec611f55565b6001600160a01b038116611f1657604051631e4fbdf760e01b8152600060048201526024016108c9565b610790816122a6565b6001600160a01b0383163314801590611f3f5750611f3d8333611e57565b155b15611f4a5733611394565b6113cc8383836126ce565b6000546001600160a01b0316331480611f7857506001546001600160a01b031633145b6119df5760405162461bcd60e51b81526020600482015260096024820152682737ba1037bbb732b960b91b60448201526064016108c9565b60056113698282614209565b600f54610100900460ff1615610790576001600160a01b03811660009081526015602052604090205460ff166107905760405162461bcd60e51b8152602060048201526019602482015278149958da5c1a595b9d081b9bdd081dda1a5d195b1a5cdd1959603a1b60448201526064016108c9565b80600e54101561207b5760405162461bcd60e51b8152602060048201526016602482015275457863656564732063757272656e7420737570706c7960501b60448201526064016108c9565b600d5481600e5461208c9190614084565b11156107905760405162461bcd60e51b815260206004820152601260248201527145786365656473206d617820737570706c7960701b60448201526064016108c9565b60195460ff161580156120e457506001601054115b15612120576019805460ff191660011790556040517f99f45970703817be58e8c9055b26d154559e46611c4ad7f5e361dd5077e19ec290600090a15b61213e81601054600160405180602001604052806000815250612736565b6010805490600061214e8361406b565b919050555050565b600081815260018301602052604081205415156109b0565b60005b818110156113cc57612182836120cf565b6121d16040518060400160405280600f81526020016e135a5b9d1959081d1bdad95b881251608a1b81525060105460405180604001604052806002815260200161746f60f01b81525086612793565b806121db8161406b565b915050612171565b6000610729825490565b60006109b083836127e2565b6001600160a01b03841661222357604051632bfa23e760e11b8152600060048201526024016108c9565b6001600160a01b03851661224c57604051626a0d4560e21b8152600060048201526024016108c9565b612259858585858561280c565b5050505050565b6001600160a01b03831661228957604051626a0d4560e21b8152600060048201526024016108c9565b6113cc83600084846040518060200160405280600081525061280c565b600080546001600160a01b038381166001600160a01b0319831681178455604051919092169283917f8be0079c531659141344cd1fd0a4f28419497f9722a3daafe3b4186f6b6457e09190a35050565b606060006109b08361285f565b60008111801561231557506127108111155b61235a5760405162461bcd60e51b8152602060048201526016602482015275496e76616c6964206665652070657263656e7461676560501b60448201526064016108c9565b6127108160185461236b9190614084565b11156123895760405162461bcd60e51b81526004016108c99061413d565b60005b60175481101561242c57826001600160a01b0316601782815481106123b3576123b3613fe1565b60009182526020909120600290910201546001600160a01b03160361241a5760405162461bcd60e51b815260206004820152601a60248201527f5374616b65686f6c64657220616c72656164792065786973747300000000000060448201526064016108c9565b806124248161406b565b91505061238c565b50604080518082019091526001600160a01b0383811682526020820183815260178054600181018255600091825293517fc624b66cc0138b8fabc209247f72d758e1cf3343756d543badbf24212bed8c15600290950294850180546001600160a01b0319169190941617909255517fc624b66cc0138b8fabc209247f72d758e1cf3343756d543badbf24212bed8c1690920191909155601880548392906124d4908490614084565b9091555050604080516001600160a01b0384168152602081018390527f120bfdd311a35c23d43060f2ed5044e464ade4940f2f49f164ab6e0b32eb83369101611471565b6001600160a01b0382166125415760405162ced3e160e81b8152600060048201526024016108c9565b6001600160a01b03838116600081815260046020908152604080832094871680845294825291829020805460ff191686151590811790915591519182527f17307eab39ab6107e8899845ad3d59bd9653f200f220920489ca2b5937696c31910160405180910390a3505050565b606060006125bb836128ba565b60010190506000816001600160401b038111156125da576125da6133f6565b6040519080825280601f01601f191660200182016040528015612604576020820181803683370190505b5090508181016020015b600019016f181899199a1a9b1b9c1cb0b131b232b360811b600a86061a8153600a850494508461260e57509392505050565b6001600160a01b03841661266a57604051632bfa23e760e11b8152600060048201526024016108c9565b6001600160a01b03851661269357604051626a0d4560e21b8152600060048201526024016108c9565b604080516001808252602082018690528183019081526060820185905260808201909252906126c5878784848761280c565b50505050505050565b6001600160a01b0383166126f757604051626a0d4560e21b8152600060048201526024016108c9565b604080516001808252602082018590528183019081526060820184905260a082019092526000608082018181529192916122599187918590859061280c565b6001600160a01b03841661276057604051632bfa23e760e11b8152600060048201526024016108c9565b60408051600180825260208201869052818301908152606082018590526080820190925290610ef060008784848761280c565b6127dc848484846040516024016127ad94939291906142c8565b60408051601f198184030181529190526020810180516001600160e01b0316631f118ca960e21b179052612992565b50505050565b60008260000182815481106127f9576127f9613fe1565b9060005260206000200154905092915050565b6128188585858561299b565b6001600160a01b038416156122595782513390600103612851576020848101519084015161284a838989858589612c53565b5050610ef0565b610ef0818787878787612d77565b606081600001805480602002602001604051908101604052809291908181526020018280548015610a3f57602002820191906000526020600020905b81548152602001906001019080831161289b5750505050509050919050565b60008072184f03e93ff9f4daa797ed6e38ed64bf6a1f0160401b83106128f95772184f03e93ff9f4daa797ed6e38ed64bf6a1f0160401b830492506040015b6d04ee2d6d415b85acef81000000008310612925576d04ee2d6d415b85acef8100000000830492506020015b662386f26fc10000831061294357662386f26fc10000830492506010015b6305f5e100831061295b576305f5e100830492506008015b612710831061296f57612710830492506004015b60648310612981576064830492506002015b600a83106107295760010192915050565b61079081612e60565b6129a784848484612e81565b60005b8251811015612b135760008282815181106129c7576129c7613fe1565b60200260200101511115612b01576001600160a01b03851615612a9457612a07858483815181106129fa576129fa613fe1565b6020026020010151610705565b600003612a9457612a5e838281518110612a2357612a23613fe1565b602002602001015160126000886001600160a01b03166001600160a01b03168152602001908152602001600020612fdb90919063ffffffff16565b506001600160a01b0385166000908152601260205260409020612a80906121e3565b600003612a9457612a92601386612fe7565b505b6001600160a01b03841615612b0157612af3838281518110612ab857612ab8613fe1565b602002602001015160126000876001600160a01b03166001600160a01b03168152602001908152602001600020612ffc90919063ffffffff16565b50612aff601385613008565b505b80612b0b8161406b565b9150506129aa565b506001600160a01b0384161580612b3157506001600160a01b038316155b6127dc57600f5460ff16612b875760405162461bcd60e51b815260206004820152601960248201527f5472616e736665727320617265206e6f7420616c6c6f7765640000000000000060448201526064016108c9565b600f54610100900460ff16156127dc573360009081526015602052604090205460ff16612bef5760405162461bcd60e51b815260206004820152601660248201527514d95b99195c881b9bdd081dda1a5d195b1a5cdd195960521b60448201526064016108c9565b6001600160a01b03831660009081526015602052604090205460ff166127dc5760405162461bcd60e51b8152602060048201526019602482015278149958da5c1a595b9d081b9bdd081dda1a5d195b1a5cdd1959603a1b60448201526064016108c9565b6001600160a01b0384163b15610ef05760405163f23a6e6160e01b81526001600160a01b0385169063f23a6e6190612c97908990899088908890889060040161430d565b6020604051808303816000875af1925050508015612cd2575060408051601f3d908101601f19168201909252612ccf91810190614347565b60015b612d3b573d808015612d00576040519150601f19603f3d011682016040523d82523d6000602084013e612d05565b606091505b508051600003612d3357604051632bfa23e760e11b81526001600160a01b03861660048201526024016108c9565b805181602001fd5b6001600160e01b0319811663f23a6e6160e01b146126c557604051632bfa23e760e11b81526001600160a01b03861660048201526024016108c9565b6001600160a01b0384163b15610ef05760405163bc197c8160e01b81526001600160a01b0385169063bc197c8190612dbb9089908990889088908890600401614364565b6020604051808303816000875af1925050508015612df6575060408051601f3d908101601f19168201909252612df391810190614347565b60015b612e24573d808015612d00576040519150601f19603f3d011682016040523d82523d6000602084013e612d05565b6001600160e01b0319811663bc197c8160e01b146126c557604051632bfa23e760e11b81526001600160a01b03861660048201526024016108c9565b60006a636f6e736f6c652e6c6f679050600080835160208501845afa505050565b612e8d8484848461301d565b6001600160a01b038416612f40576000805b8351811015612f26576000838281518110612ebc57612ebc613fe1565b602002602001015190508060066000878581518110612edd57612edd613fe1565b602002602001015181526020019081526020016000206000828254612f029190614084565b90915550612f1290508184614084565b92505080612f1f9061406b565b9050612e9f565b508060076000828254612f399190614084565b9091555050505b6001600160a01b0383166127dc576000805b8351811015612fca576000838281518110612f6f57612f6f613fe1565b602002602001015190508060066000878581518110612f9057612f90613fe1565b602002602001015181526020019081526020016000206000828254039250508190555080830192505080612fc39061406b565b9050612f52565b506007805491909103905550505050565b60006109b08383613240565b60006109b0836001600160a01b038416613240565b60006109b08383613333565b60006109b0836001600160a01b038416613333565b805182511461304c5781518151604051635b05999160e01b8152600481019290925260248201526044016108c9565b3360005b8351811015613161576020818102858101820151908501909101516001600160a01b038816156131075760008281526003602090815260408083206001600160a01b038c168452909152902054818110156130de576040516303dee4c560e01b81526001600160a01b038a1660048201526024810182905260448101839052606481018490526084016108c9565b60008381526003602090815260408083206001600160a01b038d16845290915290209082900390555b6001600160a01b0387161561314e5760008281526003602090815260408083206001600160a01b038b16845290915281208054839290613148908490614084565b90915550505b50508061315a9061406b565b9050613050565b5082516001036131e25760208301516000906020840151909150856001600160a01b0316876001600160a01b0316846001600160a01b03167fc3d58168c5ae7397731d063d5bbf3d657854427343f4c083240f7aacaa2d0f6285856040516131d3929190918252602082015260400190565b60405180910390a45050612259565b836001600160a01b0316856001600160a01b0316826001600160a01b03167f4a39dc06d4c0dbc64b70af90fd698a233a518aa5d07e595d983b8c0526c8f7fb86866040516132319291906143c2565b60405180910390a45050505050565b60008181526001830160205260408120548015613329576000613264600183614026565b855490915060009061327890600190614026565b90508082146132dd57600086600001828154811061329857613298613fe1565b90600052602060002001549050808760000184815481106132bb576132bb613fe1565b6000918252602080832090910192909255918252600188019052604090208390555b85548690806132ee576132ee6141ad565b600190038181906000526020600020016000905590558560010160008681526020019081526020016000206000905560019350505050610729565b6000915050610729565b600081815260018301602052604081205461337a57508154600181810184556000848152602080822090930184905584548482528286019093526040902091909155610729565b506000610729565b6001600160a01b038116811461079057600080fd5b600080604083850312156133aa57600080fd5b82356133b581613382565b946020939093013593505050565b6001600160e01b03198116811461079057600080fd5b6000602082840312156133eb57600080fd5b81356109b0816133c3565b634e487b7160e01b600052604160045260246000fd5b604080519081016001600160401b038111828210171561342e5761342e6133f6565b60405290565b604051606081016001600160401b038111828210171561342e5761342e6133f6565b604051601f8201601f191681016001600160401b038111828210171561347e5761347e6133f6565b604052919050565b600082601f83011261349757600080fd5b81356001600160401b038111156134b0576134b06133f6565b6134c3601f8201601f1916602001613456565b8181528460208386010111156134d857600080fd5b816020850160208301376000918101602001919091529392505050565b60006020828403121561350757600080fd5b81356001600160401b0381111561351d57600080fd5b61352984828501613486565b949350505050565b60005b8381101561354c578181015183820152602001613534565b50506000910152565b6000815180845261356d816020860160208601613531565b601f01601f19169290920160200192915050565b6020815260006109b06020830184613555565b803563ffffffff811681146135a857600080fd5b919050565b60006001600160401b038211156135c6576135c66133f6565b5060051b60200190565b600082601f8301126135e157600080fd5b813560206135f66135f1836135ad565b613456565b82815260059290921b8401810191818101908684111561361557600080fd5b8286015b848110156136545780356001600160401b038111156136385760008081fd5b6136468986838b0101613486565b845250918301918301613619565b509695505050505050565b600081830360a081121561367257600080fd5b61367a61340c565b9150608081121561368a57600080fd5b50604051608081016001600160401b0382821081831117156136ae576136ae6133f6565b8160405284358352602085013591506136c682613382565b8160208401526136d860408601613594565b60408401526136e960608601613594565b60608401529183526080840135918083111561370457600080fd5b5050613712848285016135d0565b60208301525092915050565b60006020828403121561373057600080fd5b81356001600160401b038082111561374757600080fd5b908301906040828603121561375b57600080fd5b61376361340c565b82358281111561377257600080fd5b83016060818803121561378457600080fd5b61378c613434565b81358481111561379b57600080fd5b6137a789828501613486565b8252506020820135848111156137bc57600080fd5b6137c889828501613486565b6020830152506040820135848111156137e057600080fd5b6137ec89828501613486565b60408301525082525060208301358281111561380757600080fd5b6138138782860161365f565b60208301525095945050505050565b60006020828403121561383457600080fd5b5035919050565b6000602080838503121561384e57600080fd5b82356001600160401b0381111561386457600080fd5b8301601f8101851361387557600080fd5b80356138836135f1826135ad565b81815260069190911b820183019083810190878311156138a257600080fd5b928401925b828410156138ee57604084890312156138c05760008081fd5b6138c861340c565b84356138d381613382565b815284860135868201528252604090930192908401906138a7565b979650505050505050565b6000806040838503121561390c57600080fd5b50508035926020909101359150565b6020808252825182820181905260009190848201906040850190845b8181101561395c5783516001600160a01b031683529284019291840191600101613937565b50909695505050505050565b60006020828403121561397a57600080fd5b81356109b081613382565b600082601f83011261399657600080fd5b813560206139a66135f1836135ad565b82815260059290921b840181019181810190868411156139c557600080fd5b8286015b8481101561365457803583529183019183016139c9565b600080600080600060a086880312156139f857600080fd5b8535613a0381613382565b94506020860135613a1381613382565b935060408601356001600160401b0380821115613a2f57600080fd5b613a3b89838a01613985565b94506060880135915080821115613a5157600080fd5b613a5d89838a01613985565b93506080880135915080821115613a7357600080fd5b50613a8088828901613486565b9150509295509295909350565b60008060408385031215613aa057600080fd5b82356001600160401b0380821115613ab757600080fd5b613ac386838701613486565b93506020850135915080821115613ad957600080fd5b50613ae685828601613486565b9150509250929050565b60008060408385031215613b0357600080fd5b82356001600160401b0380821115613b1a57600080fd5b818501915085601f830112613b2e57600080fd5b81356020613b3e6135f1836135ad565b82815260059290921b84018101918181019089841115613b5d57600080fd5b948201945b83861015613b84578535613b7581613382565b82529482019490820190613b62565b96505086013592505080821115613b9a57600080fd5b50613ae685828601613985565b600081518084526020808501945080840160005b83811015613bd757815187529582019590820190600101613bbb565b509495945050505050565b6020815260006109b06020830184613ba7565b801515811461079057600080fd5b60006020808385031215613c1657600080fd5b82356001600160401b03811115613c2c57600080fd5b8301601f81018513613c3d57600080fd5b8035613c4b6135f1826135ad565b81815260069190911b82018301908381019087831115613c6a57600080fd5b928401925b828410156138ee5760408489031215613c885760008081fd5b613c9061340c565b8435613c9b81613382565b815284860135613caa81613bf5565b8187015282526040939093019290840190613c6f565b600080600060608486031215613cd557600080fd5b8335613ce081613382565b925060208401356001600160401b0380821115613cfc57600080fd5b613d0887838801613985565b93506040860135915080821115613d1e57600080fd5b50613d2b86828701613985565b9150509250925092565b600060208284031215613d4757600080fd5b81356109b081613bf5565b60008060408385031215613d6557600080fd5b8235613d7081613382565b91506020830135613d8081613bf5565b809150509250929050565b60008060408385031215613d9e57600080fd5b8235613da981613382565b91506020830135613d8081613382565b600080600080600060a08688031215613dd157600080fd5b8535613ddc81613382565b94506020860135613dec81613382565b9350604086013592506060860135915060808601356001600160401b03811115613e1557600080fd5b613a8088828901613486565b600080600060608486031215613e3657600080fd5b8335613e4181613382565b95602085013595506040909401359392505050565b600181811c90821680613e6a57607f821691505b602082108103613e8a57634e487b7160e01b600052602260045260246000fd5b50919050565b6000602080835283516040828501528051606080860152613eb460c0860182613555565b905082820151605f1980878403016080880152613ed18383613555565b925060408401519350808784030160a08801525050613ef08183613555565b83870151601f1987830301604080890191909152815180518452808701516001600160a01b0316848801528082015163ffffffff908116928501929092526060908101519091169083015284015160a06080830181905281519083018190529193508401915060c0600582901b84018101919084019060005b81811015613f975760bf19868503018352613f85848651613555565b94870194935091860191600101613f69565b509198975050505050505050565b8481526001600160a01b0384166020820152608060408201819052600090613fcf90830185613555565b82810360608401526138ee8185613555565b634e487b7160e01b600052603260045260246000fd5b634e487b7160e01b600052601160045260246000fd5b60ff828116828216039081111561072957610729613ff7565b8181038181111561072957610729613ff7565b6001600160a01b0382811682821681810283169291811582850482141761406257614062613ff7565b50505092915050565b60006001820161407d5761407d613ff7565b5060010190565b8082018082111561072957610729613ff7565b6000602082840312156140a957600080fd5b5051919050565b6000602082840312156140c257600080fd5b81516109b081613bf5565b808202811582820484141761072957610729613ff7565b60008261410157634e487b7160e01b600052601260045260246000fd5b500490565b60208082526017908201527f5374616b65686f6c6465727320617265206c6f636b6564000000000000000000604082015260600190565b60208082526021908201527f546f74616c206665652070657263656e746167652065786365656473203130306040820152602560f81b606082015260800190565b60008351614190818460208801613531565b8351908301906141a4818360208801613531565b01949350505050565b634e487b7160e01b600052603160045260246000fd5b601f8211156113cc57600081815260208120601f850160051c810160208610156141ea5750805b601f850160051c820191505b81811015610ef0578281556001016141f6565b81516001600160401b03811115614222576142226133f6565b614236816142308454613e56565b846141c3565b602080601f83116001811461426b57600084156142535750858301515b600019600386901b1c1916600185901b178555610ef0565b600085815260208120601f198616915b8281101561429a5788860151825594840194600190910190840161427b565b50858210156142b85787850151600019600388901b60f8161c191681555b5050505050600190811b01905550565b6080815260006142db6080830187613555565b85602084015282810360408401526142f38186613555565b91505060018060a01b038316606083015295945050505050565b6001600160a01b03868116825285166020820152604081018490526060810183905260a0608082018190526000906138ee90830184613555565b60006020828403121561435957600080fd5b81516109b0816133c3565b6001600160a01b0386811682528516602082015260a06040820181905260009061439090830186613ba7565b82810360608401526143a28186613ba7565b905082810360808401526143b68185613555565b98975050505050505050565b6040815260006143d56040830185613ba7565b82810360208401526143e78185613ba7565b9594505050505056fea2646970667358221220ba2a0392f4336adbec1865173bda687168ab22a3b4794d34b69016b0be39e06d64736f6c63430008140033","linkReferences":{}},"methodIdentifiers":{"addStakeholder(address,uint256)":"9aec312e","balanceOf(address,uint256)":"00fdd58e","balanceOfBatch(address[],uint256[])":"4e1273f4","burn(address,uint256,uint256)":"f5298aca","burnBatch(address,uint256[],uint256[])":"6b20c454","currentSupply()":"771282f6","distribute((address,uint256)[])":"1c378573","distributionsCounter()":"80747675","erc20Address()":"276184ae","erc20Token()":"8a13eea7","eventAddress()":"fad56779","exists(uint256)":"4f558e79","extractFieldFromContext(string,string)":"3755667e","get()":"6d4ce63c","getTicketHolders(uint256,uint256)":"20ced105","getTokensByUser(address)":"80370075","initialSupply()":"378dc3dc","isApprovedForAll(address,address)":"e985e9c5","isWhitelisted(address)":"3af32abf","maxSupply()":"d5abeb01","name()":"06fdde03","nextTokenId()":"75794a3c","owner()":"8da5cb5b","ownerSmartWallet()":"bbedb38e","price()":"a035b1fe","removeStakeholder(uint256)":"cf724bc9","renounceOwnership()":"715018a6","safeBatchTransferFrom(address,address,uint256[],uint256[],bytes)":"2eb2c2d6","safeTransferFrom(address,address,uint256,uint256,bytes)":"f242432a","setApprovalForAll(address,bool)":"a22cb465","setSmartWallet(address)":"2687f0f0","setTransferable(bool)":"9cd23707","setURI(string)":"02fe5305","stakeholders(uint256)":"1d6b8b72","stakeholdersCounter()":"acea082b","stakeholdersLocked()":"bcd2d977","stringToAddress(string)":"15706fdf","supportsInterface(bytes4)":"01ffc9a7","symbol()":"95d89b41","tokenURI(uint256)":"c87b56dd","totalFeePercentage()":"1a478174","totalSupply()":"18160ddd","totalSupply(uint256)":"bd85b039","transferOwnership(address)":"f2fde38b","transferable()":"92ff0d31","updateStakeholder(uint256,uint256)":"c64c8cfa","updateSupply(uint256)":"6bd08049","updateWhitelist((address,bool)[])":"54f2a4d3","uri(uint256)":"0e89341c","userHasToken(address,uint256)":"0ab464f0","verifyProofAndMint(((string,string,string),((bytes32,address,uint32,uint32),bytes[])))":"07788c7c","whitelistOnly()":"4b4687b5"},"id":48}