{"abi":[{"type":"constructor","inputs":[{"name":"config","type":"tuple","internalType":"struct Library.TicketConstructor","components":[{"name":"_owner","type":"address","internalType":"address"},{"name":"_ownerSmartWallet","type":"address","internalType":"address"},{"name":"_eventAddress","type":"address","internalType":"address"},{"name":"_baseURI","type":"string","internalType":"string"},{"name":"_name","type":"string","internalType":"string"},{"name":"_symbol","type":"string","internalType":"string"},{"name":"_erc20Address","type":"address","internalType":"address"},{"name":"_price","type":"uint256","internalType":"uint256"},{"name":"_initialSupply","type":"uint256","internalType":"uint256"},{"name":"_maxSupply","type":"uint256","internalType":"uint256"},{"name":"_transferable","type":"bool","internalType":"bool"},{"name":"_whitelistOnly","type":"bool","internalType":"bool"},{"name":"_stakeholders","type":"tuple[]","internalType":"struct Library.Stakeholder[]","components":[{"name":"wallet","type":"address","internalType":"address payable"},{"name":"feePercentage","type":"uint256","internalType":"uint256"}]}]}],"stateMutability":"nonpayable"},{"type":"function","name":"addStakeholder","inputs":[{"name":"_wallet","type":"address","internalType":"address payable"},{"name":"_feePercentage","type":"uint256","internalType":"uint256"}],"outputs":[],"stateMutability":"nonpayable"},{"type":"function","name":"balanceOf","inputs":[{"name":"account","type":"address","internalType":"address"},{"name":"id","type":"uint256","internalType":"uint256"}],"outputs":[{"name":"","type":"uint256","internalType":"uint256"}],"stateMutability":"view"},{"type":"function","name":"balanceOfBatch","inputs":[{"name":"accounts","type":"address[]","internalType":"address[]"},{"name":"ids","type":"uint256[]","internalType":"uint256[]"}],"outputs":[{"name":"","type":"uint256[]","internalType":"uint256[]"}],"stateMutability":"view"},{"type":"function","name":"burn","inputs":[{"name":"account","type":"address","internalType":"address"},{"name":"id","type":"uint256","internalType":"uint256"},{"name":"value","type":"uint256","internalType":"uint256"}],"outputs":[],"stateMutability":"nonpayable"},{"type":"function","name":"burnBatch","inputs":[{"name":"account","type":"address","internalType":"address"},{"name":"ids","type":"uint256[]","internalType":"uint256[]"},{"name":"values","type":"uint256[]","internalType":"uint256[]"}],"outputs":[],"stateMutability":"nonpayable"},{"type":"function","name":"currentSupply","inputs":[],"outputs":[{"name":"","type":"uint256","internalType":"uint256"}],"stateMutability":"view"},{"type":"function","name":"distribute","inputs":[{"name":"_distributions","type":"tuple[]","internalType":"struct Ticket.Distribution[]","components":[{"name":"recipient","type":"address","internalType":"address"},{"name":"amount","type":"uint256","internalType":"uint256"}]}],"outputs":[],"stateMutability":"nonpayable"},{"type":"function","name":"erc20Address","inputs":[],"outputs":[{"name":"","type":"address","internalType":"address"}],"stateMutability":"view"},{"type":"function","name":"erc20Token","inputs":[],"outputs":[{"name":"","type":"address","internalType":"contract IERC20"}],"stateMutability":"view"},{"type":"function","name":"eventAddress","inputs":[],"outputs":[{"name":"","type":"address","internalType":"address"}],"stateMutability":"view"},{"type":"function","name":"exists","inputs":[{"name":"id","type":"uint256","internalType":"uint256"}],"outputs":[{"name":"","type":"bool","internalType":"bool"}],"stateMutability":"view"},{"type":"function","name":"get","inputs":[],"outputs":[],"stateMutability":"nonpayable"},{"type":"function","name":"getTicketHolders","inputs":[{"name":"start","type":"uint256","internalType":"uint256"},{"name":"pageSize","type":"uint256","internalType":"uint256"}],"outputs":[{"name":"","type":"address[]","internalType":"address[]"}],"stateMutability":"view"},{"type":"function","name":"getTokensByUser","inputs":[{"name":"user","type":"address","internalType":"address"}],"outputs":[{"name":"","type":"uint256[]","internalType":"uint256[]"}],"stateMutability":"view"},{"type":"function","name":"initialSupply","inputs":[],"outputs":[{"name":"","type":"uint256","internalType":"uint256"}],"stateMutability":"view"},{"type":"function","name":"isApprovedForAll","inputs":[{"name":"account","type":"address","internalType":"address"},{"name":"operator","type":"address","internalType":"address"}],"outputs":[{"name":"","type":"bool","internalType":"bool"}],"stateMutability":"view"},{"type":"function","name":"isWhitelisted","inputs":[{"name":"","type":"address","internalType":"address"}],"outputs":[{"name":"","type":"bool","internalType":"bool"}],"stateMutability":"view"},{"type":"function","name":"maxSupply","inputs":[],"outputs":[{"name":"","type":"uint256","internalType":"uint256"}],"stateMutability":"view"},{"type":"function","name":"name","inputs":[],"outputs":[{"name":"","type":"string","internalType":"string"}],"stateMutability":"view"},{"type":"function","name":"nextTokenId","inputs":[],"outputs":[{"name":"","type":"uint256","internalType":"uint256"}],"stateMutability":"view"},{"type":"function","name":"owner","inputs":[],"outputs":[{"name":"","type":"address","internalType":"address"}],"stateMutability":"view"},{"type":"function","name":"ownerSmartWallet","inputs":[],"outputs":[{"name":"","type":"address","internalType":"address"}],"stateMutability":"view"},{"type":"function","name":"price","inputs":[],"outputs":[{"name":"","type":"uint256","internalType":"uint256"}],"stateMutability":"view"},{"type":"function","name":"removeStakeholder","inputs":[{"name":"_index","type":"uint256","internalType":"uint256"}],"outputs":[],"stateMutability":"nonpayable"},{"type":"function","name":"renounceOwnership","inputs":[],"outputs":[],"stateMutability":"nonpayable"},{"type":"function","name":"safeBatchTransferFrom","inputs":[{"name":"from","type":"address","internalType":"address"},{"name":"to","type":"address","internalType":"address"},{"name":"ids","type":"uint256[]","internalType":"uint256[]"},{"name":"values","type":"uint256[]","internalType":"uint256[]"},{"name":"data","type":"bytes","internalType":"bytes"}],"outputs":[],"stateMutability":"nonpayable"},{"type":"function","name":"safeTransferFrom","inputs":[{"name":"from","type":"address","internalType":"address"},{"name":"to","type":"address","internalType":"address"},{"name":"id","type":"uint256","internalType":"uint256"},{"name":"value","type":"uint256","internalType":"uint256"},{"name":"data","type":"bytes","internalType":"bytes"}],"outputs":[],"stateMutability":"nonpayable"},{"type":"function","name":"setApprovalForAll","inputs":[{"name":"operator","type":"address","internalType":"address"},{"name":"approved","type":"bool","internalType":"bool"}],"outputs":[],"stateMutability":"nonpayable"},{"type":"function","name":"setSmartWallet","inputs":[{"name":"_smartWallet","type":"address","internalType":"address"}],"outputs":[],"stateMutability":"nonpayable"},{"type":"function","name":"setTransferable","inputs":[{"name":"_transferable","type":"bool","internalType":"bool"}],"outputs":[],"stateMutability":"nonpayable"},{"type":"function","name":"setURI","inputs":[{"name":"newuri","type":"string","internalType":"string"}],"outputs":[],"stateMutability":"nonpayable"},{"type":"function","name":"stakeholders","inputs":[{"name":"","type":"uint256","internalType":"uint256"}],"outputs":[{"name":"wallet","type":"address","internalType":"address payable"},{"name":"feePercentage","type":"uint256","internalType":"uint256"}],"stateMutability":"view"},{"type":"function","name":"stakeholdersCounter","inputs":[],"outputs":[{"name":"","type":"uint256","internalType":"uint256"}],"stateMutability":"view"},{"type":"function","name":"stakeholdersLocked","inputs":[],"outputs":[{"name":"","type":"bool","internalType":"bool"}],"stateMutability":"view"},{"type":"function","name":"supportsInterface","inputs":[{"name":"interfaceId","type":"bytes4","internalType":"bytes4"}],"outputs":[{"name":"","type":"bool","internalType":"bool"}],"stateMutability":"view"},{"type":"function","name":"symbol","inputs":[],"outputs":[{"name":"","type":"string","internalType":"string"}],"stateMutability":"view"},{"type":"function","name":"tokenURI","inputs":[{"name":"_tokenId","type":"uint256","internalType":"uint256"}],"outputs":[{"name":"","type":"string","internalType":"string"}],"stateMutability":"view"},{"type":"function","name":"totalFeePercentage","inputs":[],"outputs":[{"name":"","type":"uint256","internalType":"uint256"}],"stateMutability":"view"},{"type":"function","name":"totalSupply","inputs":[],"outputs":[{"name":"","type":"uint256","internalType":"uint256"}],"stateMutability":"view"},{"type":"function","name":"totalSupply","inputs":[{"name":"id","type":"uint256","internalType":"uint256"}],"outputs":[{"name":"","type":"uint256","internalType":"uint256"}],"stateMutability":"view"},{"type":"function","name":"transferOwnership","inputs":[{"name":"newOwner","type":"address","internalType":"address"}],"outputs":[],"stateMutability":"nonpayable"},{"type":"function","name":"transferable","inputs":[],"outputs":[{"name":"","type":"bool","internalType":"bool"}],"stateMutability":"view"},{"type":"function","name":"updateStakeholder","inputs":[{"name":"_index","type":"uint256","internalType":"uint256"},{"name":"_feePercentage","type":"uint256","internalType":"uint256"}],"outputs":[],"stateMutability":"nonpayable"},{"type":"function","name":"updateSupply","inputs":[{"name":"_additionalSupply","type":"uint256","internalType":"uint256"}],"outputs":[],"stateMutability":"nonpayable"},{"type":"function","name":"updateWhitelist","inputs":[{"name":"_whitelistUpdates","type":"tuple[]","internalType":"struct Ticket.Whitelist[]","components":[{"name":"user","type":"address","internalType":"address"},{"name":"status","type":"bool","internalType":"bool"}]}],"outputs":[],"stateMutability":"nonpayable"},{"type":"function","name":"uri","inputs":[{"name":"","type":"uint256","internalType":"uint256"}],"outputs":[{"name":"","type":"string","internalType":"string"}],"stateMutability":"view"},{"type":"function","name":"userHasToken","inputs":[{"name":"user","type":"address","internalType":"address"},{"name":"tokenId","type":"uint256","internalType":"uint256"}],"outputs":[{"name":"","type":"bool","internalType":"bool"}],"stateMutability":"view"},{"type":"function","name":"whitelistOnly","inputs":[],"outputs":[{"name":"","type":"bool","internalType":"bool"}],"stateMutability":"view"},{"type":"event","name":"ApprovalForAll","inputs":[{"name":"account","type":"address","indexed":true,"internalType":"address"},{"name":"operator","type":"address","indexed":true,"internalType":"address"},{"name":"approved","type":"bool","indexed":false,"internalType":"bool"}],"anonymous":false},{"type":"event","name":"OwnershipTransferred","inputs":[{"name":"previousOwner","type":"address","indexed":true,"internalType":"address"},{"name":"newOwner","type":"address","indexed":true,"internalType":"address"}],"anonymous":false},{"type":"event","name":"SmartWalletUpdated","inputs":[{"name":"previousWallet","type":"address","indexed":true,"internalType":"address"},{"name":"newWallet","type":"address","indexed":true,"internalType":"address"}],"anonymous":false},{"type":"event","name":"StakeholderAdded","inputs":[{"name":"wallet","type":"address","indexed":false,"internalType":"address"},{"name":"feePercentage","type":"uint256","indexed":false,"internalType":"uint256"}],"anonymous":false},{"type":"event","name":"StakeholderRemoved","inputs":[{"name":"wallet","type":"address","indexed":false,"internalType":"address"}],"anonymous":false},{"type":"event","name":"StakeholderUpdated","inputs":[{"name":"wallet","type":"address","indexed":false,"internalType":"address"},{"name":"feePercentage","type":"uint256","indexed":false,"internalType":"uint256"}],"anonymous":false},{"type":"event","name":"StakeholdersLocked","inputs":[],"anonymous":false},{"type":"event","name":"SupplyUpdated","inputs":[{"name":"newSupply","type":"uint256","indexed":false,"internalType":"uint256"}],"anonymous":false},{"type":"event","name":"TransferBatch","inputs":[{"name":"operator","type":"address","indexed":true,"internalType":"address"},{"name":"from","type":"address","indexed":true,"internalType":"address"},{"name":"to","type":"address","indexed":true,"internalType":"address"},{"name":"ids","type":"uint256[]","indexed":false,"internalType":"uint256[]"},{"name":"values","type":"uint256[]","indexed":false,"internalType":"uint256[]"}],"anonymous":false},{"type":"event","name":"TransferSingle","inputs":[{"name":"operator","type":"address","indexed":true,"internalType":"address"},{"name":"from","type":"address","indexed":true,"internalType":"address"},{"name":"to","type":"address","indexed":true,"internalType":"address"},{"name":"id","type":"uint256","indexed":false,"internalType":"uint256"},{"name":"value","type":"uint256","indexed":false,"internalType":"uint256"}],"anonymous":false},{"type":"event","name":"URI","inputs":[{"name":"value","type":"string","indexed":false,"internalType":"string"},{"name":"id","type":"uint256","indexed":true,"internalType":"uint256"}],"anonymous":false},{"type":"error","name":"ERC1155InsufficientBalance","inputs":[{"name":"sender","type":"address","internalType":"address"},{"name":"balance","type":"uint256","internalType":"uint256"},{"name":"needed","type":"uint256","internalType":"uint256"},{"name":"tokenId","type":"uint256","internalType":"uint256"}]},{"type":"error","name":"ERC1155InvalidApprover","inputs":[{"name":"approver","type":"address","internalType":"address"}]},{"type":"error","name":"ERC1155InvalidArrayLength","inputs":[{"name":"idsLength","type":"uint256","internalType":"uint256"},{"name":"valuesLength","type":"uint256","internalType":"uint256"}]},{"type":"error","name":"ERC1155InvalidOperator","inputs":[{"name":"operator","type":"address","internalType":"address"}]},{"type":"error","name":"ERC1155InvalidReceiver","inputs":[{"name":"receiver","type":"address","internalType":"address"}]},{"type":"error","name":"ERC1155InvalidSender","inputs":[{"name":"sender","type":"address","internalType":"address"}]},{"type":"error","name":"ERC1155MissingApprovalForAll","inputs":[{"name":"operator","type":"address","internalType":"address"},{"name":"owner","type":"address","internalType":"address"}]},{"type":"error","name":"OwnableInvalidOwner","inputs":[{"name":"owner","type":"address","internalType":"address"}]},{"type":"error","name":"OwnableUnauthorizedAccount","inputs":[{"name":"account","type":"address","internalType":"address"}]}],"bytecode":{"object":"0x6080604052600160105560006011553480156200001b57600080fd5b5060405162004390380380620043908339810160408190526200003e91620007e9565b6060810151815160208301516080840151826001600160a01b0381166200008057604051631e4fbdf760e01b8152600060048201526024015b60405180910390fd5b6200008b81620002fb565b506001600160a01b038216620000e45760405162461bcd60e51b815260206004820152601660248201527f496e76616c69642077616c6c6574206164647265737300000000000000000000604482015260640162000077565b600180546001600160a01b0319166001600160a01b03841617905560026200010d8282620009fa565b5050505062000122816200034b60201b60201c565b508061012001518161010001511115620001895760405162461bcd60e51b815260206004820152602160248201527f496e697469616c20737570706c792065786365656473206d617820737570706c6044820152607960f81b606482015260840162000077565b6020810151600180546001600160a01b0319166001600160a01b039092169190911790556080810151600290620001c19082620009fa565b5060a0810151600b90620001d69082620009fa565b506040810151600880546001600160a01b03199081166001600160a01b039384161790915560c083015160098054831691909316908117909255600a8054909116909117905560e081015160115561010080820151600c819055610120830151600d55600e55610140820151600f805461016085015161ffff1990911692151561ff0019169290921791151590920217905560005b81610180015151811015620002eb57620002d6826101800151828151811062000298576200029862000ac6565b6020026020010151600001518361018001518381518110620002be57620002be62000ac6565b6020026020010151602001516200035d60201b60201c565b80620002e28162000af2565b9150506200026b565b5061018001515160195562000b2a565b600080546001600160a01b038381166001600160a01b0319831681178455604051919092169283917f8be0079c531659141344cd1fd0a4f28419497f9722a3daafe3b4186f6b6457e09190a35050565b6005620003598282620009fa565b5050565b6000811180156200037057506127108111155b620003be5760405162461bcd60e51b815260206004820152601660248201527f496e76616c6964206665652070657263656e7461676500000000000000000000604482015260640162000077565b61271081601754620003d1919062000b0e565b11156200042b5760405162461bcd60e51b815260206004820152602160248201527f546f74616c206665652070657263656e746167652065786365656473203130306044820152602560f81b606482015260840162000077565b60005b601654811015620004d757826001600160a01b03166016828154811062000459576200045962000ac6565b60009182526020909120600290910201546001600160a01b031603620004c25760405162461bcd60e51b815260206004820152601a60248201527f5374616b65686f6c64657220616c726561647920657869737473000000000000604482015260640162000077565b80620004ce8162000af2565b9150506200042e565b50604080518082019091526001600160a01b0383811682526020820183815260168054600181018255600091825293517fd833147d7dc355ba459fc788f669e58cfaf9dc25ddcd0702e87d69c7b5124289600290950294850180546001600160a01b0319169190941617909255517fd833147d7dc355ba459fc788f669e58cfaf9dc25ddcd0702e87d69c7b512428a90920191909155601780548392906200058190849062000b0e565b9091555050604080516001600160a01b0384168152602081018390527f120bfdd311a35c23d43060f2ed5044e464ade4940f2f49f164ab6e0b32eb8336910160405180910390a15050565b634e487b7160e01b600052604160045260246000fd5b604080519081016001600160401b0381118282101715620006075762000607620005cc565b60405290565b6040516101a081016001600160401b0381118282101715620006075762000607620005cc565b604051601f8201601f191681016001600160401b03811182821017156200065e576200065e620005cc565b604052919050565b6001600160a01b03811681146200067c57600080fd5b50565b80516200068c8162000666565b919050565b600082601f830112620006a357600080fd5b81516001600160401b03811115620006bf57620006bf620005cc565b6020620006d5601f8301601f1916820162000633565b8281528582848701011115620006ea57600080fd5b60005b838110156200070a578581018301518282018401528201620006ed565b506000928101909101919091529392505050565b805180151581146200068c57600080fd5b600082601f8301126200074157600080fd5b815160206001600160401b038211156200075f576200075f620005cc565b6200076f818360051b0162000633565b82815260069290921b840181019181810190868411156200078f57600080fd5b8286015b84811015620007de5760408189031215620007ae5760008081fd5b620007b8620005e2565b8151620007c58162000666565b8152818501518582015283529183019160400162000793565b509695505050505050565b600060208284031215620007fc57600080fd5b81516001600160401b03808211156200081457600080fd5b908301906101a082860312156200082a57600080fd5b620008346200060d565b6200083f836200067f565b81526200084f602084016200067f565b602082015262000862604084016200067f565b60408201526060830151828111156200087a57600080fd5b620008888782860162000691565b606083015250608083015182811115620008a157600080fd5b620008af8782860162000691565b60808301525060a083015182811115620008c857600080fd5b620008d68782860162000691565b60a083015250620008ea60c084016200067f565b60c082015260e08381015190820152610100808401519082015261012080840151908201526101406200091f8185016200071e565b90820152610160620009338482016200071e565b9082015261018083810151838111156200094c57600080fd5b6200095a888287016200072f565b918301919091525095945050505050565b600181811c908216806200098057607f821691505b602082108103620009a157634e487b7160e01b600052602260045260246000fd5b50919050565b601f821115620009f557600081815260208120601f850160051c81016020861015620009d05750805b601f850160051c820191505b81811015620009f157828155600101620009dc565b5050505b505050565b81516001600160401b0381111562000a165762000a16620005cc565b62000a2e8162000a2784546200096b565b84620009a7565b602080601f83116001811462000a66576000841562000a4d5750858301515b600019600386901b1c1916600185901b178555620009f1565b600085815260208120601f198616915b8281101562000a975788860151825594840194600190910190840162000a76565b508582101562000ab65787850151600019600388901b60f8161c191681555b5050505050600190811b01905550565b634e487b7160e01b600052603260045260246000fd5b634e487b7160e01b600052601160045260246000fd5b60006001820162000b075762000b0762000adc565b5060010190565b8082018082111562000b245762000b2462000adc565b92915050565b6138568062000b3a6000396000f3fe608060405234801561001057600080fd5b506004361061029f5760003560e01c806375794a3c11610167578063bbedb38e116100ce578063d5abeb0111610087578063d5abeb01146105ef578063e985e9c5146105f8578063f242432a1461060b578063f2fde38b1461061e578063f5298aca14610631578063fad567791461064457600080fd5b8063bbedb38e14610576578063bcd2d97714610589578063bd85b03914610596578063c64c8cfa146105b6578063c87b56dd146105c9578063cf724bc9146105dc57600080fd5b806395d89b411161012057806395d89b41146105235780639aec312e1461052b5780639cd237071461053e578063a035b1fe14610551578063a22cb4651461055a578063acea082b1461056d57600080fd5b806375794a3c146104cd578063771282f6146104d657806380370075146104df5780638a13eea7146104f25780638da5cb5b1461050557806392ff0d311461051657600080fd5b8063276184ae1161020b5780634f558e79116101c45780634f558e791461046257806354f2a4d3146104845780636b20c454146104975780636bd08049146104aa5780636d4ce63c146104bd578063715018a6146104c557600080fd5b8063276184ae146103c65780632eb2c2d6146103f1578063378dc3dc146104045780633af32abf1461040d5780634b4687b5146104305780634e1273f41461044257600080fd5b806318160ddd1161025d57806318160ddd1461033d5780631a478174146103455780631c3785731461034e5780631d6b8b721461036157806320ced105146103935780632687f0f0146103b357600080fd5b8062fdd58e146102a457806301ffc9a7146102ca57806302fe5305146102ed57806306fdde03146103025780630ab464f0146103175780630e89341c1461032a575b600080fd5b6102b76102b2366004612c1d565b610657565b6040519081526020015b60405180910390f35b6102dd6102d8366004612c5f565b610681565b60405190151581526020016102c1565b6103006102fb366004612d41565b6106d1565b005b61030a6106e5565b6040516102c19190612de1565b6102dd610325366004612c1d565b610773565b61030a610338366004612df4565b61079c565b6007546102b7565b6102b760175481565b61030061035c366004612e30565b610830565b61037461036f366004612df4565b610a12565b604080516001600160a01b0390931683526020830191909152016102c1565b6103a66103a1366004612ef3565b610a4a565b6040516102c19190612f15565b6103006103c1366004612f62565b610b26565b6009546103d9906001600160a01b031681565b6040516001600160a01b0390911681526020016102c1565b6103006103ff366004613005565b610bd6565b6102b7600c5481565b6102dd61041b366004612f62565b60156020526000908152604090205460ff1681565b600f546102dd90610100900460ff1681565b6104556104503660046130b2565b610c3d565b6040516102c191906131ae565b6102dd610470366004612df4565b600090815260066020526040902054151590565b6103006104923660046131cf565b610d11565b6103006104a536600461328c565b610d89565b6103006104b8366004612df4565b610ded565b610300610e99565b6103006113c2565b6102b760105481565b6102b7600e5481565b6104556104ed366004612f62565b6113d6565b600a546103d9906001600160a01b031681565b6000546001600160a01b03166103d9565b600f546102dd9060ff1681565b61030a6113fa565b610300610539366004612c1d565b611407565b61030061054c366004613301565b61143c565b6102b760115481565b61030061056836600461331e565b611457565b6102b760195481565b6001546103d9906001600160a01b031681565b6018546102dd9060ff1681565b6102b76105a4366004612df4565b60009081526006602052604090205490565b6103006105c4366004612ef3565b611462565b61030a6105d7366004612df4565b611647565b6103006105ea366004612df4565b611682565b6102b7600d5481565b6102dd610606366004613357565b61184c565b610300610619366004613385565b61187a565b61030061062c366004612f62565b6118d9565b61030061063f3660046133ed565b611914565b6008546103d9906001600160a01b031681565b60008181526003602090815260408083206001600160a01b03861684529091529020545b92915050565b60006001600160e01b03198216636cdb3d1360e11b14806106b257506001600160e01b031982166303a24d0760e21b145b8061067b57506301ffc9a760e01b6001600160e01b031983161461067b565b6106d961194a565b6106e2816119a5565b50565b600280546106f290613422565b80601f016020809104026020016040519081016040528092919081815260200182805461071e90613422565b801561076b5780601f106107405761010080835404028352916020019161076b565b820191906000526020600020905b81548152906001019060200180831161074e57829003601f168201915b505050505081565b6001600160a01b038216600090815260126020526040812061079590836119b1565b9392505050565b6060600580546107ab90613422565b80601f01602080910402602001604051908101604052809291908181526020018280546107d790613422565b80156108245780601f106107f957610100808354040283529160200191610824565b820191906000526020600020905b81548152906001019060200180831161080757829003601f168201915b50505050509050919050565b61083861194a565b6000805b82518110156109075760008382815181106108595761085961345c565b60200260200101519050600f60019054906101000a900460ff16156108e25780516001600160a01b031660009081526015602052604090205460ff166108e25760405162461bcd60e51b8152602060048201526019602482015278149958da5c1a595b9d081b9bdd081dda1a5d195b1a5cdd1959603a1b60448201526064015b60405180910390fd5b60208101516108f19084613488565b92505080806108ff9061349b565b91505061083c565b5080600e5410156109535760405162461bcd60e51b8152602060048201526016602482015275457863656564732063757272656e7420737570706c7960501b60448201526064016108d9565b600d5481600e546109649190613488565b11156109a75760405162461bcd60e51b815260206004820152601260248201527145786365656473206d617820737570706c7960701b60448201526064016108d9565b60005b82518110156109f65760008382815181106109c7576109c761345c565b602002602001015190506109e3816000015182602001516119c9565b50806109ee8161349b565b9150506109aa565b5080600e6000828254610a0991906134b4565b90915550505050565b60168181548110610a2257600080fd5b6000918252602090912060029091020180546001909101546001600160a01b03909116915082565b60606000610a586013611a69565b90506000610a668486613488565b905081811115610a735750805b6000610a7f86836134b4565b6001600160401b03811115610a9657610a96612c7c565b604051908082528060200260200182016040528015610abf578160200160208202803683370190505b509050855b82811015610b1c57610ad7601382611a73565b82610ae289846134b4565b81518110610af257610af261345c565b6001600160a01b039092166020928302919091019091015280610b148161349b565b915050610ac4565b5095945050505050565b610b2e61194a565b6001600160a01b038116610b845760405162461bcd60e51b815260206004820152601c60248201527f496e76616c696420736d6172742077616c6c657420616464726573730000000060448201526064016108d9565b600180546001600160a01b038381166001600160a01b0319831681179093556040519116919082907ff7b9883f256cf768ad054d3cfc455603983f3e2d2635d9dbe1a7f6f6546ca83a90600090a35050565b336001600160a01b0386168114801590610bf75750610bf5868261184c565b155b15610c285760405163711bec9160e11b81526001600160a01b038083166004830152871660248201526044016108d9565b610c358686868686611a7f565b505050505050565b60608151835114610c6e5781518351604051635b05999160e01b8152600481019290925260248201526044016108d9565b600083516001600160401b03811115610c8957610c89612c7c565b604051908082528060200260200182016040528015610cb2578160200160208202803683370190505b50905060005b8451811015610d0957602080820286010151610cdc90602080840287010151610657565b828281518110610cee57610cee61345c565b6020908102919091010152610d028161349b565b9050610cb8565b509392505050565b610d1961194a565b60005b8151811015610d85576000828281518110610d3957610d3961345c565b6020908102919091018101518082015190516001600160a01b0316600090815260159092526040909120805460ff19169115159190911790555080610d7d8161349b565b915050610d1c565b5050565b6001600160a01b0383163314801590610da95750610da7833361184c565b155b15610ddd57335b60405163711bec9160e11b81526001600160a01b03918216600482015290841660248201526044016108d9565b610de8838383611ae6565b505050565b610df561194a565b600d5481600e54610e069190613488565b1115610e495760405162461bcd60e51b815260206004820152601260248201527145786365656473206d617820737570706c7960701b60448201526064016108d9565b600081600e54610e599190613488565b600e8190556040518181529091507fea4bfee7f9fb38136c61cc04b6e56efc93eaf1beef326dbc47495b358385914c906020015b60405180910390a15050565b60185460ff16158015610eae57506001601054115b15610eea576018805460ff191660011790556040517f99f45970703817be58e8c9055b26d154559e46611c4ad7f5e361dd5077e19ec290600090a15b6011543390600003610f1957610f1481601054600160405180602001604052806000815250611b2c565b6113aa565b600a546040516370a0823160e01b81526001600160a01b03838116600483015260009216906370a0823190602401602060405180830381865afa158015610f64573d6000803e3d6000fd5b505050506040513d601f19601f82011682018060405250810190610f8891906134c7565b9050601154811015610fd35760405162461bcd60e51b8152602060048201526014602482015273496e73756666696369656e742062616c616e636560601b60448201526064016108d9565b600a54604051636eb1769f60e11b81526001600160a01b038481166004830152306024830152600092169063dd62ed3e90604401602060405180830381865afa158015611024573d6000803e3d6000fd5b505050506040513d601f19601f8201168201806040525081019061104891906134c7565b90506011548110156110955760405162461bcd60e51b8152602060048201526016602482015275496e73756666696369656e7420616c6c6f77616e636560501b60448201526064016108d9565b600a546011546040516323b872dd60e01b81526001600160a01b03868116600483015230602483015260448201929092529116906323b872dd906064016020604051808303816000875af11580156110f1573d6000803e3d6000fd5b505050506040513d601f19601f8201168201806040525081019061111591906134e0565b6111535760405162461bcd60e51b815260206004820152600f60248201526e151c985b9cd9995c8819985a5b1959608a1b60448201526064016108d9565b60115460005b6016548110156112c45760006127106016838154811061117b5761117b61345c565b90600052602060002090600202016001015460115461119a91906134fd565b6111a49190613514565b905080156112b157600a54601680546001600160a01b039092169163a9059cbb9190859081106111d6576111d661345c565b600091825260209091206002909102015460405160e083901b6001600160e01b03191681526001600160a01b039091166004820152602481018490526044016020604051808303816000875af1158015611234573d6000803e3d6000fd5b505050506040513d601f19601f8201168201806040525081019061125891906134e0565b6112a45760405162461bcd60e51b815260206004820152601f60248201527f5374616b65686f6c64657220666565207472616e73666572206661696c65640060448201526064016108d9565b6112ae81846134b4565b92505b50806112bc8161349b565b915050611159565b50801561138857600a5460015460405163a9059cbb60e01b81526001600160a01b0391821660048201526024810184905291169063a9059cbb906044016020604051808303816000875af1158015611320573d6000803e3d6000fd5b505050506040513d601f19601f8201168201806040525081019061134491906134e0565b6113885760405162461bcd60e51b815260206004820152601560248201527413dddb995c881d1c985b9cd9995c8819985a5b1959605a1b60448201526064016108d9565b6113a684601054600160405180602001604052806000815250611b2c565b5050505b601080549060006113ba8361349b565b919050555050565b6113ca61194a565b6113d46000611b89565b565b6001600160a01b038116600090815260126020526040902060609061067b90611bd9565b600b80546106f290613422565b61140f61194a565b60185460ff16156114325760405162461bcd60e51b81526004016108d990613536565b610d858282611be6565b61144461194a565b600f805460ff1916911515919091179055565b610d85338383611dfb565b61146a61194a565b60185460ff161561148d5760405162461bcd60e51b81526004016108d990613536565b60165482106114da5760405162461bcd60e51b8152602060048201526019602482015278092dcecc2d8d2c840e6e8c2d6cad0ded8c8cae440d2dcc8caf603b1b60448201526064016108d9565b6000811180156114ec57506127108111155b6115315760405162461bcd60e51b8152602060048201526016602482015275496e76616c6964206665652070657263656e7461676560501b60448201526064016108d9565b6000601683815481106115465761154661345c565b9060005260206000209060020201600101549050612710828260175461156c91906134b4565b6115769190613488565b11156115945760405162461bcd60e51b81526004016108d99061356d565b81601684815481106115a8576115a861345c565b90600052602060002090600202016001018190555081816017546115cc91906134b4565b6115d69190613488565b6017819055507f7a610a8f84e2f81e52d1bab080e29d1299c78e5982147fc2c39516e9770c1f45601684815481106116105761161061345c565b600091825260209182902060029091020154604080516001600160a01b0390921682529181018590520160405180910390a1505050565b60606116528261079c565b61165b83611e91565b60405160200161166c9291906135ae565b6040516020818303038152906040529050919050565b61168a61194a565b60185460ff16156116ad5760405162461bcd60e51b81526004016108d990613536565b60165481106116fa5760405162461bcd60e51b8152602060048201526019602482015278092dcecc2d8d2c840e6e8c2d6cad0ded8c8cae440d2dcc8caf603b1b60448201526064016108d9565b6016818154811061170d5761170d61345c565b9060005260206000209060020201600101546017600082825461173091906134b4565b925050819055507f8d36e95af41e9d50e4ca435702a0e868f35b4f71c1e390a2acc6c5c5651ef28b6016828154811061176b5761176b61345c565b6000918252602091829020600290910201546040516001600160a01b0390911681520160405180910390a1601680546117a6906001906134b4565b815481106117b6576117b661345c565b9060005260206000209060020201601682815481106117d7576117d761345c565b60009182526020909120825460029092020180546001600160a01b0319166001600160a01b039092169190911781556001918201549101556016805480611820576118206135dd565b60008281526020812060026000199093019283020180546001600160a01b031916815560010155905550565b6001600160a01b03918216600090815260046020908152604080832093909416825291909152205460ff1690565b336001600160a01b038616811480159061189b5750611899868261184c565b155b156118cc5760405163711bec9160e11b81526001600160a01b038083166004830152871660248201526044016108d9565b610c358686868686611f23565b6118e161194a565b6001600160a01b03811661190b57604051631e4fbdf760e01b8152600060048201526024016108d9565b6106e281611b89565b6001600160a01b03831633148015906119345750611932833361184c565b155b1561193f5733610db0565b610de8838383611fb1565b6000546001600160a01b031633148061196d57506001546001600160a01b031633145b6113d45760405162461bcd60e51b81526020600482015260096024820152682737ba1037bbb732b960b91b60448201526064016108d9565b6005610d858282613639565b60008181526001830160205260408120541515610795565b60005b81811015610de8576119f283601054600160405180602001604052806000815250611b2c565b611a416040518060400160405280600f81526020016e135a5b9d1959081d1bdad95b881251608a1b81525060105460405180604001604052806002815260200161746f60f01b81525086612019565b60108054906000611a518361349b565b91905055508080611a619061349b565b9150506119cc565b600061067b825490565b60006107958383612068565b6001600160a01b038416611aa957604051632bfa23e760e11b8152600060048201526024016108d9565b6001600160a01b038516611ad257604051626a0d4560e21b8152600060048201526024016108d9565b611adf8585858585612092565b5050505050565b6001600160a01b038316611b0f57604051626a0d4560e21b8152600060048201526024016108d9565b610de8836000848460405180602001604052806000815250612092565b6001600160a01b038416611b5657604051632bfa23e760e11b8152600060048201526024016108d9565b60408051600180825260208201869052818301908152606082018590526080820190925290610c35600087848487612092565b600080546001600160a01b038381166001600160a01b0319831681178455604051919092169283917f8be0079c531659141344cd1fd0a4f28419497f9722a3daafe3b4186f6b6457e09190a35050565b60606000610795836120e5565b600081118015611bf857506127108111155b611c3d5760405162461bcd60e51b8152602060048201526016602482015275496e76616c6964206665652070657263656e7461676560501b60448201526064016108d9565b61271081601754611c4e9190613488565b1115611c6c5760405162461bcd60e51b81526004016108d99061356d565b60005b601654811015611d0f57826001600160a01b031660168281548110611c9657611c9661345c565b60009182526020909120600290910201546001600160a01b031603611cfd5760405162461bcd60e51b815260206004820152601a60248201527f5374616b65686f6c64657220616c72656164792065786973747300000000000060448201526064016108d9565b80611d078161349b565b915050611c6f565b50604080518082019091526001600160a01b0383811682526020820183815260168054600181018255600091825293517fd833147d7dc355ba459fc788f669e58cfaf9dc25ddcd0702e87d69c7b5124289600290950294850180546001600160a01b0319169190941617909255517fd833147d7dc355ba459fc788f669e58cfaf9dc25ddcd0702e87d69c7b512428a9092019190915560178054839290611db7908490613488565b9091555050604080516001600160a01b0384168152602081018390527f120bfdd311a35c23d43060f2ed5044e464ade4940f2f49f164ab6e0b32eb83369101610e8d565b6001600160a01b038216611e245760405162ced3e160e81b8152600060048201526024016108d9565b6001600160a01b03838116600081815260046020908152604080832094871680845294825291829020805460ff191686151590811790915591519182527f17307eab39ab6107e8899845ad3d59bd9653f200f220920489ca2b5937696c31910160405180910390a3505050565b60606000611e9e83612140565b60010190506000816001600160401b03811115611ebd57611ebd612c7c565b6040519080825280601f01601f191660200182016040528015611ee7576020820181803683370190505b5090508181016020015b600019016f181899199a1a9b1b9c1cb0b131b232b360811b600a86061a8153600a8504945084611ef157509392505050565b6001600160a01b038416611f4d57604051632bfa23e760e11b8152600060048201526024016108d9565b6001600160a01b038516611f7657604051626a0d4560e21b8152600060048201526024016108d9565b60408051600180825260208201869052818301908152606082018590526080820190925290611fa88787848487612092565b50505050505050565b6001600160a01b038316611fda57604051626a0d4560e21b8152600060048201526024016108d9565b604080516001808252602082018590528183019081526060820184905260a08201909252600060808201818152919291611adf91879185908590612092565b6120628484848460405160240161203394939291906136f8565b60408051601f198184030181529190526020810180516001600160e01b0316631f118ca960e21b179052612218565b50505050565b600082600001828154811061207f5761207f61345c565b9060005260206000200154905092915050565b61209e85858585612221565b6001600160a01b03841615611adf57825133906001036120d757602084810151908401516120d08389898585896124d9565b5050610c35565b610c358187878787876125fd565b60608160000180548060200260200160405190810160405280929190818152602001828054801561082457602002820191906000526020600020905b8154815260200190600101908083116121215750505050509050919050565b60008072184f03e93ff9f4daa797ed6e38ed64bf6a1f0160401b831061217f5772184f03e93ff9f4daa797ed6e38ed64bf6a1f0160401b830492506040015b6d04ee2d6d415b85acef810000000083106121ab576d04ee2d6d415b85acef8100000000830492506020015b662386f26fc1000083106121c957662386f26fc10000830492506010015b6305f5e10083106121e1576305f5e100830492506008015b61271083106121f557612710830492506004015b60648310612207576064830492506002015b600a831061067b5760010192915050565b6106e2816126e6565b61222d84848484612707565b60005b825181101561239957600082828151811061224d5761224d61345c565b60200260200101511115612387576001600160a01b0385161561231a5761228d858483815181106122805761228061345c565b6020026020010151610657565b60000361231a576122e48382815181106122a9576122a961345c565b602002602001015160126000886001600160a01b03166001600160a01b0316815260200190815260200160002061286190919063ffffffff16565b506001600160a01b038516600090815260126020526040902061230690611a69565b60000361231a5761231860138661286d565b505b6001600160a01b038416156123875761237983828151811061233e5761233e61345c565b602002602001015160126000876001600160a01b03166001600160a01b0316815260200190815260200160002061288290919063ffffffff16565b5061238560138561288e565b505b806123918161349b565b915050612230565b506001600160a01b03841615806123b757506001600160a01b038316155b61206257600f5460ff1661240d5760405162461bcd60e51b815260206004820152601960248201527f5472616e736665727320617265206e6f7420616c6c6f7765640000000000000060448201526064016108d9565b600f54610100900460ff1615612062573360009081526015602052604090205460ff166124755760405162461bcd60e51b815260206004820152601660248201527514d95b99195c881b9bdd081dda1a5d195b1a5cdd195960521b60448201526064016108d9565b6001600160a01b03831660009081526015602052604090205460ff166120625760405162461bcd60e51b8152602060048201526019602482015278149958da5c1a595b9d081b9bdd081dda1a5d195b1a5cdd1959603a1b60448201526064016108d9565b6001600160a01b0384163b15610c355760405163f23a6e6160e01b81526001600160a01b0385169063f23a6e619061251d908990899088908890889060040161373d565b6020604051808303816000875af1925050508015612558575060408051601f3d908101601f1916820190925261255591810190613777565b60015b6125c1573d808015612586576040519150601f19603f3d011682016040523d82523d6000602084013e61258b565b606091505b5080516000036125b957604051632bfa23e760e11b81526001600160a01b03861660048201526024016108d9565b805181602001fd5b6001600160e01b0319811663f23a6e6160e01b14611fa857604051632bfa23e760e11b81526001600160a01b03861660048201526024016108d9565b6001600160a01b0384163b15610c355760405163bc197c8160e01b81526001600160a01b0385169063bc197c81906126419089908990889088908890600401613794565b6020604051808303816000875af192505050801561267c575060408051601f3d908101601f1916820190925261267991810190613777565b60015b6126aa573d808015612586576040519150601f19603f3d011682016040523d82523d6000602084013e61258b565b6001600160e01b0319811663bc197c8160e01b14611fa857604051632bfa23e760e11b81526001600160a01b03861660048201526024016108d9565b60006a636f6e736f6c652e6c6f679050600080835160208501845afa505050565b612713848484846128a3565b6001600160a01b0384166127c6576000805b83518110156127ac5760008382815181106127425761274261345c565b6020026020010151905080600660008785815181106127635761276361345c565b6020026020010151815260200190815260200160002060008282546127889190613488565b9091555061279890508184613488565b925050806127a59061349b565b9050612725565b5080600760008282546127bf9190613488565b9091555050505b6001600160a01b038316612062576000805b83518110156128505760008382815181106127f5576127f561345c565b6020026020010151905080600660008785815181106128165761281661345c565b6020026020010151815260200190815260200160002060008282540392505081905550808301925050806128499061349b565b90506127d8565b506007805491909103905550505050565b60006107958383612ac6565b6000610795836001600160a01b038416612ac6565b60006107958383612bb9565b6000610795836001600160a01b038416612bb9565b80518251146128d25781518151604051635b05999160e01b8152600481019290925260248201526044016108d9565b3360005b83518110156129e7576020818102858101820151908501909101516001600160a01b0388161561298d5760008281526003602090815260408083206001600160a01b038c16845290915290205481811015612964576040516303dee4c560e01b81526001600160a01b038a1660048201526024810182905260448101839052606481018490526084016108d9565b60008381526003602090815260408083206001600160a01b038d16845290915290209082900390555b6001600160a01b038716156129d45760008281526003602090815260408083206001600160a01b038b168452909152812080548392906129ce908490613488565b90915550505b5050806129e09061349b565b90506128d6565b508251600103612a685760208301516000906020840151909150856001600160a01b0316876001600160a01b0316846001600160a01b03167fc3d58168c5ae7397731d063d5bbf3d657854427343f4c083240f7aacaa2d0f628585604051612a59929190918252602082015260400190565b60405180910390a45050611adf565b836001600160a01b0316856001600160a01b0316826001600160a01b03167f4a39dc06d4c0dbc64b70af90fd698a233a518aa5d07e595d983b8c0526c8f7fb8686604051612ab79291906137f2565b60405180910390a45050505050565b60008181526001830160205260408120548015612baf576000612aea6001836134b4565b8554909150600090612afe906001906134b4565b9050808214612b63576000866000018281548110612b1e57612b1e61345c565b9060005260206000200154905080876000018481548110612b4157612b4161345c565b6000918252602080832090910192909255918252600188019052604090208390555b8554869080612b7457612b746135dd565b60019003818190600052602060002001600090559055856001016000868152602001908152602001600020600090556001935050505061067b565b600091505061067b565b6000818152600183016020526040812054612c005750815460018181018455600084815260208082209093018490558454848252828601909352604090209190915561067b565b50600061067b565b6001600160a01b03811681146106e257600080fd5b60008060408385031215612c3057600080fd5b8235612c3b81612c08565b946020939093013593505050565b6001600160e01b0319811681146106e257600080fd5b600060208284031215612c7157600080fd5b813561079581612c49565b634e487b7160e01b600052604160045260246000fd5b604080519081016001600160401b0381118282101715612cb457612cb4612c7c565b60405290565b604051601f8201601f191681016001600160401b0381118282101715612ce257612ce2612c7c565b604052919050565b60006001600160401b03831115612d0357612d03612c7c565b612d16601f8401601f1916602001612cba565b9050828152838383011115612d2a57600080fd5b828260208301376000602084830101529392505050565b600060208284031215612d5357600080fd5b81356001600160401b03811115612d6957600080fd5b8201601f81018413612d7a57600080fd5b612d8984823560208401612cea565b949350505050565b60005b83811015612dac578181015183820152602001612d94565b50506000910152565b60008151808452612dcd816020860160208601612d91565b601f01601f19169290920160200192915050565b6020815260006107956020830184612db5565b600060208284031215612e0657600080fd5b5035919050565b60006001600160401b03821115612e2657612e26612c7c565b5060051b60200190565b60006020808385031215612e4357600080fd5b82356001600160401b03811115612e5957600080fd5b8301601f81018513612e6a57600080fd5b8035612e7d612e7882612e0d565b612cba565b81815260069190911b82018301908381019087831115612e9c57600080fd5b928401925b82841015612ee85760408489031215612eba5760008081fd5b612ec2612c92565b8435612ecd81612c08565b81528486013586820152825260409093019290840190612ea1565b979650505050505050565b60008060408385031215612f0657600080fd5b50508035926020909101359150565b6020808252825182820181905260009190848201906040850190845b81811015612f565783516001600160a01b031683529284019291840191600101612f31565b50909695505050505050565b600060208284031215612f7457600080fd5b813561079581612c08565b600082601f830112612f9057600080fd5b81356020612fa0612e7883612e0d565b82815260059290921b84018101918181019086841115612fbf57600080fd5b8286015b84811015612fda5780358352918301918301612fc3565b509695505050505050565b600082601f830112612ff657600080fd5b61079583833560208501612cea565b600080600080600060a0868803121561301d57600080fd5b853561302881612c08565b9450602086013561303881612c08565b935060408601356001600160401b038082111561305457600080fd5b61306089838a01612f7f565b9450606088013591508082111561307657600080fd5b61308289838a01612f7f565b9350608088013591508082111561309857600080fd5b506130a588828901612fe5565b9150509295509295909350565b600080604083850312156130c557600080fd5b82356001600160401b03808211156130dc57600080fd5b818501915085601f8301126130f057600080fd5b81356020613100612e7883612e0d565b82815260059290921b8401810191818101908984111561311f57600080fd5b948201945b8386101561314657853561313781612c08565b82529482019490820190613124565b9650508601359250508082111561315c57600080fd5b5061316985828601612f7f565b9150509250929050565b600081518084526020808501945080840160005b838110156131a357815187529582019590820190600101613187565b509495945050505050565b6020815260006107956020830184613173565b80151581146106e257600080fd5b600060208083850312156131e257600080fd5b82356001600160401b038111156131f857600080fd5b8301601f8101851361320957600080fd5b8035613217612e7882612e0d565b81815260069190911b8201830190838101908783111561323657600080fd5b928401925b82841015612ee857604084890312156132545760008081fd5b61325c612c92565b843561326781612c08565b815284860135613276816131c1565b818701528252604093909301929084019061323b565b6000806000606084860312156132a157600080fd5b83356132ac81612c08565b925060208401356001600160401b03808211156132c857600080fd5b6132d487838801612f7f565b935060408601359150808211156132ea57600080fd5b506132f786828701612f7f565b9150509250925092565b60006020828403121561331357600080fd5b8135610795816131c1565b6000806040838503121561333157600080fd5b823561333c81612c08565b9150602083013561334c816131c1565b809150509250929050565b6000806040838503121561336a57600080fd5b823561337581612c08565b9150602083013561334c81612c08565b600080600080600060a0868803121561339d57600080fd5b85356133a881612c08565b945060208601356133b881612c08565b9350604086013592506060860135915060808601356001600160401b038111156133e157600080fd5b6130a588828901612fe5565b60008060006060848603121561340257600080fd5b833561340d81612c08565b95602085013595506040909401359392505050565b600181811c9082168061343657607f821691505b60208210810361345657634e487b7160e01b600052602260045260246000fd5b50919050565b634e487b7160e01b600052603260045260246000fd5b634e487b7160e01b600052601160045260246000fd5b8082018082111561067b5761067b613472565b6000600182016134ad576134ad613472565b5060010190565b8181038181111561067b5761067b613472565b6000602082840312156134d957600080fd5b5051919050565b6000602082840312156134f257600080fd5b8151610795816131c1565b808202811582820484141761067b5761067b613472565b60008261353157634e487b7160e01b600052601260045260246000fd5b500490565b60208082526017908201527f5374616b65686f6c6465727320617265206c6f636b6564000000000000000000604082015260600190565b60208082526021908201527f546f74616c206665652070657263656e746167652065786365656473203130306040820152602560f81b606082015260800190565b600083516135c0818460208801612d91565b8351908301906135d4818360208801612d91565b01949350505050565b634e487b7160e01b600052603160045260246000fd5b601f821115610de857600081815260208120601f850160051c8101602086101561361a5750805b601f850160051c820191505b81811015610c3557828155600101613626565b81516001600160401b0381111561365257613652612c7c565b613666816136608454613422565b846135f3565b602080601f83116001811461369b57600084156136835750858301515b600019600386901b1c1916600185901b178555610c35565b600085815260208120601f198616915b828110156136ca578886015182559484019460019091019084016136ab565b50858210156136e85787850151600019600388901b60f8161c191681555b5050505050600190811b01905550565b60808152600061370b6080830187612db5565b85602084015282810360408401526137238186612db5565b91505060018060a01b038316606083015295945050505050565b6001600160a01b03868116825285166020820152604081018490526060810183905260a060808201819052600090612ee890830184612db5565b60006020828403121561378957600080fd5b815161079581612c49565b6001600160a01b0386811682528516602082015260a0604082018190526000906137c090830186613173565b82810360608401526137d28186613173565b905082810360808401526137e68185612db5565b98975050505050505050565b6040815260006138056040830185613173565b82810360208401526138178185613173565b9594505050505056fea2646970667358221220c3a7aa6f0688bf8b6203e65c4c2f956070eab53f9ed5dd2fdd52e7fd62e3276164736f6c63430008140033","linkReferences":{}},"methodIdentifiers":{"addStakeholder(address,uint256)":"9aec312e","balanceOf(address,uint256)":"00fdd58e","balanceOfBatch(address[],uint256[])":"4e1273f4","burn(address,uint256,uint256)":"f5298aca","burnBatch(address,uint256[],uint256[])":"6b20c454","currentSupply()":"771282f6","distribute((address,uint256)[])":"1c378573","erc20Address()":"276184ae","erc20Token()":"8a13eea7","eventAddress()":"fad56779","exists(uint256)":"4f558e79","get()":"6d4ce63c","getTicketHolders(uint256,uint256)":"20ced105","getTokensByUser(address)":"80370075","initialSupply()":"378dc3dc","isApprovedForAll(address,address)":"e985e9c5","isWhitelisted(address)":"3af32abf","maxSupply()":"d5abeb01","name()":"06fdde03","nextTokenId()":"75794a3c","owner()":"8da5cb5b","ownerSmartWallet()":"bbedb38e","price()":"a035b1fe","removeStakeholder(uint256)":"cf724bc9","renounceOwnership()":"715018a6","safeBatchTransferFrom(address,address,uint256[],uint256[],bytes)":"2eb2c2d6","safeTransferFrom(address,address,uint256,uint256,bytes)":"f242432a","setApprovalForAll(address,bool)":"a22cb465","setSmartWallet(address)":"2687f0f0","setTransferable(bool)":"9cd23707","setURI(string)":"02fe5305","stakeholders(uint256)":"1d6b8b72","stakeholdersCounter()":"acea082b","stakeholdersLocked()":"bcd2d977","supportsInterface(bytes4)":"01ffc9a7","symbol()":"95d89b41","tokenURI(uint256)":"c87b56dd","totalFeePercentage()":"1a478174","totalSupply()":"18160ddd","totalSupply(uint256)":"bd85b039","transferOwnership(address)":"f2fde38b","transferable()":"92ff0d31","updateStakeholder(uint256,uint256)":"c64c8cfa","updateSupply(uint256)":"6bd08049","updateWhitelist((address,bool)[])":"54f2a4d3","uri(uint256)":"0e89341c","userHasToken(address,uint256)":"0ab464f0","whitelistOnly()":"4b4687b5"},"id":40}